{
  "contractName": "Carchain",
  "abi": [
    {
      "inputs": [],
      "payable": false,
      "stateMutability": "nonpayable",
      "type": "constructor"
    },
    {
      "constant": false,
      "inputs": [
        {
          "internalType": "uint256",
          "name": "identifierCar",
          "type": "uint256"
        },
        {
          "internalType": "uint256",
          "name": "identifierOwner",
          "type": "uint256"
        },
        {
          "internalType": "string",
          "name": "model",
          "type": "string"
        }
      ],
      "name": "addCar",
      "outputs": [],
      "payable": false,
      "stateMutability": "nonpayable",
      "type": "function"
    },
    {
      "constant": false,
      "inputs": [
        {
          "internalType": "uint256",
          "name": "identifierCar",
          "type": "uint256"
        },
        {
          "internalType": "uint256",
          "name": "identifierOwner",
          "type": "uint256"
        }
      ],
      "name": "removeCar",
      "outputs": [],
      "payable": false,
      "stateMutability": "nonpayable",
      "type": "function"
    },
    {
      "constant": false,
      "inputs": [
        {
          "internalType": "uint256",
          "name": "identifierCar",
          "type": "uint256"
        },
        {
          "internalType": "uint256",
          "name": "identifierLeaser",
          "type": "uint256"
        }
      ],
      "name": "rentCar",
      "outputs": [],
      "payable": false,
      "stateMutability": "nonpayable",
      "type": "function"
    },
    {
      "constant": false,
      "inputs": [
        {
          "internalType": "uint256",
          "name": "identifierCar",
          "type": "uint256"
        }
      ],
      "name": "returnCarToCarpool",
      "outputs": [],
      "payable": false,
      "stateMutability": "nonpayable",
      "type": "function"
    },
    {
      "constant": true,
      "inputs": [
        {
          "internalType": "uint256",
          "name": "identifierCar",
          "type": "uint256"
        }
      ],
      "name": "getOwner",
      "outputs": [
        {
          "internalType": "uint256",
          "name": "",
          "type": "uint256"
        }
      ],
      "payable": false,
      "stateMutability": "view",
      "type": "function"
    },
    {
      "constant": true,
      "inputs": [
        {
          "internalType": "uint256",
          "name": "identifierCar",
          "type": "uint256"
        }
      ],
      "name": "getModel",
      "outputs": [
        {
          "internalType": "string",
          "name": "",
          "type": "string"
        }
      ],
      "payable": false,
      "stateMutability": "view",
      "type": "function"
    },
    {
      "constant": true,
      "inputs": [
        {
          "internalType": "uint256",
          "name": "identifierCar",
          "type": "uint256"
        }
      ],
      "name": "getInUse",
      "outputs": [
        {
          "internalType": "bool",
          "name": "",
          "type": "bool"
        }
      ],
      "payable": false,
      "stateMutability": "view",
      "type": "function"
    },
    {
      "constant": true,
      "inputs": [
        {
          "internalType": "uint256",
          "name": "identifierCar",
          "type": "uint256"
        }
      ],
      "name": "getLeaser",
      "outputs": [
        {
          "internalType": "uint256",
          "name": "",
          "type": "uint256"
        }
      ],
      "payable": false,
      "stateMutability": "view",
      "type": "function"
    },
    {
      "constant": true,
      "inputs": [
        {
          "internalType": "uint256",
          "name": "identifierCar",
          "type": "uint256"
        }
      ],
      "name": "getTimeRented",
      "outputs": [
        {
          "internalType": "uint256",
          "name": "",
          "type": "uint256"
        }
      ],
      "payable": false,
      "stateMutability": "view",
      "type": "function"
    },
    {
      "constant": true,
      "inputs": [
        {
          "internalType": "uint256",
          "name": "identifierCar",
          "type": "uint256"
        }
      ],
      "name": "getxCoordinate",
      "outputs": [
        {
          "internalType": "int256",
          "name": "",
          "type": "int256"
        }
      ],
      "payable": false,
      "stateMutability": "view",
      "type": "function"
    },
    {
      "constant": true,
      "inputs": [
        {
          "internalType": "uint256",
          "name": "identifierCar",
          "type": "uint256"
        }
      ],
      "name": "getyCoordinate",
      "outputs": [
        {
          "internalType": "int256",
          "name": "",
          "type": "int256"
        }
      ],
      "payable": false,
      "stateMutability": "view",
      "type": "function"
    },
    {
      "constant": true,
      "inputs": [
        {
          "internalType": "uint256",
          "name": "identifierCar",
          "type": "uint256"
        }
      ],
      "name": "getzCoordinate",
      "outputs": [
        {
          "internalType": "int256",
          "name": "",
          "type": "int256"
        }
      ],
      "payable": false,
      "stateMutability": "view",
      "type": "function"
    },
    {
      "constant": false,
      "inputs": [
        {
          "internalType": "uint256",
          "name": "identifierCar",
          "type": "uint256"
        }
      ],
      "name": "resetCar",
      "outputs": [],
      "payable": false,
      "stateMutability": "nonpayable",
      "type": "function"
    }
  ],
  "bytecode": "0x608060405234801561001057600080fd5b50610ef9806100206000396000f3fe608060405234801561001057600080fd5b50600436106100cf5760003560e01c80636d3616941161008c578063a780959611610066578063a7809596146103e0578063c41a360a14610422578063ca06a92914610464578063f17a559d146104a6576100cf565b80636d361694146102d35780639ca0fc0d1461037a578063a457d80a146103b2576100cf565b80630abf7403146100d457806338f720be146101a357806346bd20ba146101d15780634de26e6f14610209578063523504d01461024b57806359dc05151461028d575b600080fd5b6101a1600480360360608110156100ea57600080fd5b8101908080359060200190929190803590602001909291908035906020019064010000000081111561011b57600080fd5b82018360208201111561012d57600080fd5b8035906020019184600183028401116401000000008311171561014f57600080fd5b91908080601f016020809104026020016040519081016040528093929190818152602001838380828437600081840152601f19601f8201169050808301925050505050505091929192905050506104e8565b005b6101cf600480360360208110156101b957600080fd5b8101908080359060200190929190505050610637565b005b610207600480360360408110156101e757600080fd5b810190808035906020019092919080359060200190929190505050610726565b005b6102356004803603602081101561021f57600080fd5b8101908080359060200190929190505050610961565b6040518082815260200191505060405180910390f35b6102776004803603602081101561026157600080fd5b8101908080359060200190929190505050610980565b6040518082815260200191505060405180910390f35b6102b9600480360360208110156102a357600080fd5b810190808035906020019092919050505061099f565b604051808215151515815260200191505060405180910390f35b6102ff600480360360208110156102e957600080fd5b81019080803590602001909291905050506109cb565b6040518080602001828103825283818151815260200191508051906020019080838360005b8381101561033f578082015181840152602081019050610324565b50505050905090810190601f16801561036c5780820380516001836020036101000a031916815260200191505b509250505060405180910390f35b6103b06004803603604081101561039057600080fd5b810190808035906020019092919080359060200190929190505050610a82565b005b6103de600480360360208110156103c857600080fd5b8101908080359060200190929190505050610bfc565b005b61040c600480360360208110156103f657600080fd5b8101908080359060200190929190505050610cc7565b6040518082815260200191505060405180910390f35b61044e6004803603602081101561043857600080fd5b8101908080359060200190929190505050610ce6565b6040518082815260200191505060405180910390f35b6104906004803603602081101561047a57600080fd5b8101908080359060200190929190505050610d05565b6040518082815260200191505060405180910390f35b6104d2600480360360208110156104bc57600080fd5b8101908080359060200190929190505050610d24565b6040518082815260200191505060405180910390f35b60008060008581526020019081526020016000206000015414610556576040517f08c379a0000000000000000000000000000000000000000000000000000000008152600401808060200182810382526039815260200180610e646039913960400191505060405180910390fd5b61055e610d43565b6040518061010001604052808481526020018381526020016000151581526020016000815260200160008152602001600081526020016000815260200160008152509050806000808681526020019081526020016000206000820151816000015560208201518160010190805190602001906105db929190610d8a565b5060408201518160020160006101000a81548160ff021916908315150217905550606082015181600301556080820151816004015560a0820151816005015560c0820151816006015560e0820151816007015590505050505050565b61063f610d43565b604051806101000160405280600081526020016040518060200160405280600081525081526020016000151581526020016000815260200160008152602001600081526020016000815260200160008152509050806000808481526020019081526020016000206000820151816000015560208201518160010190805190602001906106cc929190610d8a565b5060408201518160020160006101000a81548160ff021916908315150217905550606082015181600301556080820151816004015560a0820151816005015560c0820151816006015560e082015181600701559050505050565b6000151560008084815260200190815260200160002060020160009054906101000a900460ff1615151480156107715750600080600084815260200190815260200160002060030154145b80156107925750600080600084815260200190815260200160002060040154145b6107e7576040517f08c379a0000000000000000000000000000000000000000000000000000000008152600401808060200182810382526028815260200180610e9d6028913960400191505060405180910390fd5b806000808481526020019081526020016000206000015414610871576040517f08c379a00000000000000000000000000000000000000000000000000000000081526004018080602001828103825260138152602001807f57726f6e67204f776e6572206f66204361722e0000000000000000000000000081525060200191505060405180910390fd5b610879610d43565b60405180610100016040528060008152602001604051806020016040528060008152508152602001600015158152602001600081526020016000815260200160008152602001600081526020016000815250905080600080858152602001908152602001600020600082015181600001556020820151816001019080519060200190610906929190610d8a565b5060408201518160020160006101000a81548160ff021916908315150217905550606082015181600301556080820151816004015560a0820151816005015560c0820151816006015560e08201518160070155905050505050565b6000806000838152602001908152602001600020600601549050919050565b6000806000838152602001908152602001600020600301549050919050565b600080600083815260200190815260200160002060020160009054906101000a900460ff169050919050565b60606000808381526020019081526020016000206001018054600181600116156101000203166002900480601f016020809104026020016040519081016040528092919081815260200182805460018160011615610100020316600290048015610a765780601f10610a4b57610100808354040283529160200191610a76565b820191906000526020600020905b815481529060010190602001808311610a5957829003601f168201915b50505050509050919050565b60008060008481526020019081526020016000206000015411610b0d576040517f08c379a00000000000000000000000000000000000000000000000000000000081526004018080602001828103825260158152602001807f436172206973206e6f7420696e20636172706f6f6c000000000000000000000081525060200191505060405180910390fd5b600080600084815260200190815260200160002060030154148015610b3e575060001515610b3a8361099f565b1515145b610bb0576040517f08c379a000000000000000000000000000000000000000000000000000000000815260040180806020018281038252601d8152602001807f43617220686173206e6f206f6e652077686f206c65617365642069742e00000081525060200191505060405180910390fd5b600160008084815260200190815260200160002060020160006101000a81548160ff02191690831515021790555080600080848152602001908152602001600020600301819055505050565b600080600083815260200190815260200160002060030154118015610c265750610c258161099f565b5b610c7b576040517f08c379a0000000000000000000000000000000000000000000000000000000008152600401808060200182810382526034815260200180610e306034913960400191505060405180910390fd5b600080600083815260200190815260200160002060020160006101000a81548160ff02191690831515021790555060008060008381526020019081526020016000206003018190555050565b6000806000838152602001908152602001600020600401549050919050565b6000806000838152602001908152602001600020600001549050919050565b6000806000838152602001908152602001600020600501549050919050565b6000806000838152602001908152602001600020600701549050919050565b604051806101000160405280600081526020016060815260200160001515815260200160008152602001600081526020016000815260200160008152602001600081525090565b828054600181600116156101000203166002900490600052602060002090601f016020900481019282601f10610dcb57805160ff1916838001178555610df9565b82800160010185558215610df9579182015b82811115610df8578251825591602001919060010190610ddd565b5b509050610e069190610e0a565b5090565b610e2c91905b80821115610e28576000816000905550600101610e10565b5090565b9056fe436172206973206e6f7420696e2055736520616e64207468657265666f72652063616e206e6f742062652072657475726e65642e43617220697320616c726561647920696e20436172706f6f6c20616e642061206e6577204361722063616e206e6f742062652061646465642e436172207374696c6c20696e2075736520616e642063616e206e6f742062652072656d6f7665642ea265627a7a723158201f0100f1f911829bba76da56c9f60be8bf8b310b01d5f2e31295487a31e664b164736f6c63430005100032",
  "source": "pragma solidity >=0.4.21 <0.7.0;\n\n\ncontract Carchain {\n\n  //every Car has to have an owner!\n  struct Car{\n    uint256 owner;\n    string model;\n    bool inUse;\n    uint256 leaser;\n    uint256 timeRented;\n    int256 xCoordinate;\n    int256 yCoordinate;\n    int256 zCoordinate;\n  }\n\n  mapping (uint256 => Car) carpool;\n\n\n  constructor() public {\n  \n  }\n\n//--------------------------------------------------------------------------------------------------------------------\n\n  /*\n  Adds a new Car to the Carpool.\n  */\n  function addCar(uint256 identifierCar, uint256 identifierOwner, string memory model) public{\n    require(\n      carpool[identifierCar].owner == 0, \"Car is already in Carpool and a new Car can not be added.\"\n      );\n\n    Car memory newCar = Car({\n      owner: identifierOwner, model: model, inUse: false, leaser: 0, timeRented: 0, xCoordinate: 0, yCoordinate: 0, zCoordinate: 0\n      });\n\n    carpool[identifierCar] = newCar;\n  }\n\n  /*\n  Removes a car which is not currently in Use from the total Carpool.\n  */\n  function removeCar(uint256 identifierCar, uint256 identifierOwner) public{\n    require(\n      carpool[identifierCar].inUse == false && carpool[identifierCar].leaser == 0 && carpool[identifierCar].timeRented == 0,\"Car still in use and can not be removed.\"\n      );\n    require(\n      carpool[identifierCar].owner == identifierOwner, \"Wrong Owner of Car.\"\n    );\n\n    Car memory defaultValueCar = Car({\n      owner: 0, model: \"\", inUse: false, leaser: 0, timeRented: 0, xCoordinate: 0, yCoordinate: 0, zCoordinate: 0\n      });\n\n    carpool[identifierCar] = defaultValueCar;\n  }\n\n//--------------------------------------------------------------------------------------------------------------------\n\n  /*\n  Marks a car as rented and safes the point from where the car was rented.\n  */\n  function rentCar(uint256 identifierCar, uint256 identifierLeaser) public {\n    require(carpool[identifierCar].owner > 0, \"Car is not in carpool\");\n    require(carpool[identifierCar].leaser == 0 && getInUse(identifierCar) == false, \"Car has no one who leased it.\");\n\n    carpool[identifierCar].inUse = true;\n    carpool[identifierCar].leaser = identifierLeaser;\n  }\n\n  /*\n  After a Car was rented the car is given back to the free carpool and given the state not rented.\n  */\n  function returnCarToCarpool(uint256 identifierCar) public {\n    require(carpool[identifierCar].leaser > 0 && getInUse(identifierCar), \"Car is not in Use and therefore can not be returned.\");\n\n    carpool[identifierCar].inUse = false;\n    carpool[identifierCar].leaser = 0;\n  }\n\n\n\n//--------------------------------------------------------------------------------------------------------------------\n\n//getter and setter for Car\n\n  function getOwner(uint256 identifierCar) public view returns (uint256) {\n    return carpool[identifierCar].owner;\n  }\n\n  function getModel(uint256 identifierCar) public view returns (string memory) {\n    return carpool[identifierCar].model;\n  }\n\n  /*\n  Checks if a Car is already rented/ in Use.\n  */\n  function getInUse(uint256 identifierCar) public view returns (bool) {\n    return carpool[identifierCar].inUse;\n  }\n\n  function getLeaser(uint256 identifierCar) public view returns (uint256) {\n    return carpool[identifierCar].leaser;\n  }\n\n  function getTimeRented(uint256 identifierCar) public view returns (uint256) {\n    return carpool[identifierCar].timeRented;\n  }\n\n  function getxCoordinate(uint256 identifierCar) public view returns (int256) {\n    return carpool[identifierCar].xCoordinate;\n  }\n\n  function getyCoordinate(uint256 identifierCar) public view returns (int256) {\n    return carpool[identifierCar].yCoordinate;\n  }\n\n  function getzCoordinate(uint256 identifierCar) public view returns (int256) {\n    return carpool[identifierCar].zCoordinate;\n  }\n\n//--------------------------------------------------------------------------------------------------------------------\n\n  /*\n  Resets a car from the total Carpool.\n  Just for debugging Reasons. Should not make to the final version.\n  */\n  function resetCar(uint256 identifierCar) public{\n    Car memory defaultValueCar = Car({\n      owner: 0, model: \"\", inUse: false, leaser: 0, timeRented: 0, xCoordinate: 0, yCoordinate: 0, zCoordinate: 0\n      });\n\n    carpool[identifierCar] = defaultValueCar;\n  }\n}",
  "sourcePath": "C:\\Users\\meton\\Desktop\\verteilte miete\\carchain\\ethereum\\contracts\\carchain.sol",
  "compiler": {
    "name": "solc",
    "version": "0.5.16+commit.9c3226ce.Emscripten.clang"
  },
  "schemaVersion": "3.0.23",
  "updatedAt": "2020-02-15T21:38:10.200Z",
  "networkType": "ethereum",
  "devdoc": {
    "methods": {}
  },
  "userdoc": {
    "methods": {}
  }
}