{
  "contractName": "carchain",
  "abi": [
    {
      "inputs": [],
      "payable": false,
      "stateMutability": "nonpayable",
      "type": "constructor"
    },
    {
      "constant": false,
      "inputs": [
        {
          "internalType": "address",
          "name": "identifierCar",
          "type": "address"
        },
        {
          "internalType": "string",
          "name": "nummernschild",
          "type": "string"
        },
        {
          "internalType": "string",
          "name": "typ",
          "type": "string"
        },
        {
          "internalType": "string",
          "name": "hersteller",
          "type": "string"
        },
        {
          "internalType": "string",
          "name": "farbe",
          "type": "string"
        },
        {
          "internalType": "uint256",
          "name": "ps",
          "type": "uint256"
        },
        {
          "internalType": "uint256",
          "name": "mietpreis",
          "type": "uint256"
        },
        {
          "internalType": "uint256",
          "name": "maxMietdauer",
          "type": "uint256"
        },
        {
          "internalType": "uint256",
          "name": "minMietdauer",
          "type": "uint256"
        }
      ],
      "name": "addCar",
      "outputs": [],
      "payable": false,
      "stateMutability": "nonpayable",
      "type": "function"
    },
    {
      "constant": false,
      "inputs": [
        {
          "internalType": "address",
          "name": "identifierCar",
          "type": "address"
        }
      ],
      "name": "removeCar",
      "outputs": [],
      "payable": false,
      "stateMutability": "nonpayable",
      "type": "function"
    },
    {
      "constant": false,
      "inputs": [
        {
          "internalType": "address payable",
          "name": "identifierCar",
          "type": "address"
        }
      ],
      "name": "rentCar",
      "outputs": [],
      "payable": true,
      "stateMutability": "payable",
      "type": "function"
    },
    {
      "constant": true,
      "inputs": [
        {
          "internalType": "address",
          "name": "identifierCar",
          "type": "address"
        }
      ],
      "name": "mayRent",
      "outputs": [
        {
          "internalType": "bool",
          "name": "",
          "type": "bool"
        }
      ],
      "payable": false,
      "stateMutability": "view",
      "type": "function"
    },
    {
      "constant": true,
      "inputs": [
        {
          "internalType": "address",
          "name": "identifierCar",
          "type": "address"
        },
        {
          "internalType": "address",
          "name": "identifierLeaser",
          "type": "address"
        }
      ],
      "name": "isLegalLeaser",
      "outputs": [
        {
          "internalType": "bool",
          "name": "",
          "type": "bool"
        }
      ],
      "payable": false,
      "stateMutability": "view",
      "type": "function"
    },
    {
      "constant": false,
      "inputs": [
        {
          "internalType": "address payable",
          "name": "identifierCar",
          "type": "address"
        }
      ],
      "name": "returnCarToCarpool",
      "outputs": [],
      "payable": true,
      "stateMutability": "payable",
      "type": "function"
    },
    {
      "constant": true,
      "inputs": [],
      "name": "getAvailableVehicles",
      "outputs": [
        {
          "internalType": "address[100]",
          "name": "",
          "type": "address[100]"
        }
      ],
      "payable": false,
      "stateMutability": "view",
      "type": "function"
    },
    {
      "constant": true,
      "inputs": [
        {
          "internalType": "address",
          "name": "identifierCar",
          "type": "address"
        }
      ],
      "name": "getOwner",
      "outputs": [
        {
          "internalType": "address",
          "name": "",
          "type": "address"
        }
      ],
      "payable": false,
      "stateMutability": "view",
      "type": "function"
    },
    {
      "constant": true,
      "inputs": [
        {
          "internalType": "address",
          "name": "identifierCar",
          "type": "address"
        }
      ],
      "name": "getCurrentState",
      "outputs": [
        {
          "internalType": "enum carchain.CarState",
          "name": "",
          "type": "uint8"
        }
      ],
      "payable": false,
      "stateMutability": "view",
      "type": "function"
    },
    {
      "constant": true,
      "inputs": [
        {
          "internalType": "address",
          "name": "identifierCar",
          "type": "address"
        }
      ],
      "name": "getLeaser",
      "outputs": [
        {
          "internalType": "address",
          "name": "",
          "type": "address"
        }
      ],
      "payable": false,
      "stateMutability": "view",
      "type": "function"
    },
    {
      "constant": true,
      "inputs": [
        {
          "internalType": "address",
          "name": "identifierCar",
          "type": "address"
        }
      ],
      "name": "getTimeRented",
      "outputs": [
        {
          "internalType": "uint256",
          "name": "",
          "type": "uint256"
        }
      ],
      "payable": false,
      "stateMutability": "view",
      "type": "function"
    },
    {
      "constant": true,
      "inputs": [
        {
          "internalType": "address",
          "name": "identifierCar",
          "type": "address"
        }
      ],
      "name": "getLatitude",
      "outputs": [
        {
          "internalType": "int256",
          "name": "",
          "type": "int256"
        }
      ],
      "payable": false,
      "stateMutability": "view",
      "type": "function"
    },
    {
      "constant": true,
      "inputs": [
        {
          "internalType": "address",
          "name": "identifierCar",
          "type": "address"
        }
      ],
      "name": "getLongitude",
      "outputs": [
        {
          "internalType": "int256",
          "name": "",
          "type": "int256"
        }
      ],
      "payable": false,
      "stateMutability": "view",
      "type": "function"
    },
    {
      "constant": true,
      "inputs": [
        {
          "internalType": "address",
          "name": "identifierCar",
          "type": "address"
        }
      ],
      "name": "getNummernschild",
      "outputs": [
        {
          "internalType": "string",
          "name": "",
          "type": "string"
        }
      ],
      "payable": false,
      "stateMutability": "view",
      "type": "function"
    },
    {
      "constant": true,
      "inputs": [
        {
          "internalType": "address",
          "name": "identifierCar",
          "type": "address"
        }
      ],
      "name": "getTyp",
      "outputs": [
        {
          "internalType": "string",
          "name": "",
          "type": "string"
        }
      ],
      "payable": false,
      "stateMutability": "view",
      "type": "function"
    },
    {
      "constant": true,
      "inputs": [
        {
          "internalType": "address",
          "name": "identifierCar",
          "type": "address"
        }
      ],
      "name": "getHersteller",
      "outputs": [
        {
          "internalType": "string",
          "name": "",
          "type": "string"
        }
      ],
      "payable": false,
      "stateMutability": "view",
      "type": "function"
    },
    {
      "constant": true,
      "inputs": [
        {
          "internalType": "address",
          "name": "identifierCar",
          "type": "address"
        }
      ],
      "name": "getFarbe",
      "outputs": [
        {
          "internalType": "string",
          "name": "",
          "type": "string"
        }
      ],
      "payable": false,
      "stateMutability": "view",
      "type": "function"
    },
    {
      "constant": true,
      "inputs": [
        {
          "internalType": "address",
          "name": "identifierCar",
          "type": "address"
        }
      ],
      "name": "getPs",
      "outputs": [
        {
          "internalType": "uint256",
          "name": "",
          "type": "uint256"
        }
      ],
      "payable": false,
      "stateMutability": "view",
      "type": "function"
    },
    {
      "constant": true,
      "inputs": [
        {
          "internalType": "address",
          "name": "identifierCar",
          "type": "address"
        }
      ],
      "name": "getMietpreis",
      "outputs": [
        {
          "internalType": "uint256",
          "name": "",
          "type": "uint256"
        }
      ],
      "payable": false,
      "stateMutability": "view",
      "type": "function"
    },
    {
      "constant": true,
      "inputs": [
        {
          "internalType": "address",
          "name": "identifierCar",
          "type": "address"
        }
      ],
      "name": "getMaxMietdauer",
      "outputs": [
        {
          "internalType": "uint256",
          "name": "",
          "type": "uint256"
        }
      ],
      "payable": false,
      "stateMutability": "view",
      "type": "function"
    },
    {
      "constant": true,
      "inputs": [
        {
          "internalType": "address",
          "name": "identifierCar",
          "type": "address"
        }
      ],
      "name": "getMinMietdauer",
      "outputs": [
        {
          "internalType": "uint256",
          "name": "",
          "type": "uint256"
        }
      ],
      "payable": false,
      "stateMutability": "view",
      "type": "function"
    },
    {
      "constant": false,
      "inputs": [
        {
          "internalType": "address",
          "name": "identifierCar",
          "type": "address"
        }
      ],
      "name": "resetCar",
      "outputs": [],
      "payable": false,
      "stateMutability": "nonpayable",
      "type": "function"
    }
  ],
  "bytecode": "0x608060405234801561001057600080fd5b5060006103e98190555061411e806100296000396000f3fe6080604052600436106101355760003560e01c80638718323e116100ab578063c70676451161006f578063c7067645146108c0578063cb8ad45114610904578063da051f4914610969578063e2cc37f114610a33578063f8d14ebe14610a98578063fa54416114610d6e57610135565b80638718323e146106a75780639bc3124e1461071a5780639f08a3e51461076d578063a4e88cf3146107d2578063ad4162ae1461083757610135565b8063539f5650116100fd578063539f5650146103c85780635e3c7e8d146104925780636204d12f146104e35780636aa7a8541461054c57806371e4ec9c146105b157806384f9f1981461064257610135565b80631270e5721461013a57806317eabd881461018b5780632361a67d146102555780633c00d62c146102995780634400c84714610363575b600080fd5b34801561014657600080fd5b506101896004803603602081101561015d57600080fd5b81019080803573ffffffffffffffffffffffffffffffffffffffff169060200190929190505050610dff565b005b34801561019757600080fd5b506101da600480360360208110156101ae57600080fd5b81019080803573ffffffffffffffffffffffffffffffffffffffff169060200190929190505050611259565b6040518080602001828103825283818151815260200191508051906020019080838360005b8381101561021a5780820151818401526020810190506101ff565b50505050905090810190601f1680156102475780820380516001836020036101000a031916815260200191505b509250505060405180910390f35b6102976004803603602081101561026b57600080fd5b81019080803573ffffffffffffffffffffffffffffffffffffffff169060200190929190505050611442565b005b3480156102a557600080fd5b506102e8600480360360208110156102bc57600080fd5b81019080803573ffffffffffffffffffffffffffffffffffffffff16906020019092919050505061179c565b6040518080602001828103825283818151815260200191508051906020019080838360005b8381101561032857808201518184015260208101905061030d565b50505050905090810190601f1680156103555780820380516001836020036101000a031916815260200191505b509250505060405180910390f35b34801561036f57600080fd5b506103b26004803603602081101561038657600080fd5b81019080803573ffffffffffffffffffffffffffffffffffffffff169060200190929190505050611985565b6040518082815260200191505060405180910390f35b3480156103d457600080fd5b50610417600480360360208110156103eb57600080fd5b81019080803573ffffffffffffffffffffffffffffffffffffffff169060200190929190505050611ad6565b6040518080602001828103825283818151815260200191508051906020019080838360005b8381101561045757808201518184015260208101905061043c565b50505050905090810190601f1680156104845780820380516001836020036101000a031916815260200191505b509250505060405180910390f35b34801561049e57600080fd5b506104e1600480360360208110156104b557600080fd5b81019080803573ffffffffffffffffffffffffffffffffffffffff169060200190929190505050611cbf565b005b3480156104ef57600080fd5b506105326004803603602081101561050657600080fd5b81019080803573ffffffffffffffffffffffffffffffffffffffff169060200190929190505050611f72565b604051808215151515815260200191505060405180910390f35b34801561055857600080fd5b5061059b6004803603602081101561056f57600080fd5b81019080803573ffffffffffffffffffffffffffffffffffffffff16906020019092919050505061214d565b6040518082815260200191505060405180910390f35b3480156105bd57600080fd5b50610600600480360360208110156105d457600080fd5b81019080803573ffffffffffffffffffffffffffffffffffffffff16906020019092919050505061229e565b604051808273ffffffffffffffffffffffffffffffffffffffff1673ffffffffffffffffffffffffffffffffffffffff16815260200191505060405180910390f35b34801561064e57600080fd5b506106916004803603602081101561066557600080fd5b81019080803573ffffffffffffffffffffffffffffffffffffffff16906020019092919050505061240f565b6040518082815260200191505060405180910390f35b3480156106b357600080fd5b506106f6600480360360208110156106ca57600080fd5b81019080803573ffffffffffffffffffffffffffffffffffffffff169060200190929190505050612560565b6040518082600281111561070657fe5b60ff16815260200191505060405180910390f35b34801561072657600080fd5b5061072f6126be565b6040518082606460200280838360005b8381101561075a57808201518184015260208101905061073f565b5050505090500191505060405180910390f35b34801561077957600080fd5b506107bc6004803603602081101561079057600080fd5b81019080803573ffffffffffffffffffffffffffffffffffffffff1690602001909291905050506128b1565b6040518082815260200191505060405180910390f35b3480156107de57600080fd5b50610821600480360360208110156107f557600080fd5b81019080803573ffffffffffffffffffffffffffffffffffffffff169060200190929190505050612a02565b6040518082815260200191505060405180910390f35b34801561084357600080fd5b506108a66004803603604081101561085a57600080fd5b81019080803573ffffffffffffffffffffffffffffffffffffffff169060200190929190803573ffffffffffffffffffffffffffffffffffffffff169060200190929190505050612b53565b604051808215151515815260200191505060405180910390f35b610902600480360360208110156108d657600080fd5b81019080803573ffffffffffffffffffffffffffffffffffffffff169060200190929190505050612e02565b005b34801561091057600080fd5b506109536004803603602081101561092757600080fd5b81019080803573ffffffffffffffffffffffffffffffffffffffff1690602001909291905050506132ee565b6040518082815260200191505060405180910390f35b34801561097557600080fd5b506109b86004803603602081101561098c57600080fd5b81019080803573ffffffffffffffffffffffffffffffffffffffff16906020019092919050505061343f565b6040518080602001828103825283818151815260200191508051906020019080838360005b838110156109f85780820151818401526020810190506109dd565b50505050905090810190601f168015610a255780820380516001836020036101000a031916815260200191505b509250505060405180910390f35b348015610a3f57600080fd5b50610a8260048036036020811015610a5657600080fd5b81019080803573ffffffffffffffffffffffffffffffffffffffff169060200190929190505050613628565b6040518082815260200191505060405180910390f35b348015610aa457600080fd5b50610d6c6004803603610120811015610abc57600080fd5b81019080803573ffffffffffffffffffffffffffffffffffffffff16906020019092919080359060200190640100000000811115610af957600080fd5b820183602082011115610b0b57600080fd5b80359060200191846001830284011164010000000083111715610b2d57600080fd5b91908080601f016020809104026020016040519081016040528093929190818152602001838380828437600081840152601f19601f82011690508083019250505050505050919291929080359060200190640100000000811115610b9057600080fd5b820183602082011115610ba257600080fd5b80359060200191846001830284011164010000000083111715610bc457600080fd5b91908080601f016020809104026020016040519081016040528093929190818152602001838380828437600081840152601f19601f82011690508083019250505050505050919291929080359060200190640100000000811115610c2757600080fd5b820183602082011115610c3957600080fd5b80359060200191846001830284011164010000000083111715610c5b57600080fd5b91908080601f016020809104026020016040519081016040528093929190818152602001838380828437600081840152601f19601f82011690508083019250505050505050919291929080359060200190640100000000811115610cbe57600080fd5b820183602082011115610cd057600080fd5b80359060200191846001830284011164010000000083111715610cf257600080fd5b91908080601f016020809104026020016040519081016040528093929190818152602001838380828437600081840152601f19601f82011690508083019250505050505050919291929080359060200190929190803590602001909291908035906020019092919080359060200190929190505050613779565b005b348015610d7a57600080fd5b50610dbd60048036036020811015610d9157600080fd5b81019080803573ffffffffffffffffffffffffffffffffffffffff169060200190929190505050613b5b565b604051808273ffffffffffffffffffffffffffffffffffffffff1673ffffffffffffffffffffffffffffffffffffffff16815260200191505060405180910390f35b80600073ffffffffffffffffffffffffffffffffffffffff166000808373ffffffffffffffffffffffffffffffffffffffff1673ffffffffffffffffffffffffffffffffffffffff16815260200190815260200160002060000160009054906101000a900473ffffffffffffffffffffffffffffffffffffffff1673ffffffffffffffffffffffffffffffffffffffff161415610f04576040517f08c379a00000000000000000000000000000000000000000000000000000000081526004018080602001828103825260158152602001807f436172206973206e6f7420696e20636172706f6f6c000000000000000000000081525060200191505060405180910390fd5b81338073ffffffffffffffffffffffffffffffffffffffff166000808473ffffffffffffffffffffffffffffffffffffffff1673ffffffffffffffffffffffffffffffffffffffff16815260200190815260200160002060000160009054906101000a900473ffffffffffffffffffffffffffffffffffffffff1673ffffffffffffffffffffffffffffffffffffffff1614611008576040517f08c379a000000000000000000000000000000000000000000000000000000000815260040180806020018281038252601f8152602001807f4e6f7420746865207269676874206f776e6572206f6620746865204361722e0081525060200191505060405180910390fd5b836000600281111561101657fe5b61101f82612560565b600281111561102a57fe5b1461109d576040517f08c379a00000000000000000000000000000000000000000000000000000000081526004018080602001828103825260108152602001807f436172206973206e6f7420667265652e0000000000000000000000000000000081525060200191505060405180910390fd5b60008090506110ab86613ccc565b90508573ffffffffffffffffffffffffffffffffffffffff166001826103e881106110d257fe5b0160009054906101000a900473ffffffffffffffffffffffffffffffffffffffff1673ffffffffffffffffffffffffffffffffffffffff16141561112e5761111981613da9565b6103e960008154809291906001900391905055505b6000808773ffffffffffffffffffffffffffffffffffffffff1673ffffffffffffffffffffffffffffffffffffffff168152602001908152602001600020600080820160006101000a81549073ffffffffffffffffffffffffffffffffffffffff02191690556000820160146101000a81549060ff02191690556001820160006101000a81549073ffffffffffffffffffffffffffffffffffffffff021916905560028201600090556003820160009055600482016000905560058201600090556006820160006111ff9190613ec1565b60078201600061120f9190613ec1565b60088201600061121f9190613ec1565b60098201600061122f9190613ec1565b600a820160009055600b820160009055600c820160009055600d8201600090555050505050505050565b606081600073ffffffffffffffffffffffffffffffffffffffff166000808373ffffffffffffffffffffffffffffffffffffffff1673ffffffffffffffffffffffffffffffffffffffff16815260200190815260200160002060000160009054906101000a900473ffffffffffffffffffffffffffffffffffffffff1673ffffffffffffffffffffffffffffffffffffffff161415611360576040517f08c379a00000000000000000000000000000000000000000000000000000000081526004018080602001828103825260158152602001807f436172206973206e6f7420696e20636172706f6f6c000000000000000000000081525060200191505060405180910390fd5b6000808473ffffffffffffffffffffffffffffffffffffffff1673ffffffffffffffffffffffffffffffffffffffff1681526020019081526020016000206006018054600181600116156101000203166002900480601f0160208091040260200160405190810160405280929190818152602001828054600181600116156101000203166002900480156114355780601f1061140a57610100808354040283529160200191611435565b820191906000526020600020905b81548152906001019060200180831161141857829003601f168201915b5050505050915050919050565b80600073ffffffffffffffffffffffffffffffffffffffff166000808373ffffffffffffffffffffffffffffffffffffffff1673ffffffffffffffffffffffffffffffffffffffff16815260200190815260200160002060000160009054906101000a900473ffffffffffffffffffffffffffffffffffffffff1673ffffffffffffffffffffffffffffffffffffffff161415611547576040517f08c379a00000000000000000000000000000000000000000000000000000000081526004018080602001828103825260158152602001807f436172206973206e6f7420696e20636172706f6f6c000000000000000000000081525060200191505060405180910390fd5b816001600281111561155557fe5b61155e82612560565b600281111561156957fe5b146115dc576040517f08c379a00000000000000000000000000000000000000000000000000000000081526004018080602001828103825260118152602001807f436172206973206e6f74204c656173656400000000000000000000000000000081525060200191505060405180910390fd5b82338073ffffffffffffffffffffffffffffffffffffffff166115fe8361229e565b73ffffffffffffffffffffffffffffffffffffffff1614611687576040517f08c379a00000000000000000000000000000000000000000000000000000000081526004018080602001828103825260208152602001807f4e6f7420746865207269676874204c6561736572206f6620746865204361722e81525060200191505060405180910390fd5b60008060008773ffffffffffffffffffffffffffffffffffffffff1673ffffffffffffffffffffffffffffffffffffffff1681526020019081526020016000206002018190555060016000808773ffffffffffffffffffffffffffffffffffffffff1673ffffffffffffffffffffffffffffffffffffffff16815260200190815260200160002060000160146101000a81548160ff0219169083600281111561172c57fe5b02179055506000808673ffffffffffffffffffffffffffffffffffffffff1673ffffffffffffffffffffffffffffffffffffffff16815260200190815260200160002060010160006101000a81549073ffffffffffffffffffffffffffffffffffffffff02191690555050505050565b606081600073ffffffffffffffffffffffffffffffffffffffff166000808373ffffffffffffffffffffffffffffffffffffffff1673ffffffffffffffffffffffffffffffffffffffff16815260200190815260200160002060000160009054906101000a900473ffffffffffffffffffffffffffffffffffffffff1673ffffffffffffffffffffffffffffffffffffffff1614156118a3576040517f08c379a00000000000000000000000000000000000000000000000000000000081526004018080602001828103825260158152602001807f436172206973206e6f7420696e20636172706f6f6c000000000000000000000081525060200191505060405180910390fd5b6000808473ffffffffffffffffffffffffffffffffffffffff1673ffffffffffffffffffffffffffffffffffffffff1681526020019081526020016000206009018054600181600116156101000203166002900480601f0160208091040260200160405190810160405280929190818152602001828054600181600116156101000203166002900480156119785780601f1061194d57610100808354040283529160200191611978565b820191906000526020600020905b81548152906001019060200180831161195b57829003601f168201915b5050505050915050919050565b600081600073ffffffffffffffffffffffffffffffffffffffff166000808373ffffffffffffffffffffffffffffffffffffffff1673ffffffffffffffffffffffffffffffffffffffff16815260200190815260200160002060000160009054906101000a900473ffffffffffffffffffffffffffffffffffffffff1673ffffffffffffffffffffffffffffffffffffffff161415611a8c576040517f08c379a00000000000000000000000000000000000000000000000000000000081526004018080602001828103825260158152602001807f436172206973206e6f7420696e20636172706f6f6c000000000000000000000081525060200191505060405180910390fd5b6000808473ffffffffffffffffffffffffffffffffffffffff1673ffffffffffffffffffffffffffffffffffffffff168152602001908152602001600020600d0154915050919050565b606081600073ffffffffffffffffffffffffffffffffffffffff166000808373ffffffffffffffffffffffffffffffffffffffff1673ffffffffffffffffffffffffffffffffffffffff16815260200190815260200160002060000160009054906101000a900473ffffffffffffffffffffffffffffffffffffffff1673ffffffffffffffffffffffffffffffffffffffff161415611bdd576040517f08c379a00000000000000000000000000000000000000000000000000000000081526004018080602001828103825260158152602001807f436172206973206e6f7420696e20636172706f6f6c000000000000000000000081525060200191505060405180910390fd5b6000808473ffffffffffffffffffffffffffffffffffffffff1673ffffffffffffffffffffffffffffffffffffffff1681526020019081526020016000206007018054600181600116156101000203166002900480601f016020809104026020016040519081016040528092919081815260200182805460018160011615610100020316600290048015611cb25780601f10611c8757610100808354040283529160200191611cb2565b820191906000526020600020905b815481529060010190602001808311611c9557829003601f168201915b5050505050915050919050565b611cc7613f09565b604051806101e001604052803373ffffffffffffffffffffffffffffffffffffffff16815260200160006002811115611cfc57fe5b8152602001600073ffffffffffffffffffffffffffffffffffffffff1681526020016000815260200160008152602001600081526020016000815260200160405180602001604052806000815250815260200160405180602001604052806000815250815260200160405180602001604052806000815250815260200160405180602001604052806000815250815260200160008152602001600081526020016000815260200160008152509050806000808473ffffffffffffffffffffffffffffffffffffffff1673ffffffffffffffffffffffffffffffffffffffff16815260200190815260200160002060008201518160000160006101000a81548173ffffffffffffffffffffffffffffffffffffffff021916908373ffffffffffffffffffffffffffffffffffffffff16021790555060208201518160000160146101000a81548160ff02191690836002811115611e5457fe5b021790555060408201518160010160006101000a81548173ffffffffffffffffffffffffffffffffffffffff021916908373ffffffffffffffffffffffffffffffffffffffff160217905550606082015181600201556080820151816003015560a0820151816004015560c0820151816005015560e0820151816006019080519060200190611ee4929190613fb6565b50610100820151816007019080519060200190611f02929190613fb6565b50610120820151816008019080519060200190611f20929190613fb6565b50610140820151816009019080519060200190611f3e929190613fb6565b5061016082015181600a015561018082015181600b01556101a082015181600c01556101c082015181600d01559050505050565b600081600073ffffffffffffffffffffffffffffffffffffffff166000808373ffffffffffffffffffffffffffffffffffffffff1673ffffffffffffffffffffffffffffffffffffffff16815260200190815260200160002060000160009054906101000a900473ffffffffffffffffffffffffffffffffffffffff1673ffffffffffffffffffffffffffffffffffffffff161415612079576040517f08c379a00000000000000000000000000000000000000000000000000000000081526004018080602001828103825260158152602001807f436172206973206e6f7420696e20636172706f6f6c000000000000000000000081525060200191505060405180910390fd5b600073ffffffffffffffffffffffffffffffffffffffff166000808573ffffffffffffffffffffffffffffffffffffffff1673ffffffffffffffffffffffffffffffffffffffff16815260200190815260200160002060010160009054906101000a900473ffffffffffffffffffffffffffffffffffffffff1673ffffffffffffffffffffffffffffffffffffffff1614801561213457506000600281111561211e57fe5b61212784612560565b600281111561213257fe5b145b156121425760019150612147565b600091505b50919050565b600081600073ffffffffffffffffffffffffffffffffffffffff166000808373ffffffffffffffffffffffffffffffffffffffff1673ffffffffffffffffffffffffffffffffffffffff16815260200190815260200160002060000160009054906101000a900473ffffffffffffffffffffffffffffffffffffffff1673ffffffffffffffffffffffffffffffffffffffff161415612254576040517f08c379a00000000000000000000000000000000000000000000000000000000081526004018080602001828103825260158152602001807f436172206973206e6f7420696e20636172706f6f6c000000000000000000000081525060200191505060405180910390fd5b6000808473ffffffffffffffffffffffffffffffffffffffff1673ffffffffffffffffffffffffffffffffffffffff168152602001908152602001600020600a0154915050919050565b600081600073ffffffffffffffffffffffffffffffffffffffff166000808373ffffffffffffffffffffffffffffffffffffffff1673ffffffffffffffffffffffffffffffffffffffff16815260200190815260200160002060000160009054906101000a900473ffffffffffffffffffffffffffffffffffffffff1673ffffffffffffffffffffffffffffffffffffffff1614156123a5576040517f08c379a00000000000000000000000000000000000000000000000000000000081526004018080602001828103825260158152602001807f436172206973206e6f7420696e20636172706f6f6c000000000000000000000081525060200191505060405180910390fd5b6000808473ffffffffffffffffffffffffffffffffffffffff1673ffffffffffffffffffffffffffffffffffffffff16815260200190815260200160002060010160009054906101000a900473ffffffffffffffffffffffffffffffffffffffff16915050919050565b600081600073ffffffffffffffffffffffffffffffffffffffff166000808373ffffffffffffffffffffffffffffffffffffffff1673ffffffffffffffffffffffffffffffffffffffff16815260200190815260200160002060000160009054906101000a900473ffffffffffffffffffffffffffffffffffffffff1673ffffffffffffffffffffffffffffffffffffffff161415612516576040517f08c379a00000000000000000000000000000000000000000000000000000000081526004018080602001828103825260158152602001807f436172206973206e6f7420696e20636172706f6f6c000000000000000000000081525060200191505060405180910390fd5b6000808473ffffffffffffffffffffffffffffffffffffffff1673ffffffffffffffffffffffffffffffffffffffff168152602001908152602001600020600c0154915050919050565b600081600073ffffffffffffffffffffffffffffffffffffffff166000808373ffffffffffffffffffffffffffffffffffffffff1673ffffffffffffffffffffffffffffffffffffffff16815260200190815260200160002060000160009054906101000a900473ffffffffffffffffffffffffffffffffffffffff1673ffffffffffffffffffffffffffffffffffffffff161415612667576040517f08c379a00000000000000000000000000000000000000000000000000000000081526004018080602001828103825260158152602001807f436172206973206e6f7420696e20636172706f6f6c000000000000000000000081525060200191505060405180910390fd5b6000808473ffffffffffffffffffffffffffffffffffffffff1673ffffffffffffffffffffffffffffffffffffffff16815260200190815260200160002060000160149054906101000a900460ff16915050919050565b6126c6614036565b6126ce614036565b600080905060008090507fffffffffffffffffffffffffffffffffffffffffffffffffffffffffffffffff6103e8146128a8575b6103e8821080156127135750606481105b156128a757600073ffffffffffffffffffffffffffffffffffffffff166000806001856103e8811061274157fe5b0160009054906101000a900473ffffffffffffffffffffffffffffffffffffffff1673ffffffffffffffffffffffffffffffffffffffff1673ffffffffffffffffffffffffffffffffffffffff16815260200190815260200160002060000160009054906101000a900473ffffffffffffffffffffffffffffffffffffffff1673ffffffffffffffffffffffffffffffffffffffff161415801561281957506128186001836103e881106127f157fe5b0160009054906101000a900473ffffffffffffffffffffffffffffffffffffffff16611f72565b5b1561289a576001826103e8811061282c57fe5b0160009054906101000a900473ffffffffffffffffffffffffffffffffffffffff1683826064811061285a57fe5b602002019073ffffffffffffffffffffffffffffffffffffffff16908173ffffffffffffffffffffffffffffffffffffffff168152505080806001019150505b8180600101925050612702565b5b82935050505090565b600081600073ffffffffffffffffffffffffffffffffffffffff166000808373ffffffffffffffffffffffffffffffffffffffff1673ffffffffffffffffffffffffffffffffffffffff16815260200190815260200160002060000160009054906101000a900473ffffffffffffffffffffffffffffffffffffffff1673ffffffffffffffffffffffffffffffffffffffff1614156129b8576040517f08c379a00000000000000000000000000000000000000000000000000000000081526004018080602001828103825260158152602001807f436172206973206e6f7420696e20636172706f6f6c000000000000000000000081525060200191505060405180910390fd5b6000808473ffffffffffffffffffffffffffffffffffffffff1673ffffffffffffffffffffffffffffffffffffffff16815260200190815260200160002060050154915050919050565b600081600073ffffffffffffffffffffffffffffffffffffffff166000808373ffffffffffffffffffffffffffffffffffffffff1673ffffffffffffffffffffffffffffffffffffffff16815260200190815260200160002060000160009054906101000a900473ffffffffffffffffffffffffffffffffffffffff1673ffffffffffffffffffffffffffffffffffffffff161415612b09576040517f08c379a00000000000000000000000000000000000000000000000000000000081526004018080602001828103825260158152602001807f436172206973206e6f7420696e20636172706f6f6c000000000000000000000081525060200191505060405180910390fd5b6000808473ffffffffffffffffffffffffffffffffffffffff1673ffffffffffffffffffffffffffffffffffffffff16815260200190815260200160002060020154915050919050565b600082600073ffffffffffffffffffffffffffffffffffffffff166000808373ffffffffffffffffffffffffffffffffffffffff1673ffffffffffffffffffffffffffffffffffffffff16815260200190815260200160002060000160009054906101000a900473ffffffffffffffffffffffffffffffffffffffff1673ffffffffffffffffffffffffffffffffffffffff161415612c5a576040517f08c379a00000000000000000000000000000000000000000000000000000000081526004018080602001828103825260158152602001807f436172206973206e6f7420696e20636172706f6f6c000000000000000000000081525060200191505060405180910390fd5b8360016002811115612c6857fe5b612c7182612560565b6002811115612c7c57fe5b14612cef576040517f08c379a00000000000000000000000000000000000000000000000000000000081526004018080602001828103825260118152602001807f436172206973206e6f74204c656173656400000000000000000000000000000081525060200191505060405180910390fd5b84848073ffffffffffffffffffffffffffffffffffffffff16612d118361229e565b73ffffffffffffffffffffffffffffffffffffffff1614612d9a576040517f08c379a00000000000000000000000000000000000000000000000000000000081526004018080602001828103825260208152602001807f4e6f7420746865207269676874204c6561736572206f6620746865204361722e81525060200191505060405180910390fd5b612da2613eb9565b6000808973ffffffffffffffffffffffffffffffffffffffff1673ffffffffffffffffffffffffffffffffffffffff168152602001908152602001600020600201541015612df35760019450612df8565b600094505b5050505092915050565b80600073ffffffffffffffffffffffffffffffffffffffff166000808373ffffffffffffffffffffffffffffffffffffffff1673ffffffffffffffffffffffffffffffffffffffff16815260200190815260200160002060000160009054906101000a900473ffffffffffffffffffffffffffffffffffffffff1673ffffffffffffffffffffffffffffffffffffffff161415612f07576040517f08c379a00000000000000000000000000000000000000000000000000000000081526004018080602001828103825260158152602001807f436172206973206e6f7420696e20636172706f6f6c000000000000000000000081525060200191505060405180910390fd5b8160006002811115612f1557fe5b612f1e82612560565b6002811115612f2957fe5b14612f9c576040517f08c379a00000000000000000000000000000000000000000000000000000000081526004018080602001828103825260108152602001807f436172206973206e6f7420667265652e0000000000000000000000000000000081525060200191505060405180910390fd5b6108fc341015612ff7576040517f08c379a000000000000000000000000000000000000000000000000000000000815260040180806020018281038252602781526020018061407f6027913960400191505060405180910390fd5b6108fc6000808573ffffffffffffffffffffffffffffffffffffffff1673ffffffffffffffffffffffffffffffffffffffff168152602001908152602001600020600d01546000808673ffffffffffffffffffffffffffffffffffffffff1673ffffffffffffffffffffffffffffffffffffffff168152602001908152602001600020600b015402013410156130d8576040517f08c379a00000000000000000000000000000000000000000000000000000000081526004018080602001828103825260448152602001806140a66044913960600191505060405180910390fd5b346000808573ffffffffffffffffffffffffffffffffffffffff1673ffffffffffffffffffffffffffffffffffffffff1681526020019081526020016000206003018190555060008390508073ffffffffffffffffffffffffffffffffffffffff166108fc8034039081150290604051600060405180830381858888f1935050505015801561316b573d6000803e3d6000fd5b5060016000808673ffffffffffffffffffffffffffffffffffffffff1673ffffffffffffffffffffffffffffffffffffffff16815260200190815260200160002060000160146101000a81548160ff021916908360028111156131ca57fe5b0217905550336000808673ffffffffffffffffffffffffffffffffffffffff1673ffffffffffffffffffffffffffffffffffffffff16815260200190815260200160002060010160006101000a81548173ffffffffffffffffffffffffffffffffffffffff021916908373ffffffffffffffffffffffffffffffffffffffff1602179055506000808573ffffffffffffffffffffffffffffffffffffffff1673ffffffffffffffffffffffffffffffffffffffff168152602001908152602001600020600b0154348161329957fe5b046132a2613eb9565b016000808673ffffffffffffffffffffffffffffffffffffffff1673ffffffffffffffffffffffffffffffffffffffff1681526020019081526020016000206002018190555050505050565b600081600073ffffffffffffffffffffffffffffffffffffffff166000808373ffffffffffffffffffffffffffffffffffffffff1673ffffffffffffffffffffffffffffffffffffffff16815260200190815260200160002060000160009054906101000a900473ffffffffffffffffffffffffffffffffffffffff1673ffffffffffffffffffffffffffffffffffffffff1614156133f5576040517f08c379a00000000000000000000000000000000000000000000000000000000081526004018080602001828103825260158152602001807f436172206973206e6f7420696e20636172706f6f6c000000000000000000000081525060200191505060405180910390fd5b6000808473ffffffffffffffffffffffffffffffffffffffff1673ffffffffffffffffffffffffffffffffffffffff168152602001908152602001600020600b0154915050919050565b606081600073ffffffffffffffffffffffffffffffffffffffff166000808373ffffffffffffffffffffffffffffffffffffffff1673ffffffffffffffffffffffffffffffffffffffff16815260200190815260200160002060000160009054906101000a900473ffffffffffffffffffffffffffffffffffffffff1673ffffffffffffffffffffffffffffffffffffffff161415613546576040517f08c379a00000000000000000000000000000000000000000000000000000000081526004018080602001828103825260158152602001807f436172206973206e6f7420696e20636172706f6f6c000000000000000000000081525060200191505060405180910390fd5b6000808473ffffffffffffffffffffffffffffffffffffffff1673ffffffffffffffffffffffffffffffffffffffff1681526020019081526020016000206008018054600181600116156101000203166002900480601f01602080910402602001604051908101604052809291908181526020018280546001816001161561010002031660029004801561361b5780601f106135f05761010080835404028352916020019161361b565b820191906000526020600020905b8154815290600101906020018083116135fe57829003601f168201915b5050505050915050919050565b600081600073ffffffffffffffffffffffffffffffffffffffff166000808373ffffffffffffffffffffffffffffffffffffffff1673ffffffffffffffffffffffffffffffffffffffff16815260200190815260200160002060000160009054906101000a900473ffffffffffffffffffffffffffffffffffffffff1673ffffffffffffffffffffffffffffffffffffffff16141561372f576040517f08c379a00000000000000000000000000000000000000000000000000000000081526004018080602001828103825260158152602001807f436172206973206e6f7420696e20636172706f6f6c000000000000000000000081525060200191505060405180910390fd5b6000808473ffffffffffffffffffffffffffffffffffffffff1673ffffffffffffffffffffffffffffffffffffffff16815260200190815260200160002060040154915050919050565b600073ffffffffffffffffffffffffffffffffffffffff166000808b73ffffffffffffffffffffffffffffffffffffffff1673ffffffffffffffffffffffffffffffffffffffff16815260200190815260200160002060000160009054906101000a900473ffffffffffffffffffffffffffffffffffffffff1673ffffffffffffffffffffffffffffffffffffffff161461387c576040517f08c379a00000000000000000000000000000000000000000000000000000000081526004018080602001828103825260108152602001807f494420616c726561647920757365642e0000000000000000000000000000000081525060200191505060405180910390fd5b613884613f09565b604051806101e001604052803373ffffffffffffffffffffffffffffffffffffffff168152602001600060028111156138b957fe5b8152602001600073ffffffffffffffffffffffffffffffffffffffff168152602001600081526020016000815260200160008152602001600081526020018a81526020018981526020018881526020018781526020018681526020018581526020018481526020018381525090508960016103e9546103e8811061393957fe5b0160006101000a81548173ffffffffffffffffffffffffffffffffffffffff021916908373ffffffffffffffffffffffffffffffffffffffff1602179055506103e960008154809291906001019190505550806000808c73ffffffffffffffffffffffffffffffffffffffff1673ffffffffffffffffffffffffffffffffffffffff16815260200190815260200160002060008201518160000160006101000a81548173ffffffffffffffffffffffffffffffffffffffff021916908373ffffffffffffffffffffffffffffffffffffffff16021790555060208201518160000160146101000a81548160ff02191690836002811115613a3557fe5b021790555060408201518160010160006101000a81548173ffffffffffffffffffffffffffffffffffffffff021916908373ffffffffffffffffffffffffffffffffffffffff160217905550606082015181600201556080820151816003015560a0820151816004015560c0820151816005015560e0820151816006019080519060200190613ac5929190613fb6565b50610100820151816007019080519060200190613ae3929190613fb6565b50610120820151816008019080519060200190613b01929190613fb6565b50610140820151816009019080519060200190613b1f929190613fb6565b5061016082015181600a015561018082015181600b01556101a082015181600c01556101c082015181600d015590505050505050505050505050565b600081600073ffffffffffffffffffffffffffffffffffffffff166000808373ffffffffffffffffffffffffffffffffffffffff1673ffffffffffffffffffffffffffffffffffffffff16815260200190815260200160002060000160009054906101000a900473ffffffffffffffffffffffffffffffffffffffff1673ffffffffffffffffffffffffffffffffffffffff161415613c62576040517f08c379a00000000000000000000000000000000000000000000000000000000081526004018080602001828103825260158152602001807f436172206973206e6f7420696e20636172706f6f6c000000000000000000000081525060200191505060405180910390fd5b6000808473ffffffffffffffffffffffffffffffffffffffff1673ffffffffffffffffffffffffffffffffffffffff16815260200190815260200160002060000160009054906101000a900473ffffffffffffffffffffffffffffffffffffffff16915050919050565b60007fffffffffffffffffffffffffffffffffffffffffffffffffffffffffffffffff6103e814613d805760008090505b6103e8811015613d7e578273ffffffffffffffffffffffffffffffffffffffff166001826103e88110613d2c57fe5b0160009054906101000a900473ffffffffffffffffffffffffffffffffffffffff1673ffffffffffffffffffffffffffffffffffffffff161415613d735780915050613da4565b806001019050613cfd565b505b7fffffffffffffffffffffffffffffffffffffffffffffffffffffffffffffffff90505b919050565b6103e9548110613db857613eb6565b60016103e9541415613dfc57600160006103e88110613dd357fe5b0160006101000a81549073ffffffffffffffffffffffffffffffffffffffff0219169055613eb6565b6001806103e954036103e88110613e0f57fe5b0160009054906101000a900473ffffffffffffffffffffffffffffffffffffffff166001826103e88110613e3f57fe5b0160006101000a81548173ffffffffffffffffffffffffffffffffffffffff021916908373ffffffffffffffffffffffffffffffffffffffff1602179055506001806103e954036103e88110613e9157fe5b0160006101000a81549073ffffffffffffffffffffffffffffffffffffffff02191690555b50565b600042905090565b50805460018160011615610100020316600290046000825580601f10613ee75750613f06565b601f016020900490600052602060002090810190613f059190614059565b5b50565b604051806101e00160405280600073ffffffffffffffffffffffffffffffffffffffff16815260200160006002811115613f3f57fe5b8152602001600073ffffffffffffffffffffffffffffffffffffffff1681526020016000815260200160008152602001600081526020016000815260200160608152602001606081526020016060815260200160608152602001600081526020016000815260200160008152602001600081525090565b828054600181600116156101000203166002900490600052602060002090601f016020900481019282601f10613ff757805160ff1916838001178555614025565b82800160010185558215614025579182015b82811115614024578251825591602001919060010190614009565b5b5090506140329190614059565b5090565b60405180610c800160405280606490602082028038833980820191505090505090565b61407b91905b8082111561407757600081600090555060010161405f565b5090565b9056fe596f7520646964206e6f742070617920656e6f7567682e20284d696e696d756d3a203233303029596f7520646964206e6f7420706179206d6f7265207468616e206d696e204475726174696f6e206f662052656e74202a2072656e74616c207072696365202b2032333030a265627a7a72315820586479237bc908d416f12e8e3c9a33a48e0177abeca00a2bb8cc49fcb844e4d464736f6c63430005100032",
  "source": "pragma solidity >=0.4.21 <0.7.0;\r\n\r\n\r\ncontract carchain {\r\n\r\nuint256 constant private maxArrayLength = 2**256-1;\r\n\r\nenum CarState {\r\n    Free,\r\n    Leased,\r\n    Blocked\r\n}\r\n\r\n  //every Car has to have an owner!\r\n  struct Car{\r\n    address owner;\r\n    CarState currentState;\r\n    address leaser;\r\n    uint256 timeRented;\r\n    uint256 amountEarned;\r\n    int256 longitude;\r\n    int256 latitude;\r\n    string nummernschild;\r\n    string typ;\r\n    string hersteller;\r\n    string farbe;\r\n    uint256 ps;\r\n    uint256 mietpreis;  //pro Minute\r\n    uint256 maxMietdauer;\r\n    uint256 minMietdauer;\r\n  }\r\n\r\n  mapping (address => Car) carpool;\r\n  address[1000] allCars;\r\n  uint256 private realLengthAll;\r\n\r\n\r\n  constructor() public {\r\n    realLengthAll = 0;\r\n  }\r\n\r\n//--------------------------------------------------------------------------------------------------------------------\r\n\r\n  /*\r\n  Adds a new Car to the Carpool.\r\n  */\r\n  function addCar(address identifierCar,\r\n    string memory nummernschild, string memory typ, string memory hersteller, string memory farbe,\r\n    uint256 ps, uint256 mietpreis, uint256 maxMietdauer, uint256 minMietdauer)\r\n    public {\r\n      require(\r\n        carpool[identifierCar].owner == address(0), \"ID already used.\"\r\n        );\r\n\r\n      Car memory newCar = Car({\r\n        owner: msg.sender, currentState: CarState.Free, leaser: address(0),timeRented: 0, amountEarned: 0,\r\n        longitude: 0, latitude: 0,nummernschild: nummernschild, typ: typ, hersteller: hersteller, farbe: farbe,\r\n        ps: ps, mietpreis: mietpreis, maxMietdauer: maxMietdauer, minMietdauer: minMietdauer\r\n        });\r\n\r\n      allCars[realLengthAll] = identifierCar;\r\n      realLengthAll++;\r\n      carpool[identifierCar] = newCar;\r\n  }\r\n\r\n  /*\r\n  Removes a car which is not currently in Use from the total Carpool.\r\n  */\r\n  function removeCar(address identifierCar) public\r\n            knownCar(identifierCar) onlyOwner(identifierCar, msg.sender) carFree(identifierCar) {\r\n    uint256 index = 0;\r\n    index = getPostionInAllCars(identifierCar);\r\n    if(allCars[index] == identifierCar){\r\n      deleteCarFromAllCars(index);\r\n      realLengthAll--;\r\n    }\r\n    delete carpool[identifierCar];\r\n  }\r\n\r\n//--------------------------------------------------------------------------------------------------------------------\r\n\r\n  /*\r\n  Marks a car as rented and safes the point from where the car was rented.\r\n  */\r\n  function rentCar(address payable identifierCar) public knownCar(identifierCar) carFree(identifierCar) payable {\r\n    //Mindestmietdauer?\r\n    require(msg.value >= 2300, \"You did not pay enough. (Minimum: 2300)\");\r\n    require(msg.value >= carpool[identifierCar].mietpreis * carpool[identifierCar].minMietdauer + 2300,\r\n     \"You did not pay more than min Duration of Rent * rental price + 2300\");\r\n\r\n    carpool[identifierCar].amountEarned = msg.value;\r\n    address payable beneficiary = identifierCar;\r\n    beneficiary.transfer(msg.value - 2300);\r\n    carpool[identifierCar].currentState = CarState.Leased;\r\n    carpool[identifierCar].leaser = msg.sender;\r\n    //Problem: block.timestamp ist worst case 90 sekunden ungenau wegen manipulation von minern.\r\n    carpool[identifierCar].timeRented = getTimeNow() + (msg.value / carpool[identifierCar].mietpreis);\r\n  }\r\n\r\n  /*\r\n  Gives a boolean value if a car is now avaible for rent.\r\n  */\r\n  function mayRent(address identifierCar) public knownCar(identifierCar) view returns (bool) {\r\n    if(carpool[identifierCar].leaser == address(0) && getCurrentState(identifierCar) == CarState.Free){\r\n      return true;\r\n    }else{\r\n      return false;\r\n    }\r\n  }\r\n\r\n  /*\r\n  Gives a boolean value if a Leaser is still Lawfully/ Legally a Leaser and has enough credit.\r\n  */\r\n  function isLegalLeaser(address identifierCar, address identifierLeaser) public\r\n            knownCar(identifierCar) isLeased(identifierCar) isLeasedBy(identifierCar, identifierLeaser) view returns (bool) {\r\n    if(carpool[identifierCar].timeRented < getTimeNow()){\r\n      return true;\r\n    }\r\n    return false;\r\n  }\r\n\r\n  /*\r\n  After a Car was rented the car is given back to the free carpool and given the state not rented.\r\n  */\r\n  function returnCarToCarpool(address payable identifierCar) public\r\n            knownCar(identifierCar) isLeased(identifierCar) isLeasedBy(identifierCar, msg.sender) payable {\r\n    carpool[identifierCar].timeRented = 0;\r\n    carpool[identifierCar].currentState = CarState.Leased;\r\n    delete carpool[identifierCar].leaser;\r\n  }\r\n\r\n  function getAvailableVehicles() public view returns (address[100] memory){\r\n    address[100] memory avaibleCars;\r\n    uint256 identifierAll = 0;\r\n    uint256 identifierAvaible = 0;\r\n    if(allCars.length != maxArrayLength){\r\n      while(identifierAll < allCars.length && identifierAvaible < avaibleCars.length){\r\n        if(carpool[allCars[identifierAll]].owner != address(0) && mayRent(allCars[identifierAll])) {\r\n          avaibleCars[identifierAvaible] = allCars[identifierAll];\r\n          identifierAvaible++;\r\n        }\r\n        identifierAll++;\r\n      }\r\n    }\r\n    return avaibleCars;\r\n  }\r\n\r\n\r\n\r\n//--------------------------------------------------------------------------------------------------------------------\r\n\r\n//public getter for Car\r\n\r\n  function getOwner(address identifierCar) public knownCar(identifierCar) view returns (address) {\r\n    return carpool[identifierCar].owner;\r\n  }\r\n\r\n  /*\r\n  Checks if a Car is already rented/ in Use.\r\n  */\r\n  function getCurrentState(address identifierCar) public knownCar(identifierCar) view returns (CarState) {\r\n    return carpool[identifierCar].currentState;\r\n  }\r\n\r\n  function getLeaser(address identifierCar) public knownCar(identifierCar) view returns (address) {\r\n    return carpool[identifierCar].leaser;\r\n  }\r\n\r\n  function getTimeRented(address identifierCar) public knownCar(identifierCar) view returns (uint256) {\r\n    return carpool[identifierCar].timeRented;\r\n  }\r\n\r\n  function getLatitude(address identifierCar) public knownCar(identifierCar) view returns (int256) {\r\n    return carpool[identifierCar].latitude;\r\n  }\r\n\r\n  function getLongitude(address identifierCar) public knownCar(identifierCar) view returns (int256) {\r\n    return carpool[identifierCar].longitude;\r\n  }\r\n\r\n  function getNummernschild(address identifierCar) public knownCar(identifierCar) view returns (string memory) {\r\n    return carpool[identifierCar].nummernschild;\r\n  }\r\n\r\n  function getTyp(address identifierCar) public knownCar(identifierCar) view returns (string memory) {\r\n    return carpool[identifierCar].typ;\r\n  }\r\n\r\n  function getHersteller(address identifierCar) public knownCar(identifierCar) view returns (string memory) {\r\n    return carpool[identifierCar].hersteller;\r\n  }\r\n\r\n  function getFarbe(address identifierCar) public knownCar(identifierCar) view returns (string memory) {\r\n    return carpool[identifierCar].farbe;\r\n  }\r\n\r\n  function getPs(address identifierCar) public knownCar(identifierCar) view returns (uint256) {\r\n    return carpool[identifierCar].ps;\r\n  }\r\n\r\n  function getMietpreis(address identifierCar) public knownCar(identifierCar) view returns (uint256) {\r\n    return carpool[identifierCar].mietpreis;\r\n  }\r\n\r\n  function getMaxMietdauer(address identifierCar) public knownCar(identifierCar) view returns (uint256) {\r\n    return carpool[identifierCar].maxMietdauer;\r\n  }\r\n\r\n  function getMinMietdauer(address identifierCar) public knownCar(identifierCar) view returns (uint256) {\r\n    return carpool[identifierCar].minMietdauer;\r\n  }\r\n\r\n\r\n//--------------------------------------------------------------------------------------------------------------------\r\n\r\n  /*\r\n  Resets a car from the total Carpool.\r\n  Just for debugging Reasons. Should not make to the final version.\r\n  */\r\n  function resetCar(address identifierCar) public{\r\n    Car memory defaultValueCar = Car({\r\n      owner: msg.sender, currentState: CarState.Free, leaser: address(0),timeRented: 0, amountEarned: 0,\r\n       longitude: 0, latitude: 0,nummernschild: \"\", typ: \"\", hersteller: \"\", farbe: \"\",\r\n        ps: 0, mietpreis: 0, maxMietdauer: 0, minMietdauer: 0\r\n      });\r\n\r\n    carpool[identifierCar] = defaultValueCar;\r\n  }\r\n\r\n  //--------------------------------------------------------------------------------------------------------------------\r\n\r\n  //Private Methods\r\n\r\n  function getTimeNow() private view returns (uint256){\r\n    return now;\r\n  }\r\n\r\n  function makeCarFree (address identifierCar) private {\r\n    delete carpool[identifierCar].leaser;\r\n    carpool[identifierCar].currentState = CarState.Free;\r\n  }\r\n\r\n  function getPostionInAllCars(address identifierCar) private view returns (uint256){\r\n    if(allCars.length != maxArrayLength){\r\n      for(uint256 i = 0; i < allCars.length; ++i){\r\n        if(allCars[i] == identifierCar) {\r\n          return i;\r\n        }\r\n      }\r\n    }\r\n    return maxArrayLength;\r\n  }\r\n\r\n  function deleteCarFromAllCars(uint256 index) private {\r\n    if (index >= realLengthAll) return;\r\n\r\n    if(realLengthAll == 1){\r\n      delete allCars[0];\r\n      return;\r\n    }\r\n    allCars[index] = allCars[realLengthAll - 1];\r\n    delete allCars[realLengthAll - 1];\r\n    return;\r\n  }\r\n\r\n  //--------------------------------------------------------------------------------------------------------------------\r\n\r\n  //Requires for the beginning of functions\r\n\r\n  modifier knownCar (address identifierCar) {\r\n    require(carpool[identifierCar].owner != address(0), \"Car is not in carpool\");\r\n    _;\r\n  }\r\n\r\n  modifier onlyOwner (address identifierCar, address identifierOwner) {\r\n    require(carpool[identifierCar].owner == identifierOwner, \"Not the right owner of the Car.\");\r\n    _;\r\n  }\r\n\r\n  modifier isLeased (address identifierCar) {\r\n    require(getCurrentState(identifierCar) == CarState.Leased, \"Car is not Leased\");\r\n    _;\r\n  }\r\n\r\n  modifier isLeasedBy (address identifierCar, address identifierLeaser) {\r\n    require(getLeaser(identifierCar) == identifierLeaser, \"Not the right Leaser of the Car.\");\r\n    _;\r\n  }\r\n\r\n  modifier carFree (address identifierCar) {\r\n    require(getCurrentState(identifierCar) == CarState.Free, \"Car is not free.\");\r\n    _;\r\n  }\r\n\r\n}\r\n\r\n",
  "sourcePath": "C:\\Users\\meton\\Desktop\\verteilte miete\\carchain\\Blockchain\\ethereum\\contracts\\carchain.sol",
  "compiler": {
    "name": "solc",
    "version": "0.5.16+commit.9c3226ce.Emscripten.clang"
  },
  "schemaVersion": "3.0.23",
  "updatedAt": "2020-03-24T13:55:46.950Z",
  "networkType": "ethereum",
  "devdoc": {
    "methods": {}
  },
  "userdoc": {
    "methods": {}
  }
}