{
  "contractName": "Carchain",
  "abi": [
    {
      "inputs": [],
      "payable": false,
      "stateMutability": "nonpayable",
      "type": "constructor"
    },
    {
      "constant": false,
      "inputs": [
        {
          "internalType": "uint256",
          "name": "identifierCar",
          "type": "uint256"
        },
        {
          "internalType": "address",
          "name": "identifierOwner",
          "type": "address"
        },
        {
          "internalType": "uint256",
          "name": "abc",
          "type": "uint256"
        }
      ],
      "name": "addCar",
      "outputs": [],
      "payable": false,
      "stateMutability": "nonpayable",
      "type": "function"
    },
    {
      "constant": false,
      "inputs": [
        {
          "internalType": "uint256",
          "name": "identifierCar",
          "type": "uint256"
        },
        {
          "internalType": "address",
          "name": "identifierOwner",
          "type": "address"
        }
      ],
      "name": "removeCar",
      "outputs": [],
      "payable": false,
      "stateMutability": "nonpayable",
      "type": "function"
    },
    {
      "constant": false,
      "inputs": [
        {
          "internalType": "uint256",
          "name": "identifierCar",
          "type": "uint256"
        }
      ],
      "name": "rentCar",
      "outputs": [],
      "payable": true,
      "stateMutability": "payable",
      "type": "function"
    },
    {
      "constant": true,
      "inputs": [
        {
          "internalType": "uint256",
          "name": "identifierCar",
          "type": "uint256"
        }
      ],
      "name": "mayRent",
      "outputs": [
        {
          "internalType": "bool",
          "name": "",
          "type": "bool"
        }
      ],
      "payable": false,
      "stateMutability": "view",
      "type": "function"
    },
    {
      "constant": true,
      "inputs": [
        {
          "internalType": "uint256",
          "name": "identifierCar",
          "type": "uint256"
        },
        {
          "internalType": "address",
          "name": "identifierLeaser",
          "type": "address"
        }
      ],
      "name": "isLegalLeaser",
      "outputs": [
        {
          "internalType": "bool",
          "name": "",
          "type": "bool"
        }
      ],
      "payable": false,
      "stateMutability": "view",
      "type": "function"
    },
    {
      "constant": false,
      "inputs": [
        {
          "internalType": "uint256",
          "name": "identifierCar",
          "type": "uint256"
        }
      ],
      "name": "returnCarToCarpool",
      "outputs": [],
      "payable": true,
      "stateMutability": "payable",
      "type": "function"
    },
    {
      "constant": true,
      "inputs": [
        {
          "internalType": "uint256",
          "name": "identifierCar",
          "type": "uint256"
        }
      ],
      "name": "getOwner",
      "outputs": [
        {
          "internalType": "address",
          "name": "",
          "type": "address"
        }
      ],
      "payable": false,
      "stateMutability": "view",
      "type": "function"
    },
    {
      "constant": true,
      "inputs": [
        {
          "internalType": "uint256",
          "name": "identifierCar",
          "type": "uint256"
        }
      ],
      "name": "getInUse",
      "outputs": [
        {
          "internalType": "bool",
          "name": "",
          "type": "bool"
        }
      ],
      "payable": false,
      "stateMutability": "view",
      "type": "function"
    },
    {
      "constant": true,
      "inputs": [
        {
          "internalType": "uint256",
          "name": "identifierCar",
          "type": "uint256"
        }
      ],
      "name": "getLeaser",
      "outputs": [
        {
          "internalType": "address",
          "name": "",
          "type": "address"
        }
      ],
      "payable": false,
      "stateMutability": "view",
      "type": "function"
    },
    {
      "constant": true,
      "inputs": [
        {
          "internalType": "uint256",
          "name": "identifierCar",
          "type": "uint256"
        }
      ],
      "name": "getTimeRented",
      "outputs": [
        {
          "internalType": "uint256",
          "name": "",
          "type": "uint256"
        }
      ],
      "payable": false,
      "stateMutability": "view",
      "type": "function"
    },
    {
      "constant": true,
      "inputs": [
        {
          "internalType": "uint256",
          "name": "identifierCar",
          "type": "uint256"
        }
      ],
      "name": "getxCoordinate",
      "outputs": [
        {
          "internalType": "int256",
          "name": "",
          "type": "int256"
        }
      ],
      "payable": false,
      "stateMutability": "view",
      "type": "function"
    },
    {
      "constant": true,
      "inputs": [
        {
          "internalType": "uint256",
          "name": "identifierCar",
          "type": "uint256"
        }
      ],
      "name": "getyCoordinate",
      "outputs": [
        {
          "internalType": "int256",
          "name": "",
          "type": "int256"
        }
      ],
      "payable": false,
      "stateMutability": "view",
      "type": "function"
    },
    {
      "constant": true,
      "inputs": [
        {
          "internalType": "uint256",
          "name": "identifierCar",
          "type": "uint256"
        }
      ],
      "name": "getzCoordinate",
      "outputs": [
        {
          "internalType": "int256",
          "name": "",
          "type": "int256"
        }
      ],
      "payable": false,
      "stateMutability": "view",
      "type": "function"
    },
    {
      "constant": false,
      "inputs": [
        {
          "internalType": "uint256",
          "name": "identifierCar",
          "type": "uint256"
        }
      ],
      "name": "resetCar",
      "outputs": [],
      "payable": false,
      "stateMutability": "nonpayable",
      "type": "function"
    }
  ],
  "bytecode": "0x608060405234801561001057600080fd5b50611706806100206000396000f3fe6080604052600436106100dd5760003560e01c8063aa1381ca1161007f578063e1e8aab711610059578063e1e8aab71461042f578063ecef7e871461045d578063f17a559d146104d0578063fcbf67811461051f576100dd565b8063aa1381ca14610312578063c41a360a14610365578063ca06a929146103e0576100dd565b8063523504d0116100bb578063523504d0146101c757806359dc051514610242578063a457d80a14610295578063a7809596146102c3576100dd565b80631f5c42fb146100e257806338f720be1461013d5780634de26e6f14610178575b600080fd5b3480156100ee57600080fd5b5061013b6004803603604081101561010557600080fd5b8101908080359060200190929190803573ffffffffffffffffffffffffffffffffffffffff169060200190929190505050610584565b005b34801561014957600080fd5b506101766004803603602081101561016057600080fd5b81019080803590602001909291905050506108dc565b005b34801561018457600080fd5b506101b16004803603602081101561019b57600080fd5b8101908080359060200190929190505050610a50565b6040518082815260200191505060405180910390f35b3480156101d357600080fd5b50610200600480360360208110156101ea57600080fd5b8101908080359060200190929190505050610a6f565b604051808273ffffffffffffffffffffffffffffffffffffffff1673ffffffffffffffffffffffffffffffffffffffff16815260200191505060405180910390f35b34801561024e57600080fd5b5061027b6004803603602081101561026557600080fd5b8101908080359060200190929190505050610aae565b604051808215151515815260200191505060405180910390f35b6102c1600480360360208110156102ab57600080fd5b8101908080359060200190929190505050610ada565b005b3480156102cf57600080fd5b506102fc600480360360208110156102e657600080fd5b8101908080359060200190929190505050610c61565b6040518082815260200191505060405180910390f35b34801561031e57600080fd5b5061034b6004803603602081101561033557600080fd5b8101908080359060200190929190505050610c80565b604051808215151515815260200191505060405180910390f35b34801561037157600080fd5b5061039e6004803603602081101561038857600080fd5b8101908080359060200190929190505050610dee565b604051808273ffffffffffffffffffffffffffffffffffffffff1673ffffffffffffffffffffffffffffffffffffffff16815260200191505060405180910390f35b3480156103ec57600080fd5b506104196004803603602081101561040357600080fd5b8101908080359060200190929190505050610e2d565b6040518082815260200191505060405180910390f35b61045b6004803603602081101561044557600080fd5b8101908080359060200190929190505050610e4c565b005b34801561046957600080fd5b506104b66004803603604081101561048057600080fd5b8101908080359060200190929190803573ffffffffffffffffffffffffffffffffffffffff1690602001909291905050506110be565b604051808215151515815260200191505060405180910390f35b3480156104dc57600080fd5b50610509600480360360208110156104f357600080fd5b810190808035906020019092919050505061131c565b6040518082815260200191505060405180910390f35b34801561052b57600080fd5b506105826004803603606081101561054257600080fd5b8101908080359060200190929190803573ffffffffffffffffffffffffffffffffffffffff1690602001909291908035906020019092919050505061133b565b005b6000151560008084815260200190815260200160002060000160149054906101000a900460ff16151514801561061b5750600073ffffffffffffffffffffffffffffffffffffffff1660008084815260200190815260200160002060010160009054906101000a900473ffffffffffffffffffffffffffffffffffffffff1673ffffffffffffffffffffffffffffffffffffffff16145b801561063c5750600080600084815260200190815260200160002060020154145b610691576040517f08c379a000000000000000000000000000000000000000000000000000000000815260040180806020018281038252602881526020018061164b6028913960400191505060405180910390fd5b8073ffffffffffffffffffffffffffffffffffffffff1660008084815260200190815260200160002060000160009054906101000a900473ffffffffffffffffffffffffffffffffffffffff1673ffffffffffffffffffffffffffffffffffffffff1614610767576040517f08c379a00000000000000000000000000000000000000000000000000000000081526004018080602001828103825260138152602001807f57726f6e67204f776e6572206f66204361722e0000000000000000000000000081525060200191505060405180910390fd5b61076f61156a565b604051806101000160405280600073ffffffffffffffffffffffffffffffffffffffff168152602001600015158152602001600073ffffffffffffffffffffffffffffffffffffffff16815260200160008152602001600081526020016000815260200160008152602001600081525090508060008085815260200190815260200160002060008201518160000160006101000a81548173ffffffffffffffffffffffffffffffffffffffff021916908373ffffffffffffffffffffffffffffffffffffffff16021790555060208201518160000160146101000a81548160ff02191690831515021790555060408201518160010160006101000a81548173ffffffffffffffffffffffffffffffffffffffff021916908373ffffffffffffffffffffffffffffffffffffffff160217905550606082015181600201556080820151816003015560a0820151816004015560c0820151816005015560e08201518160060155905050505050565b6108e461156a565b604051806101000160405280600073ffffffffffffffffffffffffffffffffffffffff168152602001600015158152602001600073ffffffffffffffffffffffffffffffffffffffff16815260200160008152602001600081526020016000815260200160008152602001600081525090508060008084815260200190815260200160002060008201518160000160006101000a81548173ffffffffffffffffffffffffffffffffffffffff021916908373ffffffffffffffffffffffffffffffffffffffff16021790555060208201518160000160146101000a81548160ff02191690831515021790555060408201518160010160006101000a81548173ffffffffffffffffffffffffffffffffffffffff021916908373ffffffffffffffffffffffffffffffffffffffff160217905550606082015181600201556080820151816003015560a0820151816004015560c0820151816005015560e082015181600601559050505050565b6000806000838152602001908152602001600020600501549050919050565b600080600083815260200190815260200160002060010160009054906101000a900473ffffffffffffffffffffffffffffffffffffffff169050919050565b600080600083815260200190815260200160002060000160149054906101000a900460ff169050919050565b600073ffffffffffffffffffffffffffffffffffffffff1660008083815260200190815260200160002060010160009054906101000a900473ffffffffffffffffffffffffffffffffffffffff1673ffffffffffffffffffffffffffffffffffffffff16118015610b505750610b4f81610aae565b5b610ba5576040517f08c379a00000000000000000000000000000000000000000000000000000000081526004018080602001828103825260348152602001806115de6034913960400191505060405180910390fd5b600080600083815260200190815260200160002060020181905550600080600083815260200190815260200160002060030181905550600080600083815260200190815260200160002060000160146101000a81548160ff021916908315150217905550600080600083815260200190815260200160002060010160006101000a81548173ffffffffffffffffffffffffffffffffffffffff021916908373ffffffffffffffffffffffffffffffffffffffff16021790555050565b6000806000838152602001908152602001600020600201549050919050565b60008073ffffffffffffffffffffffffffffffffffffffff1660008084815260200190815260200160002060000160009054906101000a900473ffffffffffffffffffffffffffffffffffffffff1673ffffffffffffffffffffffffffffffffffffffff161415610d59576040517f08c379a00000000000000000000000000000000000000000000000000000000081526004018080602001828103825260158152602001807f436172206973206e6f7420696e20636172706f6f6c000000000000000000000081525060200191505060405180910390fd5b600073ffffffffffffffffffffffffffffffffffffffff1660008084815260200190815260200160002060010160009054906101000a900473ffffffffffffffffffffffffffffffffffffffff1673ffffffffffffffffffffffffffffffffffffffff16148015610dd6575060001515610dd283610aae565b1515145b15610de45760019050610de9565b600090505b919050565b600080600083815260200190815260200160002060000160009054906101000a900473ffffffffffffffffffffffffffffffffffffffff169050919050565b6000806000838152602001908152602001600020600401549050919050565b600073ffffffffffffffffffffffffffffffffffffffff1660008083815260200190815260200160002060000160009054906101000a900473ffffffffffffffffffffffffffffffffffffffff1673ffffffffffffffffffffffffffffffffffffffff161415610f24576040517f08c379a00000000000000000000000000000000000000000000000000000000081526004018080602001828103825260158152602001807f436172206973206e6f7420696e20636172706f6f6c000000000000000000000081525060200191505060405180910390fd5b60001515610f3182610aae565b151514610fa6576040517f08c379a000000000000000000000000000000000000000000000000000000000815260040180806020018281038252601d8152602001807f43617220686173206e6f206f6e652077686f206c65617365642069742e00000081525060200191505060405180910390fd5b610708341061101d576040517f08c379a000000000000000000000000000000000000000000000000000000000815260040180806020018281038252601e8152602001807f596f7520646964206e6f742070617920656e6f7567682e20283138303029000081525060200191505060405180910390fd5b600160008083815260200190815260200160002060000160146101000a81548160ff0219169083151502179055503360008083815260200190815260200160002060010160006101000a81548173ffffffffffffffffffffffffffffffffffffffff021916908373ffffffffffffffffffffffffffffffffffffffff1602179055503442016000808381526020019081526020016000206002018190555050565b60008073ffffffffffffffffffffffffffffffffffffffff1660008085815260200190815260200160002060000160009054906101000a900473ffffffffffffffffffffffffffffffffffffffff1673ffffffffffffffffffffffffffffffffffffffff1611611196576040517f08c379a00000000000000000000000000000000000000000000000000000000081526004018080602001828103825260158152602001807f436172206973206e6f7420696e20636172706f6f6c000000000000000000000081525060200191505060405180910390fd5b8173ffffffffffffffffffffffffffffffffffffffff163373ffffffffffffffffffffffffffffffffffffffff161461121a576040517f08c379a000000000000000000000000000000000000000000000000000000000815260040180806020018281038252602e815260200180611673602e913960400191505060405180910390fd5b6001151561122784610aae565b15151461127f576040517f08c379a00000000000000000000000000000000000000000000000000000000081526004018080602001828103825260318152602001806116a16031913960400191505060405180910390fd5b8173ffffffffffffffffffffffffffffffffffffffff1660008085815260200190815260200160002060010160009054906101000a900473ffffffffffffffffffffffffffffffffffffffff1673ffffffffffffffffffffffffffffffffffffffff1614801561130357504260008085815260200190815260200160002060020154105b156113115760019050611316565b600090505b92915050565b6000806000838152602001908152602001600020600601549050919050565b600073ffffffffffffffffffffffffffffffffffffffff1660008085815260200190815260200160002060000160009054906101000a900473ffffffffffffffffffffffffffffffffffffffff1673ffffffffffffffffffffffffffffffffffffffff16146113f5576040517f08c379a00000000000000000000000000000000000000000000000000000000081526004018080602001828103825260398152602001806116126039913960400191505060405180910390fd5b6113fd61156a565b6040518061010001604052808473ffffffffffffffffffffffffffffffffffffffff168152602001600015158152602001600073ffffffffffffffffffffffffffffffffffffffff16815260200160008152602001600081526020016000815260200160008152602001600081525090508060008086815260200190815260200160002060008201518160000160006101000a81548173ffffffffffffffffffffffffffffffffffffffff021916908373ffffffffffffffffffffffffffffffffffffffff16021790555060208201518160000160146101000a81548160ff02191690831515021790555060408201518160010160006101000a81548173ffffffffffffffffffffffffffffffffffffffff021916908373ffffffffffffffffffffffffffffffffffffffff160217905550606082015181600201556080820151816003015560a0820151816004015560c0820151816005015560e0820151816006015590505050505050565b604051806101000160405280600073ffffffffffffffffffffffffffffffffffffffff168152602001600015158152602001600073ffffffffffffffffffffffffffffffffffffffff1681526020016000815260200160008152602001600081526020016000815260200160008152509056fe436172206973206e6f7420696e2055736520616e64207468657265666f72652063616e206e6f742062652072657475726e65642e43617220697320616c726561647920696e20436172706f6f6c20616e642061206e6577204361722063616e206e6f742062652061646465642e436172207374696c6c20696e2075736520616e642063616e206e6f742062652072656d6f7665642e53656e646572206973206e6f74207468652073616d652061732074686520506172616d65746572204c6561736572436172206973206e6f7420696e207573652e202d2d3e2054686572652063616e206e6f742062652061206c65617365722ea265627a7a723158206aac714890ce9b78ceccba97b655c4c70aa2fb3a17d4d535c22c81c449e2f92964736f6c63430005100032",
  "source": "pragma solidity >=0.4.21 <0.7.0;\n\n\ncontract Carchain {\n\n  //every Car has to have an owner!\n  struct Car{\n    address owner;\n    bool inUse;\n    address leaser;\n    uint256 timeRented;\n    uint256 amountPaid;\n    int256 xCoordinate;\n    int256 yCoordinate;\n    int256 zCoordinate;\n  }\n\n  mapping (uint256 => Car) carpool;\n\n\n  constructor() public {\n  \n  }\n\n//--------------------------------------------------------------------------------------------------------------------\n\n  /*\n  Adds a new Car to the Carpool.\n  */\n  function addCar(uint256 identifierCar, address identifierOwner, uint256 abc) public {\n    require(\n      carpool[identifierCar].owner == address(0), \"Car is already in Carpool and a new Car can not be added.\"\n      );\n\n    Car memory newCar = Car({\n      owner: identifierOwner, inUse: false, leaser: address(0), timeRented: 0, amountPaid: 0, xCoordinate: 0, yCoordinate: 0, zCoordinate: 0\n      });\n\n    carpool[identifierCar] = newCar;\n  }\n\n  /*\n  Removes a car which is not currently in Use from the total Carpool.\n  */\n  function removeCar(uint256 identifierCar, address identifierOwner) public{\n    require(\n      carpool[identifierCar].inUse == false && carpool[identifierCar].leaser == address(0) && carpool[identifierCar].timeRented == 0,\"Car still in use and can not be removed.\"\n      );\n    require(\n      carpool[identifierCar].owner == identifierOwner, \"Wrong Owner of Car.\"\n    );\n\n    Car memory defaultValueCar = Car({\n      owner: address(0), inUse: false, leaser: address(0), timeRented: 0, amountPaid: 0, xCoordinate: 0, yCoordinate: 0, zCoordinate: 0\n      });\n\n    carpool[identifierCar] = defaultValueCar;\n  }\n\n//--------------------------------------------------------------------------------------------------------------------\n\n  /*\n  Marks a car as rented and safes the point from where the car was rented.\n  */\n  function rentCar(uint256 identifierCar) public payable {\n    require(carpool[identifierCar].owner != address(0), \"Car is not in carpool\");\n    require(getInUse(identifierCar) == false, \"Car has no one who leased it.\");\n    //Mindestmietdauer?\n    require(msg.value < 1800, \"You did not pay enough. (1800)\");\n\n    carpool[identifierCar].inUse = true;\n    carpool[identifierCar].leaser = msg.sender;\n    //Problem: block.timestamp ist ungefähr 90 sekunden ungenau wegen manipulation von minern.\n    carpool[identifierCar].timeRented = block.timestamp + msg.value;\n  }\n\n  /*\n  Gives a boolean value if a car is now avaible for rent.\n  */\n  function mayRent(uint256 identifierCar) public view returns (bool) {\n    require(carpool[identifierCar].owner != address(0), \"Car is not in carpool\");\n\n    if(carpool[identifierCar].leaser == address(0) && getInUse(identifierCar) == false){\n      return true;\n    }else{\n      return false;\n    }\n  }\n\n  /*\n  Gives a boolean value if a Leaser is still Lawfully/ Legally a Leaser and has enough credit.\n  */\n  function isLegalLeaser(uint256 identifierCar, address identifierLeaser) public view returns (bool) {\n    require(carpool[identifierCar].owner > address(0), \"Car is not in carpool\");\n    require(msg.sender == identifierLeaser, \"Sender is not the same as the Parameter Leaser\");\n    require(getInUse(identifierCar) == true, \"Car is not in use. --> There can not be a leaser.\");\n\n    if(carpool[identifierCar].leaser == identifierLeaser && carpool[identifierCar].timeRented < block.timestamp){\n      return true;\n    }\n    return false;\n  }\n\n  /*\n  After a Car was rented the car is given back to the free carpool and given the state not rented.\n  */\n  function returnCarToCarpool(uint256 identifierCar) public payable {\n    require(carpool[identifierCar].leaser > address(0) && getInUse(identifierCar), \"Car is not in Use and therefore can not be returned.\");\n\n    carpool[identifierCar].timeRented = 0;\n    //payable(carpool[identifierCar].owner).transfer(carpool[identifierCar].amountPaid);\n    carpool[identifierCar].amountPaid = 0;\n    carpool[identifierCar].inUse = false;\n    carpool[identifierCar].leaser = address(0);\n  }\n\n\n\n//--------------------------------------------------------------------------------------------------------------------\n\n//getter and setter for Car\n\n  function getOwner(uint256 identifierCar) public view returns (address) {\n    return carpool[identifierCar].owner;\n  }\n\n  /*\n  Checks if a Car is already rented/ in Use.\n  */\n  function getInUse(uint256 identifierCar) public view returns (bool) {\n    return carpool[identifierCar].inUse;\n  }\n\n  function getLeaser(uint256 identifierCar) public view returns (address) {\n    return carpool[identifierCar].leaser;\n  }\n\n  function getTimeRented(uint256 identifierCar) public view returns (uint256) {\n    return carpool[identifierCar].timeRented;\n  }\n\n  function getxCoordinate(uint256 identifierCar) public view returns (int256) {\n    return carpool[identifierCar].xCoordinate;\n  }\n\n  function getyCoordinate(uint256 identifierCar) public view returns (int256) {\n    return carpool[identifierCar].yCoordinate;\n  }\n\n  function getzCoordinate(uint256 identifierCar) public view returns (int256) {\n    return carpool[identifierCar].zCoordinate;\n  }\n\n//--------------------------------------------------------------------------------------------------------------------\n\n  /*\n  Resets a car from the total Carpool.\n  Just for debugging Reasons. Should not make to the final version.\n  */\n  function resetCar(uint256 identifierCar) public{\n    Car memory defaultValueCar = Car({\n      owner: address(0), inUse: false, leaser: address(0), timeRented: 0, amountPaid: 0, xCoordinate: 0, yCoordinate: 0, zCoordinate: 0\n      });\n\n    carpool[identifierCar] = defaultValueCar;\n  }\n}",
  "sourcePath": "C:\\Users\\meton\\Desktop\\verteilte miete\\carchain\\ethereum\\contracts\\carchain.sol",
  "compiler": {
    "name": "solc",
    "version": "0.5.16+commit.9c3226ce.Emscripten.clang"
  },
  "schemaVersion": "3.0.23",
  "updatedAt": "2020-02-25T09:37:04.853Z",
  "networkType": "ethereum",
  "devdoc": {
    "methods": {}
  },
  "userdoc": {
    "methods": {}
  }
}