{
  "contractName": "carchain",
  "abi": [
    {
      "inputs": [],
      "payable": false,
      "stateMutability": "nonpayable",
      "type": "constructor"
    },
    {
      "constant": false,
      "inputs": [
        {
          "internalType": "address",
          "name": "identifierCar",
          "type": "address"
        },
        {
          "internalType": "string",
          "name": "nummernschild",
          "type": "string"
        },
        {
          "internalType": "string",
          "name": "typ",
          "type": "string"
        },
        {
          "internalType": "string",
          "name": "hersteller",
          "type": "string"
        },
        {
          "internalType": "string",
          "name": "farbe",
          "type": "string"
        },
        {
          "internalType": "uint256",
          "name": "ps",
          "type": "uint256"
        },
        {
          "internalType": "uint256",
          "name": "mietpreis",
          "type": "uint256"
        },
        {
          "internalType": "uint256",
          "name": "maxMietdauer",
          "type": "uint256"
        },
        {
          "internalType": "uint256",
          "name": "minMietdauer",
          "type": "uint256"
        }
      ],
      "name": "addCar",
      "outputs": [],
      "payable": false,
      "stateMutability": "nonpayable",
      "type": "function"
    },
    {
      "constant": false,
      "inputs": [
        {
          "internalType": "address payable",
          "name": "identifierCar",
          "type": "address"
        }
      ],
      "name": "removeCar",
      "outputs": [],
      "payable": true,
      "stateMutability": "payable",
      "type": "function"
    },
    {
      "constant": false,
      "inputs": [
        {
          "internalType": "address payable",
          "name": "identifierCar",
          "type": "address"
        }
      ],
      "name": "rentCar",
      "outputs": [],
      "payable": true,
      "stateMutability": "payable",
      "type": "function"
    },
    {
      "constant": true,
      "inputs": [
        {
          "internalType": "address",
          "name": "identifierCar",
          "type": "address"
        }
      ],
      "name": "mayRent",
      "outputs": [
        {
          "internalType": "bool",
          "name": "",
          "type": "bool"
        }
      ],
      "payable": false,
      "stateMutability": "view",
      "type": "function"
    },
    {
      "constant": true,
      "inputs": [
        {
          "internalType": "address",
          "name": "identifierCar",
          "type": "address"
        },
        {
          "internalType": "address",
          "name": "identifierLeaser",
          "type": "address"
        }
      ],
      "name": "isLegalLeaser",
      "outputs": [
        {
          "internalType": "bool",
          "name": "",
          "type": "bool"
        }
      ],
      "payable": false,
      "stateMutability": "view",
      "type": "function"
    },
    {
      "constant": false,
      "inputs": [
        {
          "internalType": "address payable",
          "name": "identifierCar",
          "type": "address"
        }
      ],
      "name": "returnCarToCarpool",
      "outputs": [],
      "payable": true,
      "stateMutability": "payable",
      "type": "function"
    },
    {
      "constant": true,
      "inputs": [],
      "name": "getAvailableVehicles",
      "outputs": [
        {
          "internalType": "address[1000]",
          "name": "",
          "type": "address[1000]"
        }
      ],
      "payable": false,
      "stateMutability": "view",
      "type": "function"
    },
    {
      "constant": true,
      "inputs": [
        {
          "internalType": "address",
          "name": "identifierCar",
          "type": "address"
        }
      ],
      "name": "getOwner",
      "outputs": [
        {
          "internalType": "address",
          "name": "",
          "type": "address"
        }
      ],
      "payable": false,
      "stateMutability": "view",
      "type": "function"
    },
    {
      "constant": true,
      "inputs": [
        {
          "internalType": "address",
          "name": "identifierCar",
          "type": "address"
        }
      ],
      "name": "getCurrentState",
      "outputs": [
        {
          "internalType": "enum carchain.CarState",
          "name": "",
          "type": "uint8"
        }
      ],
      "payable": false,
      "stateMutability": "view",
      "type": "function"
    },
    {
      "constant": true,
      "inputs": [
        {
          "internalType": "address",
          "name": "identifierCar",
          "type": "address"
        }
      ],
      "name": "getLeaser",
      "outputs": [
        {
          "internalType": "address",
          "name": "",
          "type": "address"
        }
      ],
      "payable": false,
      "stateMutability": "view",
      "type": "function"
    },
    {
      "constant": true,
      "inputs": [
        {
          "internalType": "address",
          "name": "identifierCar",
          "type": "address"
        }
      ],
      "name": "getTimeRented",
      "outputs": [
        {
          "internalType": "uint256",
          "name": "",
          "type": "uint256"
        }
      ],
      "payable": false,
      "stateMutability": "view",
      "type": "function"
    },
    {
      "constant": true,
      "inputs": [
        {
          "internalType": "address",
          "name": "identifierCar",
          "type": "address"
        }
      ],
      "name": "getLatitude",
      "outputs": [
        {
          "internalType": "int256",
          "name": "",
          "type": "int256"
        }
      ],
      "payable": false,
      "stateMutability": "view",
      "type": "function"
    },
    {
      "constant": true,
      "inputs": [
        {
          "internalType": "address",
          "name": "identifierCar",
          "type": "address"
        }
      ],
      "name": "getLongitude",
      "outputs": [
        {
          "internalType": "int256",
          "name": "",
          "type": "int256"
        }
      ],
      "payable": false,
      "stateMutability": "view",
      "type": "function"
    },
    {
      "constant": true,
      "inputs": [
        {
          "internalType": "address",
          "name": "identifierCar",
          "type": "address"
        }
      ],
      "name": "getNummernschild",
      "outputs": [
        {
          "internalType": "string",
          "name": "",
          "type": "string"
        }
      ],
      "payable": false,
      "stateMutability": "view",
      "type": "function"
    },
    {
      "constant": true,
      "inputs": [
        {
          "internalType": "address",
          "name": "identifierCar",
          "type": "address"
        }
      ],
      "name": "getTyp",
      "outputs": [
        {
          "internalType": "string",
          "name": "",
          "type": "string"
        }
      ],
      "payable": false,
      "stateMutability": "view",
      "type": "function"
    },
    {
      "constant": true,
      "inputs": [
        {
          "internalType": "address",
          "name": "identifierCar",
          "type": "address"
        }
      ],
      "name": "getHersteller",
      "outputs": [
        {
          "internalType": "string",
          "name": "",
          "type": "string"
        }
      ],
      "payable": false,
      "stateMutability": "view",
      "type": "function"
    },
    {
      "constant": true,
      "inputs": [
        {
          "internalType": "address",
          "name": "identifierCar",
          "type": "address"
        }
      ],
      "name": "getFarbe",
      "outputs": [
        {
          "internalType": "string",
          "name": "",
          "type": "string"
        }
      ],
      "payable": false,
      "stateMutability": "view",
      "type": "function"
    },
    {
      "constant": true,
      "inputs": [
        {
          "internalType": "address",
          "name": "identifierCar",
          "type": "address"
        }
      ],
      "name": "getPs",
      "outputs": [
        {
          "internalType": "uint256",
          "name": "",
          "type": "uint256"
        }
      ],
      "payable": false,
      "stateMutability": "view",
      "type": "function"
    },
    {
      "constant": true,
      "inputs": [
        {
          "internalType": "address",
          "name": "identifierCar",
          "type": "address"
        }
      ],
      "name": "getMietpreis",
      "outputs": [
        {
          "internalType": "uint256",
          "name": "",
          "type": "uint256"
        }
      ],
      "payable": false,
      "stateMutability": "view",
      "type": "function"
    },
    {
      "constant": true,
      "inputs": [
        {
          "internalType": "address",
          "name": "identifierCar",
          "type": "address"
        }
      ],
      "name": "getMaxMietdauer",
      "outputs": [
        {
          "internalType": "uint256",
          "name": "",
          "type": "uint256"
        }
      ],
      "payable": false,
      "stateMutability": "view",
      "type": "function"
    },
    {
      "constant": true,
      "inputs": [
        {
          "internalType": "address",
          "name": "identifierCar",
          "type": "address"
        }
      ],
      "name": "getMinMietdauer",
      "outputs": [
        {
          "internalType": "uint256",
          "name": "",
          "type": "uint256"
        }
      ],
      "payable": false,
      "stateMutability": "view",
      "type": "function"
    },
    {
      "constant": false,
      "inputs": [
        {
          "internalType": "address",
          "name": "identifierCar",
          "type": "address"
        }
      ],
      "name": "resetCar",
      "outputs": [],
      "payable": false,
      "stateMutability": "nonpayable",
      "type": "function"
    }
  ],
  "bytecode": "0x608060405260006103e95534801561001657600080fd5b50613e96806100266000396000f3fe6080604052600436106101355760003560e01c80638718323e116100ab578063c70676451161006f578063c7067645146108b4578063cb8ad451146108f8578063da051f491461095d578063e2cc37f114610a27578063f8d14ebe14610a8c578063fa54416114610d6257610135565b80638718323e1461069a5780639bc3124e1461070d5780639f08a3e514610761578063a4e88cf3146107c6578063ad4162ae1461082b57610135565b8063539f5650116100fd578063539f5650146103bb5780635e3c7e8d146104855780636204d12f146104d65780636aa7a8541461053f57806371e4ec9c146105a457806384f9f1981461063557610135565b80631270e5721461013a57806317eabd881461017e5780632361a67d146102485780633c00d62c1461028c5780634400c84714610356575b600080fd5b61017c6004803603602081101561015057600080fd5b81019080803573ffffffffffffffffffffffffffffffffffffffff169060200190929190505050610df3565b005b34801561018a57600080fd5b506101cd600480360360208110156101a157600080fd5b81019080803573ffffffffffffffffffffffffffffffffffffffff1690602001909291905050506111bb565b6040518080602001828103825283818151815260200191508051906020019080838360005b8381101561020d5780820151818401526020810190506101f2565b50505050905090810190601f16801561023a5780820380516001836020036101000a031916815260200191505b509250505060405180910390f35b61028a6004803603602081101561025e57600080fd5b81019080803573ffffffffffffffffffffffffffffffffffffffff1690602001909291905050506113a4565b005b34801561029857600080fd5b506102db600480360360208110156102af57600080fd5b81019080803573ffffffffffffffffffffffffffffffffffffffff1690602001909291905050506116fe565b6040518080602001828103825283818151815260200191508051906020019080838360005b8381101561031b578082015181840152602081019050610300565b50505050905090810190601f1680156103485780820380516001836020036101000a031916815260200191505b509250505060405180910390f35b34801561036257600080fd5b506103a56004803603602081101561037957600080fd5b81019080803573ffffffffffffffffffffffffffffffffffffffff1690602001909291905050506118e7565b6040518082815260200191505060405180910390f35b3480156103c757600080fd5b5061040a600480360360208110156103de57600080fd5b81019080803573ffffffffffffffffffffffffffffffffffffffff169060200190929190505050611a38565b6040518080602001828103825283818151815260200191508051906020019080838360005b8381101561044a57808201518184015260208101905061042f565b50505050905090810190601f1680156104775780820380516001836020036101000a031916815260200191505b509250505060405180910390f35b34801561049157600080fd5b506104d4600480360360208110156104a857600080fd5b81019080803573ffffffffffffffffffffffffffffffffffffffff169060200190929190505050611c21565b005b3480156104e257600080fd5b50610525600480360360208110156104f957600080fd5b81019080803573ffffffffffffffffffffffffffffffffffffffff169060200190929190505050611ed4565b604051808215151515815260200191505060405180910390f35b34801561054b57600080fd5b5061058e6004803603602081101561056257600080fd5b81019080803573ffffffffffffffffffffffffffffffffffffffff1690602001909291905050506120af565b6040518082815260200191505060405180910390f35b3480156105b057600080fd5b506105f3600480360360208110156105c757600080fd5b81019080803573ffffffffffffffffffffffffffffffffffffffff169060200190929190505050612200565b604051808273ffffffffffffffffffffffffffffffffffffffff1673ffffffffffffffffffffffffffffffffffffffff16815260200191505060405180910390f35b34801561064157600080fd5b506106846004803603602081101561065857600080fd5b81019080803573ffffffffffffffffffffffffffffffffffffffff169060200190929190505050612371565b6040518082815260200191505060405180910390f35b3480156106a657600080fd5b506106e9600480360360208110156106bd57600080fd5b81019080803573ffffffffffffffffffffffffffffffffffffffff1690602001909291905050506124c2565b604051808260028111156106f957fe5b60ff16815260200191505060405180910390f35b34801561071957600080fd5b50610722612620565b60405180826103e860200280838360005b8381101561074e578082015181840152602081019050610733565b5050505090500191505060405180910390f35b34801561076d57600080fd5b506107b06004803603602081101561078457600080fd5b81019080803573ffffffffffffffffffffffffffffffffffffffff169060200190929190505050612815565b6040518082815260200191505060405180910390f35b3480156107d257600080fd5b50610815600480360360208110156107e957600080fd5b81019080803573ffffffffffffffffffffffffffffffffffffffff169060200190929190505050612966565b6040518082815260200191505060405180910390f35b34801561083757600080fd5b5061089a6004803603604081101561084e57600080fd5b81019080803573ffffffffffffffffffffffffffffffffffffffff169060200190929190803573ffffffffffffffffffffffffffffffffffffffff169060200190929190505050612ab7565b604051808215151515815260200191505060405180910390f35b6108f6600480360360208110156108ca57600080fd5b81019080803573ffffffffffffffffffffffffffffffffffffffff169060200190929190505050612d66565b005b34801561090457600080fd5b506109476004803603602081101561091b57600080fd5b81019080803573ffffffffffffffffffffffffffffffffffffffff169060200190929190505050613252565b6040518082815260200191505060405180910390f35b34801561096957600080fd5b506109ac6004803603602081101561098057600080fd5b81019080803573ffffffffffffffffffffffffffffffffffffffff1690602001909291905050506133a3565b6040518080602001828103825283818151815260200191508051906020019080838360005b838110156109ec5780820151818401526020810190506109d1565b50505050905090810190601f168015610a195780820380516001836020036101000a031916815260200191505b509250505060405180910390f35b348015610a3357600080fd5b50610a7660048036036020811015610a4a57600080fd5b81019080803573ffffffffffffffffffffffffffffffffffffffff16906020019092919050505061358c565b6040518082815260200191505060405180910390f35b348015610a9857600080fd5b50610d606004803603610120811015610ab057600080fd5b81019080803573ffffffffffffffffffffffffffffffffffffffff16906020019092919080359060200190640100000000811115610aed57600080fd5b820183602082011115610aff57600080fd5b80359060200191846001830284011164010000000083111715610b2157600080fd5b91908080601f016020809104026020016040519081016040528093929190818152602001838380828437600081840152601f19601f82011690508083019250505050505050919291929080359060200190640100000000811115610b8457600080fd5b820183602082011115610b9657600080fd5b80359060200191846001830284011164010000000083111715610bb857600080fd5b91908080601f016020809104026020016040519081016040528093929190818152602001838380828437600081840152601f19601f82011690508083019250505050505050919291929080359060200190640100000000811115610c1b57600080fd5b820183602082011115610c2d57600080fd5b80359060200191846001830284011164010000000083111715610c4f57600080fd5b91908080601f016020809104026020016040519081016040528093929190818152602001838380828437600081840152601f19601f82011690508083019250505050505050919291929080359060200190640100000000811115610cb257600080fd5b820183602082011115610cc457600080fd5b80359060200191846001830284011164010000000083111715610ce657600080fd5b91908080601f016020809104026020016040519081016040528093929190818152602001838380828437600081840152601f19601f820116905080830192505050505050509192919290803590602001909291908035906020019092919080359060200190929190803590602001909291905050506136dd565b005b348015610d6e57600080fd5b50610db160048036036020811015610d8557600080fd5b81019080803573ffffffffffffffffffffffffffffffffffffffff169060200190929190505050613abf565b604051808273ffffffffffffffffffffffffffffffffffffffff1673ffffffffffffffffffffffffffffffffffffffff16815260200191505060405180910390f35b80600073ffffffffffffffffffffffffffffffffffffffff166000808373ffffffffffffffffffffffffffffffffffffffff1673ffffffffffffffffffffffffffffffffffffffff16815260200190815260200160002060000160009054906101000a900473ffffffffffffffffffffffffffffffffffffffff1673ffffffffffffffffffffffffffffffffffffffff161415610ef8576040517f08c379a00000000000000000000000000000000000000000000000000000000081526004018080602001828103825260158152602001807f436172206973206e6f7420696e20636172706f6f6c000000000000000000000081525060200191505060405180910390fd5b81338073ffffffffffffffffffffffffffffffffffffffff166000808473ffffffffffffffffffffffffffffffffffffffff1673ffffffffffffffffffffffffffffffffffffffff16815260200190815260200160002060000160009054906101000a900473ffffffffffffffffffffffffffffffffffffffff1673ffffffffffffffffffffffffffffffffffffffff1614610ffc576040517f08c379a000000000000000000000000000000000000000000000000000000000815260040180806020018281038252601f8152602001807f4e6f7420746865207269676874206f776e6572206f6620746865204361722e0081525060200191505060405180910390fd5b836000600281111561100a57fe5b611013826124c2565b600281111561101e57fe5b14611091576040517f08c379a00000000000000000000000000000000000000000000000000000000081526004018080602001828103825260108152602001807f436172206973206e6f7420667265652e0000000000000000000000000000000081525060200191505060405180910390fd5b6000808673ffffffffffffffffffffffffffffffffffffffff1673ffffffffffffffffffffffffffffffffffffffff168152602001908152602001600020600080820160006101000a81549073ffffffffffffffffffffffffffffffffffffffff02191690556000820160146101000a81549060ff02191690556001820160006101000a81549073ffffffffffffffffffffffffffffffffffffffff021916905560028201600090556003820160009055600482016000905560058201600090556006820160006111629190613c38565b6007820160006111729190613c38565b6008820160006111829190613c38565b6009820160006111929190613c38565b600a820160009055600b820160009055600c820160009055600d82016000905550505050505050565b606081600073ffffffffffffffffffffffffffffffffffffffff166000808373ffffffffffffffffffffffffffffffffffffffff1673ffffffffffffffffffffffffffffffffffffffff16815260200190815260200160002060000160009054906101000a900473ffffffffffffffffffffffffffffffffffffffff1673ffffffffffffffffffffffffffffffffffffffff1614156112c2576040517f08c379a00000000000000000000000000000000000000000000000000000000081526004018080602001828103825260158152602001807f436172206973206e6f7420696e20636172706f6f6c000000000000000000000081525060200191505060405180910390fd5b6000808473ffffffffffffffffffffffffffffffffffffffff1673ffffffffffffffffffffffffffffffffffffffff1681526020019081526020016000206006018054600181600116156101000203166002900480601f0160208091040260200160405190810160405280929190818152602001828054600181600116156101000203166002900480156113975780601f1061136c57610100808354040283529160200191611397565b820191906000526020600020905b81548152906001019060200180831161137a57829003601f168201915b5050505050915050919050565b80600073ffffffffffffffffffffffffffffffffffffffff166000808373ffffffffffffffffffffffffffffffffffffffff1673ffffffffffffffffffffffffffffffffffffffff16815260200190815260200160002060000160009054906101000a900473ffffffffffffffffffffffffffffffffffffffff1673ffffffffffffffffffffffffffffffffffffffff1614156114a9576040517f08c379a00000000000000000000000000000000000000000000000000000000081526004018080602001828103825260158152602001807f436172206973206e6f7420696e20636172706f6f6c000000000000000000000081525060200191505060405180910390fd5b81600160028111156114b757fe5b6114c0826124c2565b60028111156114cb57fe5b1461153e576040517f08c379a00000000000000000000000000000000000000000000000000000000081526004018080602001828103825260118152602001807f436172206973206e6f74204c656173656400000000000000000000000000000081525060200191505060405180910390fd5b82338073ffffffffffffffffffffffffffffffffffffffff1661156083612200565b73ffffffffffffffffffffffffffffffffffffffff16146115e9576040517f08c379a00000000000000000000000000000000000000000000000000000000081526004018080602001828103825260208152602001807f4e6f7420746865207269676874204c6561736572206f6620746865204361722e81525060200191505060405180910390fd5b60008060008773ffffffffffffffffffffffffffffffffffffffff1673ffffffffffffffffffffffffffffffffffffffff1681526020019081526020016000206002018190555060016000808773ffffffffffffffffffffffffffffffffffffffff1673ffffffffffffffffffffffffffffffffffffffff16815260200190815260200160002060000160146101000a81548160ff0219169083600281111561168e57fe5b02179055506000808673ffffffffffffffffffffffffffffffffffffffff1673ffffffffffffffffffffffffffffffffffffffff16815260200190815260200160002060010160006101000a81549073ffffffffffffffffffffffffffffffffffffffff02191690555050505050565b606081600073ffffffffffffffffffffffffffffffffffffffff166000808373ffffffffffffffffffffffffffffffffffffffff1673ffffffffffffffffffffffffffffffffffffffff16815260200190815260200160002060000160009054906101000a900473ffffffffffffffffffffffffffffffffffffffff1673ffffffffffffffffffffffffffffffffffffffff161415611805576040517f08c379a00000000000000000000000000000000000000000000000000000000081526004018080602001828103825260158152602001807f436172206973206e6f7420696e20636172706f6f6c000000000000000000000081525060200191505060405180910390fd5b6000808473ffffffffffffffffffffffffffffffffffffffff1673ffffffffffffffffffffffffffffffffffffffff1681526020019081526020016000206009018054600181600116156101000203166002900480601f0160208091040260200160405190810160405280929190818152602001828054600181600116156101000203166002900480156118da5780601f106118af576101008083540402835291602001916118da565b820191906000526020600020905b8154815290600101906020018083116118bd57829003601f168201915b5050505050915050919050565b600081600073ffffffffffffffffffffffffffffffffffffffff166000808373ffffffffffffffffffffffffffffffffffffffff1673ffffffffffffffffffffffffffffffffffffffff16815260200190815260200160002060000160009054906101000a900473ffffffffffffffffffffffffffffffffffffffff1673ffffffffffffffffffffffffffffffffffffffff1614156119ee576040517f08c379a00000000000000000000000000000000000000000000000000000000081526004018080602001828103825260158152602001807f436172206973206e6f7420696e20636172706f6f6c000000000000000000000081525060200191505060405180910390fd5b6000808473ffffffffffffffffffffffffffffffffffffffff1673ffffffffffffffffffffffffffffffffffffffff168152602001908152602001600020600d0154915050919050565b606081600073ffffffffffffffffffffffffffffffffffffffff166000808373ffffffffffffffffffffffffffffffffffffffff1673ffffffffffffffffffffffffffffffffffffffff16815260200190815260200160002060000160009054906101000a900473ffffffffffffffffffffffffffffffffffffffff1673ffffffffffffffffffffffffffffffffffffffff161415611b3f576040517f08c379a00000000000000000000000000000000000000000000000000000000081526004018080602001828103825260158152602001807f436172206973206e6f7420696e20636172706f6f6c000000000000000000000081525060200191505060405180910390fd5b6000808473ffffffffffffffffffffffffffffffffffffffff1673ffffffffffffffffffffffffffffffffffffffff1681526020019081526020016000206007018054600181600116156101000203166002900480601f016020809104026020016040519081016040528092919081815260200182805460018160011615610100020316600290048015611c145780601f10611be957610100808354040283529160200191611c14565b820191906000526020600020905b815481529060010190602001808311611bf757829003601f168201915b5050505050915050919050565b611c29613c80565b604051806101e001604052803373ffffffffffffffffffffffffffffffffffffffff16815260200160006002811115611c5e57fe5b8152602001600073ffffffffffffffffffffffffffffffffffffffff1681526020016000815260200160008152602001600081526020016000815260200160405180602001604052806000815250815260200160405180602001604052806000815250815260200160405180602001604052806000815250815260200160405180602001604052806000815250815260200160008152602001600081526020016000815260200160008152509050806000808473ffffffffffffffffffffffffffffffffffffffff1673ffffffffffffffffffffffffffffffffffffffff16815260200190815260200160002060008201518160000160006101000a81548173ffffffffffffffffffffffffffffffffffffffff021916908373ffffffffffffffffffffffffffffffffffffffff16021790555060208201518160000160146101000a81548160ff02191690836002811115611db657fe5b021790555060408201518160010160006101000a81548173ffffffffffffffffffffffffffffffffffffffff021916908373ffffffffffffffffffffffffffffffffffffffff160217905550606082015181600201556080820151816003015560a0820151816004015560c0820151816005015560e0820151816006019080519060200190611e46929190613d2d565b50610100820151816007019080519060200190611e64929190613d2d565b50610120820151816008019080519060200190611e82929190613d2d565b50610140820151816009019080519060200190611ea0929190613d2d565b5061016082015181600a015561018082015181600b01556101a082015181600c01556101c082015181600d01559050505050565b600081600073ffffffffffffffffffffffffffffffffffffffff166000808373ffffffffffffffffffffffffffffffffffffffff1673ffffffffffffffffffffffffffffffffffffffff16815260200190815260200160002060000160009054906101000a900473ffffffffffffffffffffffffffffffffffffffff1673ffffffffffffffffffffffffffffffffffffffff161415611fdb576040517f08c379a00000000000000000000000000000000000000000000000000000000081526004018080602001828103825260158152602001807f436172206973206e6f7420696e20636172706f6f6c000000000000000000000081525060200191505060405180910390fd5b600073ffffffffffffffffffffffffffffffffffffffff166000808573ffffffffffffffffffffffffffffffffffffffff1673ffffffffffffffffffffffffffffffffffffffff16815260200190815260200160002060010160009054906101000a900473ffffffffffffffffffffffffffffffffffffffff1673ffffffffffffffffffffffffffffffffffffffff1614801561209657506000600281111561208057fe5b612089846124c2565b600281111561209457fe5b145b156120a457600191506120a9565b600091505b50919050565b600081600073ffffffffffffffffffffffffffffffffffffffff166000808373ffffffffffffffffffffffffffffffffffffffff1673ffffffffffffffffffffffffffffffffffffffff16815260200190815260200160002060000160009054906101000a900473ffffffffffffffffffffffffffffffffffffffff1673ffffffffffffffffffffffffffffffffffffffff1614156121b6576040517f08c379a00000000000000000000000000000000000000000000000000000000081526004018080602001828103825260158152602001807f436172206973206e6f7420696e20636172706f6f6c000000000000000000000081525060200191505060405180910390fd5b6000808473ffffffffffffffffffffffffffffffffffffffff1673ffffffffffffffffffffffffffffffffffffffff168152602001908152602001600020600a0154915050919050565b600081600073ffffffffffffffffffffffffffffffffffffffff166000808373ffffffffffffffffffffffffffffffffffffffff1673ffffffffffffffffffffffffffffffffffffffff16815260200190815260200160002060000160009054906101000a900473ffffffffffffffffffffffffffffffffffffffff1673ffffffffffffffffffffffffffffffffffffffff161415612307576040517f08c379a00000000000000000000000000000000000000000000000000000000081526004018080602001828103825260158152602001807f436172206973206e6f7420696e20636172706f6f6c000000000000000000000081525060200191505060405180910390fd5b6000808473ffffffffffffffffffffffffffffffffffffffff1673ffffffffffffffffffffffffffffffffffffffff16815260200190815260200160002060010160009054906101000a900473ffffffffffffffffffffffffffffffffffffffff16915050919050565b600081600073ffffffffffffffffffffffffffffffffffffffff166000808373ffffffffffffffffffffffffffffffffffffffff1673ffffffffffffffffffffffffffffffffffffffff16815260200190815260200160002060000160009054906101000a900473ffffffffffffffffffffffffffffffffffffffff1673ffffffffffffffffffffffffffffffffffffffff161415612478576040517f08c379a00000000000000000000000000000000000000000000000000000000081526004018080602001828103825260158152602001807f436172206973206e6f7420696e20636172706f6f6c000000000000000000000081525060200191505060405180910390fd5b6000808473ffffffffffffffffffffffffffffffffffffffff1673ffffffffffffffffffffffffffffffffffffffff168152602001908152602001600020600c0154915050919050565b600081600073ffffffffffffffffffffffffffffffffffffffff166000808373ffffffffffffffffffffffffffffffffffffffff1673ffffffffffffffffffffffffffffffffffffffff16815260200190815260200160002060000160009054906101000a900473ffffffffffffffffffffffffffffffffffffffff1673ffffffffffffffffffffffffffffffffffffffff1614156125c9576040517f08c379a00000000000000000000000000000000000000000000000000000000081526004018080602001828103825260158152602001807f436172206973206e6f7420696e20636172706f6f6c000000000000000000000081525060200191505060405180910390fd5b6000808473ffffffffffffffffffffffffffffffffffffffff1673ffffffffffffffffffffffffffffffffffffffff16815260200190815260200160002060000160149054906101000a900460ff16915050919050565b612628613dad565b612630613dad565b600080905060008090507fffffffffffffffffffffffffffffffffffffffffffffffffffffffffffffffff6103e81461280c575b6103e88210801561267657506103e881105b1561280b57600073ffffffffffffffffffffffffffffffffffffffff166000806001856103e881106126a457fe5b0160009054906101000a900473ffffffffffffffffffffffffffffffffffffffff1673ffffffffffffffffffffffffffffffffffffffff1673ffffffffffffffffffffffffffffffffffffffff16815260200190815260200160002060000160009054906101000a900473ffffffffffffffffffffffffffffffffffffffff1673ffffffffffffffffffffffffffffffffffffffff161415801561277c575061277b6001836103e8811061275457fe5b0160009054906101000a900473ffffffffffffffffffffffffffffffffffffffff16611ed4565b5b156127fe576001826103e8811061278f57fe5b0160009054906101000a900473ffffffffffffffffffffffffffffffffffffffff1683826103e881106127be57fe5b602002019073ffffffffffffffffffffffffffffffffffffffff16908173ffffffffffffffffffffffffffffffffffffffff168152505080806001019150505b8180600101925050612664565b5b82935050505090565b600081600073ffffffffffffffffffffffffffffffffffffffff166000808373ffffffffffffffffffffffffffffffffffffffff1673ffffffffffffffffffffffffffffffffffffffff16815260200190815260200160002060000160009054906101000a900473ffffffffffffffffffffffffffffffffffffffff1673ffffffffffffffffffffffffffffffffffffffff16141561291c576040517f08c379a00000000000000000000000000000000000000000000000000000000081526004018080602001828103825260158152602001807f436172206973206e6f7420696e20636172706f6f6c000000000000000000000081525060200191505060405180910390fd5b6000808473ffffffffffffffffffffffffffffffffffffffff1673ffffffffffffffffffffffffffffffffffffffff16815260200190815260200160002060050154915050919050565b600081600073ffffffffffffffffffffffffffffffffffffffff166000808373ffffffffffffffffffffffffffffffffffffffff1673ffffffffffffffffffffffffffffffffffffffff16815260200190815260200160002060000160009054906101000a900473ffffffffffffffffffffffffffffffffffffffff1673ffffffffffffffffffffffffffffffffffffffff161415612a6d576040517f08c379a00000000000000000000000000000000000000000000000000000000081526004018080602001828103825260158152602001807f436172206973206e6f7420696e20636172706f6f6c000000000000000000000081525060200191505060405180910390fd5b6000808473ffffffffffffffffffffffffffffffffffffffff1673ffffffffffffffffffffffffffffffffffffffff16815260200190815260200160002060020154915050919050565b600082600073ffffffffffffffffffffffffffffffffffffffff166000808373ffffffffffffffffffffffffffffffffffffffff1673ffffffffffffffffffffffffffffffffffffffff16815260200190815260200160002060000160009054906101000a900473ffffffffffffffffffffffffffffffffffffffff1673ffffffffffffffffffffffffffffffffffffffff161415612bbe576040517f08c379a00000000000000000000000000000000000000000000000000000000081526004018080602001828103825260158152602001807f436172206973206e6f7420696e20636172706f6f6c000000000000000000000081525060200191505060405180910390fd5b8360016002811115612bcc57fe5b612bd5826124c2565b6002811115612be057fe5b14612c53576040517f08c379a00000000000000000000000000000000000000000000000000000000081526004018080602001828103825260118152602001807f436172206973206e6f74204c656173656400000000000000000000000000000081525060200191505060405180910390fd5b84848073ffffffffffffffffffffffffffffffffffffffff16612c7583612200565b73ffffffffffffffffffffffffffffffffffffffff1614612cfe576040517f08c379a00000000000000000000000000000000000000000000000000000000081526004018080602001828103825260208152602001807f4e6f7420746865207269676874204c6561736572206f6620746865204361722e81525060200191505060405180910390fd5b612d06613c30565b6000808973ffffffffffffffffffffffffffffffffffffffff1673ffffffffffffffffffffffffffffffffffffffff168152602001908152602001600020600201541015612d575760019450612d5c565b600094505b5050505092915050565b80600073ffffffffffffffffffffffffffffffffffffffff166000808373ffffffffffffffffffffffffffffffffffffffff1673ffffffffffffffffffffffffffffffffffffffff16815260200190815260200160002060000160009054906101000a900473ffffffffffffffffffffffffffffffffffffffff1673ffffffffffffffffffffffffffffffffffffffff161415612e6b576040517f08c379a00000000000000000000000000000000000000000000000000000000081526004018080602001828103825260158152602001807f436172206973206e6f7420696e20636172706f6f6c000000000000000000000081525060200191505060405180910390fd5b8160006002811115612e7957fe5b612e82826124c2565b6002811115612e8d57fe5b14612f00576040517f08c379a00000000000000000000000000000000000000000000000000000000081526004018080602001828103825260108152602001807f436172206973206e6f7420667265652e0000000000000000000000000000000081525060200191505060405180910390fd5b6108fc341015612f5b576040517f08c379a0000000000000000000000000000000000000000000000000000000008152600401808060200182810382526027815260200180613df76027913960400191505060405180910390fd5b6108fc6000808573ffffffffffffffffffffffffffffffffffffffff1673ffffffffffffffffffffffffffffffffffffffff168152602001908152602001600020600d01546000808673ffffffffffffffffffffffffffffffffffffffff1673ffffffffffffffffffffffffffffffffffffffff168152602001908152602001600020600b0154020134101561303c576040517f08c379a0000000000000000000000000000000000000000000000000000000008152600401808060200182810382526044815260200180613e1e6044913960600191505060405180910390fd5b346000808573ffffffffffffffffffffffffffffffffffffffff1673ffffffffffffffffffffffffffffffffffffffff1681526020019081526020016000206003018190555060008390508073ffffffffffffffffffffffffffffffffffffffff166108fc8034039081150290604051600060405180830381858888f193505050501580156130cf573d6000803e3d6000fd5b5060016000808673ffffffffffffffffffffffffffffffffffffffff1673ffffffffffffffffffffffffffffffffffffffff16815260200190815260200160002060000160146101000a81548160ff0219169083600281111561312e57fe5b0217905550336000808673ffffffffffffffffffffffffffffffffffffffff1673ffffffffffffffffffffffffffffffffffffffff16815260200190815260200160002060010160006101000a81548173ffffffffffffffffffffffffffffffffffffffff021916908373ffffffffffffffffffffffffffffffffffffffff1602179055506000808573ffffffffffffffffffffffffffffffffffffffff1673ffffffffffffffffffffffffffffffffffffffff168152602001908152602001600020600b015434816131fd57fe5b04613206613c30565b016000808673ffffffffffffffffffffffffffffffffffffffff1673ffffffffffffffffffffffffffffffffffffffff1681526020019081526020016000206002018190555050505050565b600081600073ffffffffffffffffffffffffffffffffffffffff166000808373ffffffffffffffffffffffffffffffffffffffff1673ffffffffffffffffffffffffffffffffffffffff16815260200190815260200160002060000160009054906101000a900473ffffffffffffffffffffffffffffffffffffffff1673ffffffffffffffffffffffffffffffffffffffff161415613359576040517f08c379a00000000000000000000000000000000000000000000000000000000081526004018080602001828103825260158152602001807f436172206973206e6f7420696e20636172706f6f6c000000000000000000000081525060200191505060405180910390fd5b6000808473ffffffffffffffffffffffffffffffffffffffff1673ffffffffffffffffffffffffffffffffffffffff168152602001908152602001600020600b0154915050919050565b606081600073ffffffffffffffffffffffffffffffffffffffff166000808373ffffffffffffffffffffffffffffffffffffffff1673ffffffffffffffffffffffffffffffffffffffff16815260200190815260200160002060000160009054906101000a900473ffffffffffffffffffffffffffffffffffffffff1673ffffffffffffffffffffffffffffffffffffffff1614156134aa576040517f08c379a00000000000000000000000000000000000000000000000000000000081526004018080602001828103825260158152602001807f436172206973206e6f7420696e20636172706f6f6c000000000000000000000081525060200191505060405180910390fd5b6000808473ffffffffffffffffffffffffffffffffffffffff1673ffffffffffffffffffffffffffffffffffffffff1681526020019081526020016000206008018054600181600116156101000203166002900480601f01602080910402602001604051908101604052809291908181526020018280546001816001161561010002031660029004801561357f5780601f106135545761010080835404028352916020019161357f565b820191906000526020600020905b81548152906001019060200180831161356257829003601f168201915b5050505050915050919050565b600081600073ffffffffffffffffffffffffffffffffffffffff166000808373ffffffffffffffffffffffffffffffffffffffff1673ffffffffffffffffffffffffffffffffffffffff16815260200190815260200160002060000160009054906101000a900473ffffffffffffffffffffffffffffffffffffffff1673ffffffffffffffffffffffffffffffffffffffff161415613693576040517f08c379a00000000000000000000000000000000000000000000000000000000081526004018080602001828103825260158152602001807f436172206973206e6f7420696e20636172706f6f6c000000000000000000000081525060200191505060405180910390fd5b6000808473ffffffffffffffffffffffffffffffffffffffff1673ffffffffffffffffffffffffffffffffffffffff16815260200190815260200160002060040154915050919050565b600073ffffffffffffffffffffffffffffffffffffffff166000808b73ffffffffffffffffffffffffffffffffffffffff1673ffffffffffffffffffffffffffffffffffffffff16815260200190815260200160002060000160009054906101000a900473ffffffffffffffffffffffffffffffffffffffff1673ffffffffffffffffffffffffffffffffffffffff16146137e0576040517f08c379a00000000000000000000000000000000000000000000000000000000081526004018080602001828103825260108152602001807f494420616c726561647920757365642e0000000000000000000000000000000081525060200191505060405180910390fd5b6137e8613c80565b604051806101e001604052803373ffffffffffffffffffffffffffffffffffffffff1681526020016000600281111561381d57fe5b8152602001600073ffffffffffffffffffffffffffffffffffffffff168152602001600081526020016000815260200160008152602001600081526020018a81526020018981526020018881526020018781526020018681526020018581526020018481526020018381525090508960016103e9546103e8811061389d57fe5b0160006101000a81548173ffffffffffffffffffffffffffffffffffffffff021916908373ffffffffffffffffffffffffffffffffffffffff1602179055506103e960008154809291906001019190505550806000808c73ffffffffffffffffffffffffffffffffffffffff1673ffffffffffffffffffffffffffffffffffffffff16815260200190815260200160002060008201518160000160006101000a81548173ffffffffffffffffffffffffffffffffffffffff021916908373ffffffffffffffffffffffffffffffffffffffff16021790555060208201518160000160146101000a81548160ff0219169083600281111561399957fe5b021790555060408201518160010160006101000a81548173ffffffffffffffffffffffffffffffffffffffff021916908373ffffffffffffffffffffffffffffffffffffffff160217905550606082015181600201556080820151816003015560a0820151816004015560c0820151816005015560e0820151816006019080519060200190613a29929190613d2d565b50610100820151816007019080519060200190613a47929190613d2d565b50610120820151816008019080519060200190613a65929190613d2d565b50610140820151816009019080519060200190613a83929190613d2d565b5061016082015181600a015561018082015181600b01556101a082015181600c01556101c082015181600d015590505050505050505050505050565b600081600073ffffffffffffffffffffffffffffffffffffffff166000808373ffffffffffffffffffffffffffffffffffffffff1673ffffffffffffffffffffffffffffffffffffffff16815260200190815260200160002060000160009054906101000a900473ffffffffffffffffffffffffffffffffffffffff1673ffffffffffffffffffffffffffffffffffffffff161415613bc6576040517f08c379a00000000000000000000000000000000000000000000000000000000081526004018080602001828103825260158152602001807f436172206973206e6f7420696e20636172706f6f6c000000000000000000000081525060200191505060405180910390fd5b6000808473ffffffffffffffffffffffffffffffffffffffff1673ffffffffffffffffffffffffffffffffffffffff16815260200190815260200160002060000160009054906101000a900473ffffffffffffffffffffffffffffffffffffffff16915050919050565b600042905090565b50805460018160011615610100020316600290046000825580601f10613c5e5750613c7d565b601f016020900490600052602060002090810190613c7c9190613dd1565b5b50565b604051806101e00160405280600073ffffffffffffffffffffffffffffffffffffffff16815260200160006002811115613cb657fe5b8152602001600073ffffffffffffffffffffffffffffffffffffffff1681526020016000815260200160008152602001600081526020016000815260200160608152602001606081526020016060815260200160608152602001600081526020016000815260200160008152602001600081525090565b828054600181600116156101000203166002900490600052602060002090601f016020900481019282601f10613d6e57805160ff1916838001178555613d9c565b82800160010185558215613d9c579182015b82811115613d9b578251825591602001919060010190613d80565b5b509050613da99190613dd1565b5090565b60405180617d0001604052806103e890602082028038833980820191505090505090565b613df391905b80821115613def576000816000905550600101613dd7565b5090565b9056fe596f7520646964206e6f742070617920656e6f7567682e20284d696e696d756d3a203233303029596f7520646964206e6f7420706179206d6f7265207468616e206d696e204475726174696f6e206f662052656e74202a2072656e74616c207072696365202b2032333030a265627a7a723158209fac444e00e19e422ab10dbe17892507e689578f6a84d9fefc5d641eafde544a64736f6c63430005100032",
  "source": "pragma solidity >=0.4.21 <0.7.0;\r\n\r\n\r\ncontract carchain {\r\n\r\nuint256 constant private maxArrayLength = 2**256-1;\r\n\r\nenum CarState {\r\n    Free,\r\n    Leased,\r\n    Blocked\r\n}\r\n\r\n  //every Car has to have an owner!\r\n  struct Car{\r\n    address owner;\r\n    CarState currentState;\r\n    address leaser;\r\n    uint256 timeRented;\r\n    uint256 amountEarned;\r\n    int256 longitude;\r\n    int256 latitude;\r\n    string nummernschild;\r\n    string typ;\r\n    string hersteller;\r\n    string farbe;\r\n    uint256 ps;\r\n    uint256 mietpreis;  //pro Minute\r\n    uint256 maxMietdauer;\r\n    uint256 minMietdauer;\r\n  }\r\n\r\n  mapping (address => Car) carpool;\r\n  address[1000] allCars;\r\n  uint256 private identifierAll = 0;\r\n\r\n\r\n  constructor() public {\r\n  }\r\n\r\n//--------------------------------------------------------------------------------------------------------------------\r\n\r\n  /*\r\n  Adds a new Car to the Carpool.\r\n  */\r\n  function addCar(address identifierCar,\r\n    string memory nummernschild, string memory typ, string memory hersteller, string memory farbe,\r\n    uint256 ps, uint256 mietpreis, uint256 maxMietdauer, uint256 minMietdauer)\r\n    public {\r\n      require(\r\n        carpool[identifierCar].owner == address(0), \"ID already used.\"\r\n        );\r\n\r\n      Car memory newCar = Car({\r\n        owner: msg.sender, currentState: CarState.Free, leaser: address(0),timeRented: 0, amountEarned: 0,\r\n        longitude: 0, latitude: 0,nummernschild: nummernschild, typ: typ, hersteller: hersteller, farbe: farbe,\r\n        ps: ps, mietpreis: mietpreis, maxMietdauer: maxMietdauer, minMietdauer: minMietdauer\r\n        });\r\n\r\n      allCars[identifierAll] = identifierCar;\r\n      identifierAll++;\r\n      carpool[identifierCar] = newCar;\r\n  }\r\n\r\n  /*\r\n  Removes a car which is not currently in Use from the total Carpool.\r\n  */\r\n  function removeCar(address payable identifierCar) public\r\n            knownCar(identifierCar) onlyOwner(identifierCar, msg.sender) carFree(identifierCar) payable {\r\n    \r\n    delete carpool[identifierCar];\r\n  }\r\n\r\n//--------------------------------------------------------------------------------------------------------------------\r\n\r\n  /*\r\n  Marks a car as rented and safes the point from where the car was rented.\r\n  */\r\n  function rentCar(address payable identifierCar) public knownCar(identifierCar) carFree(identifierCar) payable {\r\n    //Mindestmietdauer?\r\n    require(msg.value >= 2300, \"You did not pay enough. (Minimum: 2300)\");\r\n    require(msg.value >= carpool[identifierCar].mietpreis * carpool[identifierCar].minMietdauer + 2300,\r\n     \"You did not pay more than min Duration of Rent * rental price + 2300\");\r\n\r\n    carpool[identifierCar].amountEarned = msg.value;\r\n    address payable beneficiary = identifierCar;\r\n    beneficiary.transfer(msg.value - 2300);\r\n    carpool[identifierCar].currentState = CarState.Leased;\r\n    carpool[identifierCar].leaser = msg.sender;\r\n    //Problem: block.timestamp ist worst case 90 sekunden ungenau wegen manipulation von minern.\r\n    carpool[identifierCar].timeRented = getTimeNow() + (msg.value / carpool[identifierCar].mietpreis);\r\n  }\r\n\r\n  /*\r\n  Gives a boolean value if a car is now avaible for rent.\r\n  */\r\n  function mayRent(address identifierCar) public knownCar(identifierCar) view returns (bool) {\r\n    if(carpool[identifierCar].leaser == address(0) && getCurrentState(identifierCar) == CarState.Free){\r\n      return true;\r\n    }else{\r\n      return false;\r\n    }\r\n  }\r\n\r\n  /*\r\n  Gives a boolean value if a Leaser is still Lawfully/ Legally a Leaser and has enough credit.\r\n  */\r\n  function isLegalLeaser(address identifierCar, address identifierLeaser) public\r\n            knownCar(identifierCar) isLeased(identifierCar) isLeasedBy(identifierCar, identifierLeaser) view returns (bool) {\r\n    if(carpool[identifierCar].timeRented < getTimeNow()){\r\n      return true;\r\n    }\r\n    return false;\r\n  }\r\n\r\n  /*\r\n  After a Car was rented the car is given back to the free carpool and given the state not rented.\r\n  */\r\n  function returnCarToCarpool(address payable identifierCar) public\r\n            knownCar(identifierCar) isLeased(identifierCar) isLeasedBy(identifierCar, msg.sender) payable {\r\n    carpool[identifierCar].timeRented = 0;\r\n    carpool[identifierCar].currentState = CarState.Leased;\r\n    delete carpool[identifierCar].leaser;\r\n  }\r\n\r\n  function getAvailableVehicles() public view returns (address[1000] memory){\r\n    address[1000] memory avaibleCars;\r\n    uint256 identifierAll = 0;\r\n    uint256 identifierAvaible = 0;\r\n    if(allCars.length != maxArrayLength){\r\n      while(identifierAll < allCars.length && identifierAvaible < avaibleCars.length){\r\n        if(carpool[allCars[identifierAll]].owner != address(0) && mayRent(allCars[identifierAll])) {\r\n          avaibleCars[identifierAvaible] = allCars[identifierAll];\r\n          identifierAvaible++;\r\n        }\r\n        identifierAll++;\r\n      }\r\n    }\r\n    return avaibleCars;\r\n  }\r\n\r\n\r\n\r\n//--------------------------------------------------------------------------------------------------------------------\r\n\r\n//public getter for Car\r\n\r\n  function getOwner(address identifierCar) public knownCar(identifierCar) view returns (address) {\r\n    return carpool[identifierCar].owner;\r\n  }\r\n\r\n  /*\r\n  Checks if a Car is already rented/ in Use.\r\n  */\r\n  function getCurrentState(address identifierCar) public knownCar(identifierCar) view returns (CarState) {\r\n    return carpool[identifierCar].currentState;\r\n  }\r\n\r\n  function getLeaser(address identifierCar) public knownCar(identifierCar) view returns (address) {\r\n    return carpool[identifierCar].leaser;\r\n  }\r\n\r\n  function getTimeRented(address identifierCar) public knownCar(identifierCar) view returns (uint256) {\r\n    return carpool[identifierCar].timeRented;\r\n  }\r\n\r\n  function getLatitude(address identifierCar) public knownCar(identifierCar) view returns (int256) {\r\n    return carpool[identifierCar].latitude;\r\n  }\r\n\r\n  function getLongitude(address identifierCar) public knownCar(identifierCar) view returns (int256) {\r\n    return carpool[identifierCar].longitude;\r\n  }\r\n\r\n  function getNummernschild(address identifierCar) public knownCar(identifierCar) view returns (string memory) {\r\n    return carpool[identifierCar].nummernschild;\r\n  }\r\n\r\n  function getTyp(address identifierCar) public knownCar(identifierCar) view returns (string memory) {\r\n    return carpool[identifierCar].typ;\r\n  }\r\n\r\n  function getHersteller(address identifierCar) public knownCar(identifierCar) view returns (string memory) {\r\n    return carpool[identifierCar].hersteller;\r\n  }\r\n\r\n  function getFarbe(address identifierCar) public knownCar(identifierCar) view returns (string memory) {\r\n    return carpool[identifierCar].farbe;\r\n  }\r\n\r\n  function getPs(address identifierCar) public knownCar(identifierCar) view returns (uint256) {\r\n    return carpool[identifierCar].ps;\r\n  }\r\n\r\n  function getMietpreis(address identifierCar) public knownCar(identifierCar) view returns (uint256) {\r\n    return carpool[identifierCar].mietpreis;\r\n  }\r\n\r\n  function getMaxMietdauer(address identifierCar) public knownCar(identifierCar) view returns (uint256) {\r\n    return carpool[identifierCar].maxMietdauer;\r\n  }\r\n\r\n  function getMinMietdauer(address identifierCar) public knownCar(identifierCar) view returns (uint256) {\r\n    return carpool[identifierCar].minMietdauer;\r\n  }\r\n\r\n\r\n//--------------------------------------------------------------------------------------------------------------------\r\n\r\n  /*\r\n  Resets a car from the total Carpool.\r\n  Just for debugging Reasons. Should not make to the final version.\r\n  */\r\n  function resetCar(address identifierCar) public{\r\n    Car memory defaultValueCar = Car({\r\n      owner: msg.sender, currentState: CarState.Free, leaser: address(0),timeRented: 0, amountEarned: 0,\r\n       longitude: 0, latitude: 0,nummernschild: \"\", typ: \"\", hersteller: \"\", farbe: \"\",\r\n        ps: 0, mietpreis: 0, maxMietdauer: 0, minMietdauer: 0\r\n      });\r\n\r\n    carpool[identifierCar] = defaultValueCar;\r\n  }\r\n\r\n  //--------------------------------------------------------------------------------------------------------------------\r\n\r\n  //Private Methods\r\n\r\n  function getTimeNow() private view returns (uint256){\r\n    return now;\r\n  }\r\n\r\n  function makeCarFree (address identifierCar) private {\r\n    delete carpool[identifierCar].leaser;\r\n    carpool[identifierCar].currentState = CarState.Free;\r\n  }\r\n\r\n  function getPostionInAllCars(address identifierCar) private returns (uint256){\r\n    if(allCars.length != maxArrayLength){\r\n      for(uint256 i = 0; i < allCars.length; ++i){\r\n        if(allCars[i] == identifierCar) {\r\n          return i;\r\n        }\r\n      }\r\n    }\r\n    return maxArrayLength;\r\n  }\r\n\r\n  //--------------------------------------------------------------------------------------------------------------------\r\n\r\n  //Requires for the beginning of functions\r\n\r\n  modifier knownCar (address identifierCar) {\r\n    require(carpool[identifierCar].owner != address(0), \"Car is not in carpool\");\r\n    _;\r\n  }\r\n\r\n  modifier onlyOwner (address identifierCar, address identifierOwner) {\r\n    require(carpool[identifierCar].owner == identifierOwner, \"Not the right owner of the Car.\");\r\n    _;\r\n  }\r\n\r\n  modifier isLeased (address identifierCar) {\r\n    require(getCurrentState(identifierCar) == CarState.Leased, \"Car is not Leased\");\r\n    _;\r\n  }\r\n\r\n  modifier isLeasedBy (address identifierCar, address identifierLeaser) {\r\n    require(getLeaser(identifierCar) == identifierLeaser, \"Not the right Leaser of the Car.\");\r\n    _;\r\n  }\r\n\r\n  modifier carFree (address identifierCar) {\r\n    require(getCurrentState(identifierCar) == CarState.Free, \"Car is not free.\");\r\n    _;\r\n  }\r\n\r\n}\r\n\r\n",
  "sourcePath": "C:\\Users\\meton\\Desktop\\verteilte miete\\carchain\\Blockchain\\ethereum\\contracts\\carchain.sol",
  "compiler": {
    "name": "solc",
    "version": "0.5.16+commit.9c3226ce.Emscripten.clang"
  },
  "schemaVersion": "3.0.23",
  "updatedAt": "2020-03-24T08:25:46.551Z",
  "networkType": "ethereum",
  "devdoc": {
    "methods": {}
  },
  "userdoc": {
    "methods": {}
  }
}