{
  "contractName": "carchain",
  "abi": [
    {
      "inputs": [],
      "payable": false,
      "stateMutability": "nonpayable",
      "type": "constructor"
    },
    {
      "constant": false,
      "inputs": [
        {
          "internalType": "address",
          "name": "identifierCar",
          "type": "address"
        },
        {
          "internalType": "string",
          "name": "nummernschild",
          "type": "string"
        },
        {
          "internalType": "string",
          "name": "modell",
          "type": "string"
        },
        {
          "internalType": "string",
          "name": "typ",
          "type": "string"
        },
        {
          "internalType": "string",
          "name": "hersteller",
          "type": "string"
        },
        {
          "internalType": "string",
          "name": "farbe",
          "type": "string"
        },
        {
          "internalType": "uint256",
          "name": "ps",
          "type": "uint256"
        },
        {
          "internalType": "uint256",
          "name": "mietpreis",
          "type": "uint256"
        },
        {
          "internalType": "uint256",
          "name": "maxMietdauer",
          "type": "uint256"
        },
        {
          "internalType": "uint256",
          "name": "minMietdauer",
          "type": "uint256"
        }
      ],
      "name": "addCar",
      "outputs": [],
      "payable": false,
      "stateMutability": "nonpayable",
      "type": "function"
    },
    {
      "constant": false,
      "inputs": [
        {
          "internalType": "address",
          "name": "identifierCar",
          "type": "address"
        }
      ],
      "name": "removeCar",
      "outputs": [],
      "payable": false,
      "stateMutability": "nonpayable",
      "type": "function"
    },
    {
      "constant": false,
      "inputs": [
        {
          "internalType": "address payable",
          "name": "identifierCar",
          "type": "address"
        }
      ],
      "name": "rentCar",
      "outputs": [],
      "payable": true,
      "stateMutability": "payable",
      "type": "function"
    },
    {
      "constant": true,
      "inputs": [
        {
          "internalType": "address",
          "name": "identifierCar",
          "type": "address"
        }
      ],
      "name": "mayRent",
      "outputs": [
        {
          "internalType": "bool",
          "name": "",
          "type": "bool"
        }
      ],
      "payable": false,
      "stateMutability": "view",
      "type": "function"
    },
    {
      "constant": true,
      "inputs": [
        {
          "internalType": "address",
          "name": "identifierCar",
          "type": "address"
        },
        {
          "internalType": "address",
          "name": "identifierLeaser",
          "type": "address"
        }
      ],
      "name": "isLegalLeaser",
      "outputs": [
        {
          "internalType": "bool",
          "name": "",
          "type": "bool"
        }
      ],
      "payable": false,
      "stateMutability": "view",
      "type": "function"
    },
    {
      "constant": false,
      "inputs": [
        {
          "internalType": "address payable",
          "name": "identifierCar",
          "type": "address"
        }
      ],
      "name": "returnCarToCarpool",
      "outputs": [],
      "payable": true,
      "stateMutability": "payable",
      "type": "function"
    },
    {
      "constant": true,
      "inputs": [],
      "name": "getAvailableVehicles",
      "outputs": [
        {
          "internalType": "address[100]",
          "name": "",
          "type": "address[100]"
        }
      ],
      "payable": false,
      "stateMutability": "view",
      "type": "function"
    },
    {
      "constant": true,
      "inputs": [
        {
          "internalType": "address",
          "name": "identifierCar",
          "type": "address"
        }
      ],
      "name": "getOwner",
      "outputs": [
        {
          "internalType": "address",
          "name": "",
          "type": "address"
        }
      ],
      "payable": false,
      "stateMutability": "view",
      "type": "function"
    },
    {
      "constant": true,
      "inputs": [
        {
          "internalType": "address",
          "name": "identifierCar",
          "type": "address"
        }
      ],
      "name": "getCurrentState",
      "outputs": [
        {
          "internalType": "enum carchain.CarState",
          "name": "",
          "type": "uint8"
        }
      ],
      "payable": false,
      "stateMutability": "view",
      "type": "function"
    },
    {
      "constant": true,
      "inputs": [
        {
          "internalType": "address",
          "name": "identifierCar",
          "type": "address"
        }
      ],
      "name": "getLeaser",
      "outputs": [
        {
          "internalType": "address",
          "name": "",
          "type": "address"
        }
      ],
      "payable": false,
      "stateMutability": "view",
      "type": "function"
    },
    {
      "constant": true,
      "inputs": [
        {
          "internalType": "address",
          "name": "identifierCar",
          "type": "address"
        }
      ],
      "name": "getTimeRented",
      "outputs": [
        {
          "internalType": "uint256",
          "name": "",
          "type": "uint256"
        }
      ],
      "payable": false,
      "stateMutability": "view",
      "type": "function"
    },
    {
      "constant": true,
      "inputs": [
        {
          "internalType": "address",
          "name": "identifierCar",
          "type": "address"
        }
      ],
      "name": "getLatitude",
      "outputs": [
        {
          "internalType": "int256",
          "name": "",
          "type": "int256"
        }
      ],
      "payable": false,
      "stateMutability": "view",
      "type": "function"
    },
    {
      "constant": true,
      "inputs": [
        {
          "internalType": "address",
          "name": "identifierCar",
          "type": "address"
        }
      ],
      "name": "getLongitude",
      "outputs": [
        {
          "internalType": "int256",
          "name": "",
          "type": "int256"
        }
      ],
      "payable": false,
      "stateMutability": "view",
      "type": "function"
    },
    {
      "constant": true,
      "inputs": [
        {
          "internalType": "address",
          "name": "identifierCar",
          "type": "address"
        }
      ],
      "name": "getNummernschild",
      "outputs": [
        {
          "internalType": "string",
          "name": "",
          "type": "string"
        }
      ],
      "payable": false,
      "stateMutability": "view",
      "type": "function"
    },
    {
      "constant": true,
      "inputs": [
        {
          "internalType": "address",
          "name": "identifierCar",
          "type": "address"
        }
      ],
      "name": "getTyp",
      "outputs": [
        {
          "internalType": "string",
          "name": "",
          "type": "string"
        }
      ],
      "payable": false,
      "stateMutability": "view",
      "type": "function"
    },
    {
      "constant": true,
      "inputs": [
        {
          "internalType": "address",
          "name": "identifierCar",
          "type": "address"
        }
      ],
      "name": "getModell",
      "outputs": [
        {
          "internalType": "string",
          "name": "",
          "type": "string"
        }
      ],
      "payable": false,
      "stateMutability": "view",
      "type": "function"
    },
    {
      "constant": true,
      "inputs": [
        {
          "internalType": "address",
          "name": "identifierCar",
          "type": "address"
        }
      ],
      "name": "getHersteller",
      "outputs": [
        {
          "internalType": "string",
          "name": "",
          "type": "string"
        }
      ],
      "payable": false,
      "stateMutability": "view",
      "type": "function"
    },
    {
      "constant": true,
      "inputs": [
        {
          "internalType": "address",
          "name": "identifierCar",
          "type": "address"
        }
      ],
      "name": "getFarbe",
      "outputs": [
        {
          "internalType": "string",
          "name": "",
          "type": "string"
        }
      ],
      "payable": false,
      "stateMutability": "view",
      "type": "function"
    },
    {
      "constant": true,
      "inputs": [
        {
          "internalType": "address",
          "name": "identifierCar",
          "type": "address"
        }
      ],
      "name": "getPs",
      "outputs": [
        {
          "internalType": "uint256",
          "name": "",
          "type": "uint256"
        }
      ],
      "payable": false,
      "stateMutability": "view",
      "type": "function"
    },
    {
      "constant": true,
      "inputs": [
        {
          "internalType": "address",
          "name": "identifierCar",
          "type": "address"
        }
      ],
      "name": "getMietpreis",
      "outputs": [
        {
          "internalType": "uint256",
          "name": "",
          "type": "uint256"
        }
      ],
      "payable": false,
      "stateMutability": "view",
      "type": "function"
    },
    {
      "constant": true,
      "inputs": [
        {
          "internalType": "address",
          "name": "identifierCar",
          "type": "address"
        }
      ],
      "name": "getMaxMietdauer",
      "outputs": [
        {
          "internalType": "uint256",
          "name": "",
          "type": "uint256"
        }
      ],
      "payable": false,
      "stateMutability": "view",
      "type": "function"
    },
    {
      "constant": true,
      "inputs": [
        {
          "internalType": "address",
          "name": "identifierCar",
          "type": "address"
        }
      ],
      "name": "getMinMietdauer",
      "outputs": [
        {
          "internalType": "uint256",
          "name": "",
          "type": "uint256"
        }
      ],
      "payable": false,
      "stateMutability": "view",
      "type": "function"
    },
    {
      "constant": false,
      "inputs": [
        {
          "internalType": "address",
          "name": "identifierCar",
          "type": "address"
        }
      ],
      "name": "resetCar",
      "outputs": [],
      "payable": false,
      "stateMutability": "nonpayable",
      "type": "function"
    }
  ],
  "bytecode": "0x608060405234801561001057600080fd5b5060006103e9819055506144e1806100296000396000f3fe6080604052600436106101405760003560e01c806384f9f198116100b6578063c70676451161006f578063c706764514610c38578063cb8ad45114610c7c578063da051f4914610ce1578063dbe4fc0014610dab578063e2cc37f114610e75578063fa54416114610eda57610140565b806384f9f198146109ba5780638718323e14610a1f5780639bc3124e14610a925780639f08a3e514610ae5578063a4e88cf314610b4a578063ad4162ae14610baf57610140565b8063539f565011610108578063539f5650146103d357806354454b991461049d5780635e3c7e8d1461080a5780636204d12f1461085b5780636aa7a854146108c457806371e4ec9c1461092957610140565b80631270e5721461014557806317eabd88146101965780632361a67d146102605780633c00d62c146102a45780634400c8471461036e575b600080fd5b34801561015157600080fd5b506101946004803603602081101561016857600080fd5b81019080803573ffffffffffffffffffffffffffffffffffffffff169060200190929190505050610f6b565b005b3480156101a257600080fd5b506101e5600480360360208110156101b957600080fd5b81019080803573ffffffffffffffffffffffffffffffffffffffff1690602001909291905050506113d5565b6040518080602001828103825283818151815260200191508051906020019080838360005b8381101561022557808201518184015260208101905061020a565b50505050905090810190601f1680156102525780820380516001836020036101000a031916815260200191505b509250505060405180910390f35b6102a26004803603602081101561027657600080fd5b81019080803573ffffffffffffffffffffffffffffffffffffffff1690602001909291905050506115be565b005b3480156102b057600080fd5b506102f3600480360360208110156102c757600080fd5b81019080803573ffffffffffffffffffffffffffffffffffffffff169060200190929190505050611918565b6040518080602001828103825283818151815260200191508051906020019080838360005b83811015610333578082015181840152602081019050610318565b50505050905090810190601f1680156103605780820380516001836020036101000a031916815260200191505b509250505060405180910390f35b34801561037a57600080fd5b506103bd6004803603602081101561039157600080fd5b81019080803573ffffffffffffffffffffffffffffffffffffffff169060200190929190505050611b01565b6040518082815260200191505060405180910390f35b3480156103df57600080fd5b50610422600480360360208110156103f657600080fd5b81019080803573ffffffffffffffffffffffffffffffffffffffff169060200190929190505050611c52565b6040518080602001828103825283818151815260200191508051906020019080838360005b83811015610462578082015181840152602081019050610447565b50505050905090810190601f16801561048f5780820380516001836020036101000a031916815260200191505b509250505060405180910390f35b3480156104a957600080fd5b5061080860048036036101408110156104c157600080fd5b81019080803573ffffffffffffffffffffffffffffffffffffffff169060200190929190803590602001906401000000008111156104fe57600080fd5b82018360208201111561051057600080fd5b8035906020019184600183028401116401000000008311171561053257600080fd5b91908080601f016020809104026020016040519081016040528093929190818152602001838380828437600081840152601f19601f8201169050808301925050505050505091929192908035906020019064010000000081111561059557600080fd5b8201836020820111156105a757600080fd5b803590602001918460018302840111640100000000831117156105c957600080fd5b91908080601f016020809104026020016040519081016040528093929190818152602001838380828437600081840152601f19601f8201169050808301925050505050505091929192908035906020019064010000000081111561062c57600080fd5b82018360208201111561063e57600080fd5b8035906020019184600183028401116401000000008311171561066057600080fd5b91908080601f016020809104026020016040519081016040528093929190818152602001838380828437600081840152601f19601f820116905080830192505050505050509192919290803590602001906401000000008111156106c357600080fd5b8201836020820111156106d557600080fd5b803590602001918460018302840111640100000000831117156106f757600080fd5b91908080601f016020809104026020016040519081016040528093929190818152602001838380828437600081840152601f19601f8201169050808301925050505050505091929192908035906020019064010000000081111561075a57600080fd5b82018360208201111561076c57600080fd5b8035906020019184600183028401116401000000008311171561078e57600080fd5b91908080601f016020809104026020016040519081016040528093929190818152602001838380828437600081840152601f19601f82011690508083019250505050505050919291929080359060200190929190803590602001909291908035906020019092919080359060200190929190505050611e3b565b005b34801561081657600080fd5b506108596004803603602081101561082d57600080fd5b81019080803573ffffffffffffffffffffffffffffffffffffffff169060200190929190505050612242565b005b34801561086757600080fd5b506108aa6004803603602081101561087e57600080fd5b81019080803573ffffffffffffffffffffffffffffffffffffffff169060200190929190505050612528565b604051808215151515815260200191505060405180910390f35b3480156108d057600080fd5b50610913600480360360208110156108e757600080fd5b81019080803573ffffffffffffffffffffffffffffffffffffffff169060200190929190505050612703565b6040518082815260200191505060405180910390f35b34801561093557600080fd5b506109786004803603602081101561094c57600080fd5b81019080803573ffffffffffffffffffffffffffffffffffffffff169060200190929190505050612854565b604051808273ffffffffffffffffffffffffffffffffffffffff1673ffffffffffffffffffffffffffffffffffffffff16815260200191505060405180910390f35b3480156109c657600080fd5b50610a09600480360360208110156109dd57600080fd5b81019080803573ffffffffffffffffffffffffffffffffffffffff1690602001909291905050506129c5565b6040518082815260200191505060405180910390f35b348015610a2b57600080fd5b50610a6e60048036036020811015610a4257600080fd5b81019080803573ffffffffffffffffffffffffffffffffffffffff169060200190929190505050612b16565b60405180826002811115610a7e57fe5b60ff16815260200191505060405180910390f35b348015610a9e57600080fd5b50610aa7612c74565b6040518082606460200280838360005b83811015610ad2578082015181840152602081019050610ab7565b5050505090500191505060405180910390f35b348015610af157600080fd5b50610b3460048036036020811015610b0857600080fd5b81019080803573ffffffffffffffffffffffffffffffffffffffff169060200190929190505050612e67565b6040518082815260200191505060405180910390f35b348015610b5657600080fd5b50610b9960048036036020811015610b6d57600080fd5b81019080803573ffffffffffffffffffffffffffffffffffffffff169060200190929190505050612fb8565b6040518082815260200191505060405180910390f35b348015610bbb57600080fd5b50610c1e60048036036040811015610bd257600080fd5b81019080803573ffffffffffffffffffffffffffffffffffffffff169060200190929190803573ffffffffffffffffffffffffffffffffffffffff169060200190929190505050613109565b604051808215151515815260200191505060405180910390f35b610c7a60048036036020811015610c4e57600080fd5b81019080803573ffffffffffffffffffffffffffffffffffffffff1690602001909291905050506133b7565b005b348015610c8857600080fd5b50610ccb60048036036020811015610c9f57600080fd5b81019080803573ffffffffffffffffffffffffffffffffffffffff1690602001909291905050506138a3565b6040518082815260200191505060405180910390f35b348015610ced57600080fd5b50610d3060048036036020811015610d0457600080fd5b81019080803573ffffffffffffffffffffffffffffffffffffffff1690602001909291905050506139f4565b6040518080602001828103825283818151815260200191508051906020019080838360005b83811015610d70578082015181840152602081019050610d55565b50505050905090810190601f168015610d9d5780820380516001836020036101000a031916815260200191505b509250505060405180910390f35b348015610db757600080fd5b50610dfa60048036036020811015610dce57600080fd5b81019080803573ffffffffffffffffffffffffffffffffffffffff169060200190929190505050613bdd565b6040518080602001828103825283818151815260200191508051906020019080838360005b83811015610e3a578082015181840152602081019050610e1f565b50505050905090810190601f168015610e675780820380516001836020036101000a031916815260200191505b509250505060405180910390f35b348015610e8157600080fd5b50610ec460048036036020811015610e9857600080fd5b81019080803573ffffffffffffffffffffffffffffffffffffffff169060200190929190505050613dc6565b6040518082815260200191505060405180910390f35b348015610ee657600080fd5b50610f2960048036036020811015610efd57600080fd5b81019080803573ffffffffffffffffffffffffffffffffffffffff169060200190929190505050613f17565b604051808273ffffffffffffffffffffffffffffffffffffffff1673ffffffffffffffffffffffffffffffffffffffff16815260200191505060405180910390f35b80600073ffffffffffffffffffffffffffffffffffffffff166000808373ffffffffffffffffffffffffffffffffffffffff1673ffffffffffffffffffffffffffffffffffffffff16815260200190815260200160002060000160009054906101000a900473ffffffffffffffffffffffffffffffffffffffff1673ffffffffffffffffffffffffffffffffffffffff161415611070576040517f08c379a00000000000000000000000000000000000000000000000000000000081526004018080602001828103825260158152602001807f436172206973206e6f7420696e20636172706f6f6c000000000000000000000081525060200191505060405180910390fd5b81338073ffffffffffffffffffffffffffffffffffffffff166000808473ffffffffffffffffffffffffffffffffffffffff1673ffffffffffffffffffffffffffffffffffffffff16815260200190815260200160002060000160009054906101000a900473ffffffffffffffffffffffffffffffffffffffff1673ffffffffffffffffffffffffffffffffffffffff1614611174576040517f08c379a000000000000000000000000000000000000000000000000000000000815260040180806020018281038252601f8152602001807f4e6f7420746865207269676874206f776e6572206f6620746865204361722e0081525060200191505060405180910390fd5b836000600281111561118257fe5b61118b82612b16565b600281111561119657fe5b14611209576040517f08c379a00000000000000000000000000000000000000000000000000000000081526004018080602001828103825260108152602001807f436172206973206e6f7420667265652e0000000000000000000000000000000081525060200191505060405180910390fd5b600080905061121786614088565b90508573ffffffffffffffffffffffffffffffffffffffff166001826103e8811061123e57fe5b0160009054906101000a900473ffffffffffffffffffffffffffffffffffffffff1673ffffffffffffffffffffffffffffffffffffffff16141561129a5761128581614165565b6103e960008154809291906001900391905055505b6000808773ffffffffffffffffffffffffffffffffffffffff1673ffffffffffffffffffffffffffffffffffffffff168152602001908152602001600020600080820160006101000a81549073ffffffffffffffffffffffffffffffffffffffff02191690556000820160146101000a81549060ff02191690556001820160006101000a81549073ffffffffffffffffffffffffffffffffffffffff0219169055600282016000905560038201600090556004820160009055600582016000905560068201600061136b919061427d565b60078201600061137b919061427d565b60088201600061138b919061427d565b60098201600061139b919061427d565b600a820160006113ab919061427d565b600b820160009055600c820160009055600d820160009055600e8201600090555050505050505050565b606081600073ffffffffffffffffffffffffffffffffffffffff166000808373ffffffffffffffffffffffffffffffffffffffff1673ffffffffffffffffffffffffffffffffffffffff16815260200190815260200160002060000160009054906101000a900473ffffffffffffffffffffffffffffffffffffffff1673ffffffffffffffffffffffffffffffffffffffff1614156114dc576040517f08c379a00000000000000000000000000000000000000000000000000000000081526004018080602001828103825260158152602001807f436172206973206e6f7420696e20636172706f6f6c000000000000000000000081525060200191505060405180910390fd5b6000808473ffffffffffffffffffffffffffffffffffffffff1673ffffffffffffffffffffffffffffffffffffffff1681526020019081526020016000206006018054600181600116156101000203166002900480601f0160208091040260200160405190810160405280929190818152602001828054600181600116156101000203166002900480156115b15780601f10611586576101008083540402835291602001916115b1565b820191906000526020600020905b81548152906001019060200180831161159457829003601f168201915b5050505050915050919050565b80600073ffffffffffffffffffffffffffffffffffffffff166000808373ffffffffffffffffffffffffffffffffffffffff1673ffffffffffffffffffffffffffffffffffffffff16815260200190815260200160002060000160009054906101000a900473ffffffffffffffffffffffffffffffffffffffff1673ffffffffffffffffffffffffffffffffffffffff1614156116c3576040517f08c379a00000000000000000000000000000000000000000000000000000000081526004018080602001828103825260158152602001807f436172206973206e6f7420696e20636172706f6f6c000000000000000000000081525060200191505060405180910390fd5b81600160028111156116d157fe5b6116da82612b16565b60028111156116e557fe5b14611758576040517f08c379a00000000000000000000000000000000000000000000000000000000081526004018080602001828103825260118152602001807f436172206973206e6f74204c656173656400000000000000000000000000000081525060200191505060405180910390fd5b82338073ffffffffffffffffffffffffffffffffffffffff1661177a83612854565b73ffffffffffffffffffffffffffffffffffffffff1614611803576040517f08c379a00000000000000000000000000000000000000000000000000000000081526004018080602001828103825260208152602001807f4e6f7420746865207269676874204c6561736572206f6620746865204361722e81525060200191505060405180910390fd5b60008060008773ffffffffffffffffffffffffffffffffffffffff1673ffffffffffffffffffffffffffffffffffffffff1681526020019081526020016000206002018190555060016000808773ffffffffffffffffffffffffffffffffffffffff1673ffffffffffffffffffffffffffffffffffffffff16815260200190815260200160002060000160146101000a81548160ff021916908360028111156118a857fe5b02179055506000808673ffffffffffffffffffffffffffffffffffffffff1673ffffffffffffffffffffffffffffffffffffffff16815260200190815260200160002060010160006101000a81549073ffffffffffffffffffffffffffffffffffffffff02191690555050505050565b606081600073ffffffffffffffffffffffffffffffffffffffff166000808373ffffffffffffffffffffffffffffffffffffffff1673ffffffffffffffffffffffffffffffffffffffff16815260200190815260200160002060000160009054906101000a900473ffffffffffffffffffffffffffffffffffffffff1673ffffffffffffffffffffffffffffffffffffffff161415611a1f576040517f08c379a00000000000000000000000000000000000000000000000000000000081526004018080602001828103825260158152602001807f436172206973206e6f7420696e20636172706f6f6c000000000000000000000081525060200191505060405180910390fd5b6000808473ffffffffffffffffffffffffffffffffffffffff1673ffffffffffffffffffffffffffffffffffffffff168152602001908152602001600020600a018054600181600116156101000203166002900480601f016020809104026020016040519081016040528092919081815260200182805460018160011615610100020316600290048015611af45780601f10611ac957610100808354040283529160200191611af4565b820191906000526020600020905b815481529060010190602001808311611ad757829003601f168201915b5050505050915050919050565b600081600073ffffffffffffffffffffffffffffffffffffffff166000808373ffffffffffffffffffffffffffffffffffffffff1673ffffffffffffffffffffffffffffffffffffffff16815260200190815260200160002060000160009054906101000a900473ffffffffffffffffffffffffffffffffffffffff1673ffffffffffffffffffffffffffffffffffffffff161415611c08576040517f08c379a00000000000000000000000000000000000000000000000000000000081526004018080602001828103825260158152602001807f436172206973206e6f7420696e20636172706f6f6c000000000000000000000081525060200191505060405180910390fd5b6000808473ffffffffffffffffffffffffffffffffffffffff1673ffffffffffffffffffffffffffffffffffffffff168152602001908152602001600020600e0154915050919050565b606081600073ffffffffffffffffffffffffffffffffffffffff166000808373ffffffffffffffffffffffffffffffffffffffff1673ffffffffffffffffffffffffffffffffffffffff16815260200190815260200160002060000160009054906101000a900473ffffffffffffffffffffffffffffffffffffffff1673ffffffffffffffffffffffffffffffffffffffff161415611d59576040517f08c379a00000000000000000000000000000000000000000000000000000000081526004018080602001828103825260158152602001807f436172206973206e6f7420696e20636172706f6f6c000000000000000000000081525060200191505060405180910390fd5b6000808473ffffffffffffffffffffffffffffffffffffffff1673ffffffffffffffffffffffffffffffffffffffff1681526020019081526020016000206008018054600181600116156101000203166002900480601f016020809104026020016040519081016040528092919081815260200182805460018160011615610100020316600290048015611e2e5780601f10611e0357610100808354040283529160200191611e2e565b820191906000526020600020905b815481529060010190602001808311611e1157829003601f168201915b5050505050915050919050565b600073ffffffffffffffffffffffffffffffffffffffff166000808c73ffffffffffffffffffffffffffffffffffffffff1673ffffffffffffffffffffffffffffffffffffffff16815260200190815260200160002060000160009054906101000a900473ffffffffffffffffffffffffffffffffffffffff1673ffffffffffffffffffffffffffffffffffffffff1614611f3e576040517f08c379a00000000000000000000000000000000000000000000000000000000081526004018080602001828103825260108152602001807f494420616c726561647920757365642e0000000000000000000000000000000081525060200191505060405180910390fd5b611f466142c5565b6040518061020001604052803373ffffffffffffffffffffffffffffffffffffffff16815260200160006002811115611f7b57fe5b8152602001600073ffffffffffffffffffffffffffffffffffffffff168152602001600081526020016000815260200160008152602001600081526020018b81526020018a81526020018981526020018881526020018781526020018681526020018581526020018481526020018381525090508a60016103e9546103e8811061200157fe5b0160006101000a81548173ffffffffffffffffffffffffffffffffffffffff021916908373ffffffffffffffffffffffffffffffffffffffff1602179055506103e960008154809291906001019190505550806000808d73ffffffffffffffffffffffffffffffffffffffff1673ffffffffffffffffffffffffffffffffffffffff16815260200190815260200160002060008201518160000160006101000a81548173ffffffffffffffffffffffffffffffffffffffff021916908373ffffffffffffffffffffffffffffffffffffffff16021790555060208201518160000160146101000a81548160ff021916908360028111156120fd57fe5b021790555060408201518160010160006101000a81548173ffffffffffffffffffffffffffffffffffffffff021916908373ffffffffffffffffffffffffffffffffffffffff160217905550606082015181600201556080820151816003015560a0820151816004015560c0820151816005015560e082015181600601908051906020019061218d929190614379565b506101008201518160070190805190602001906121ab929190614379565b506101208201518160080190805190602001906121c9929190614379565b506101408201518160090190805190602001906121e7929190614379565b5061016082015181600a019080519060200190612205929190614379565b5061018082015181600b01556101a082015181600c01556101c082015181600d01556101e082015181600e01559050505050505050505050505050565b61224a6142c5565b6040518061020001604052803373ffffffffffffffffffffffffffffffffffffffff1681526020016000600281111561227f57fe5b8152602001600073ffffffffffffffffffffffffffffffffffffffff1681526020016000815260200160008152602001600081526020016000815260200160405180602001604052806000815250815260200160405180602001604052806000815250815260200160405180602001604052806000815250815260200160405180602001604052806000815250815260200160405180602001604052806000815250815260200160008152602001600081526020016000815260200160008152509050806000808473ffffffffffffffffffffffffffffffffffffffff1673ffffffffffffffffffffffffffffffffffffffff16815260200190815260200160002060008201518160000160006101000a81548173ffffffffffffffffffffffffffffffffffffffff021916908373ffffffffffffffffffffffffffffffffffffffff16021790555060208201518160000160146101000a81548160ff021916908360028111156123ec57fe5b021790555060408201518160010160006101000a81548173ffffffffffffffffffffffffffffffffffffffff021916908373ffffffffffffffffffffffffffffffffffffffff160217905550606082015181600201556080820151816003015560a0820151816004015560c0820151816005015560e082015181600601908051906020019061247c929190614379565b5061010082015181600701908051906020019061249a929190614379565b506101208201518160080190805190602001906124b8929190614379565b506101408201518160090190805190602001906124d6929190614379565b5061016082015181600a0190805190602001906124f4929190614379565b5061018082015181600b01556101a082015181600c01556101c082015181600d01556101e082015181600e01559050505050565b600081600073ffffffffffffffffffffffffffffffffffffffff166000808373ffffffffffffffffffffffffffffffffffffffff1673ffffffffffffffffffffffffffffffffffffffff16815260200190815260200160002060000160009054906101000a900473ffffffffffffffffffffffffffffffffffffffff1673ffffffffffffffffffffffffffffffffffffffff16141561262f576040517f08c379a00000000000000000000000000000000000000000000000000000000081526004018080602001828103825260158152602001807f436172206973206e6f7420696e20636172706f6f6c000000000000000000000081525060200191505060405180910390fd5b600073ffffffffffffffffffffffffffffffffffffffff166000808573ffffffffffffffffffffffffffffffffffffffff1673ffffffffffffffffffffffffffffffffffffffff16815260200190815260200160002060010160009054906101000a900473ffffffffffffffffffffffffffffffffffffffff1673ffffffffffffffffffffffffffffffffffffffff161480156126ea5750600060028111156126d457fe5b6126dd84612b16565b60028111156126e857fe5b145b156126f857600191506126fd565b600091505b50919050565b600081600073ffffffffffffffffffffffffffffffffffffffff166000808373ffffffffffffffffffffffffffffffffffffffff1673ffffffffffffffffffffffffffffffffffffffff16815260200190815260200160002060000160009054906101000a900473ffffffffffffffffffffffffffffffffffffffff1673ffffffffffffffffffffffffffffffffffffffff16141561280a576040517f08c379a00000000000000000000000000000000000000000000000000000000081526004018080602001828103825260158152602001807f436172206973206e6f7420696e20636172706f6f6c000000000000000000000081525060200191505060405180910390fd5b6000808473ffffffffffffffffffffffffffffffffffffffff1673ffffffffffffffffffffffffffffffffffffffff168152602001908152602001600020600b0154915050919050565b600081600073ffffffffffffffffffffffffffffffffffffffff166000808373ffffffffffffffffffffffffffffffffffffffff1673ffffffffffffffffffffffffffffffffffffffff16815260200190815260200160002060000160009054906101000a900473ffffffffffffffffffffffffffffffffffffffff1673ffffffffffffffffffffffffffffffffffffffff16141561295b576040517f08c379a00000000000000000000000000000000000000000000000000000000081526004018080602001828103825260158152602001807f436172206973206e6f7420696e20636172706f6f6c000000000000000000000081525060200191505060405180910390fd5b6000808473ffffffffffffffffffffffffffffffffffffffff1673ffffffffffffffffffffffffffffffffffffffff16815260200190815260200160002060010160009054906101000a900473ffffffffffffffffffffffffffffffffffffffff16915050919050565b600081600073ffffffffffffffffffffffffffffffffffffffff166000808373ffffffffffffffffffffffffffffffffffffffff1673ffffffffffffffffffffffffffffffffffffffff16815260200190815260200160002060000160009054906101000a900473ffffffffffffffffffffffffffffffffffffffff1673ffffffffffffffffffffffffffffffffffffffff161415612acc576040517f08c379a00000000000000000000000000000000000000000000000000000000081526004018080602001828103825260158152602001807f436172206973206e6f7420696e20636172706f6f6c000000000000000000000081525060200191505060405180910390fd5b6000808473ffffffffffffffffffffffffffffffffffffffff1673ffffffffffffffffffffffffffffffffffffffff168152602001908152602001600020600d0154915050919050565b600081600073ffffffffffffffffffffffffffffffffffffffff166000808373ffffffffffffffffffffffffffffffffffffffff1673ffffffffffffffffffffffffffffffffffffffff16815260200190815260200160002060000160009054906101000a900473ffffffffffffffffffffffffffffffffffffffff1673ffffffffffffffffffffffffffffffffffffffff161415612c1d576040517f08c379a00000000000000000000000000000000000000000000000000000000081526004018080602001828103825260158152602001807f436172206973206e6f7420696e20636172706f6f6c000000000000000000000081525060200191505060405180910390fd5b6000808473ffffffffffffffffffffffffffffffffffffffff1673ffffffffffffffffffffffffffffffffffffffff16815260200190815260200160002060000160149054906101000a900460ff16915050919050565b612c7c6143f9565b612c846143f9565b600080905060008090507fffffffffffffffffffffffffffffffffffffffffffffffffffffffffffffffff6103e814612e5e575b6103e882108015612cc95750606481105b15612e5d57600073ffffffffffffffffffffffffffffffffffffffff166000806001856103e88110612cf757fe5b0160009054906101000a900473ffffffffffffffffffffffffffffffffffffffff1673ffffffffffffffffffffffffffffffffffffffff1673ffffffffffffffffffffffffffffffffffffffff16815260200190815260200160002060000160009054906101000a900473ffffffffffffffffffffffffffffffffffffffff1673ffffffffffffffffffffffffffffffffffffffff1614158015612dcf5750612dce6001836103e88110612da757fe5b0160009054906101000a900473ffffffffffffffffffffffffffffffffffffffff16612528565b5b15612e50576001826103e88110612de257fe5b0160009054906101000a900473ffffffffffffffffffffffffffffffffffffffff16838260648110612e1057fe5b602002019073ffffffffffffffffffffffffffffffffffffffff16908173ffffffffffffffffffffffffffffffffffffffff168152505080806001019150505b8180600101925050612cb8565b5b82935050505090565b600081600073ffffffffffffffffffffffffffffffffffffffff166000808373ffffffffffffffffffffffffffffffffffffffff1673ffffffffffffffffffffffffffffffffffffffff16815260200190815260200160002060000160009054906101000a900473ffffffffffffffffffffffffffffffffffffffff1673ffffffffffffffffffffffffffffffffffffffff161415612f6e576040517f08c379a00000000000000000000000000000000000000000000000000000000081526004018080602001828103825260158152602001807f436172206973206e6f7420696e20636172706f6f6c000000000000000000000081525060200191505060405180910390fd5b6000808473ffffffffffffffffffffffffffffffffffffffff1673ffffffffffffffffffffffffffffffffffffffff16815260200190815260200160002060050154915050919050565b600081600073ffffffffffffffffffffffffffffffffffffffff166000808373ffffffffffffffffffffffffffffffffffffffff1673ffffffffffffffffffffffffffffffffffffffff16815260200190815260200160002060000160009054906101000a900473ffffffffffffffffffffffffffffffffffffffff1673ffffffffffffffffffffffffffffffffffffffff1614156130bf576040517f08c379a00000000000000000000000000000000000000000000000000000000081526004018080602001828103825260158152602001807f436172206973206e6f7420696e20636172706f6f6c000000000000000000000081525060200191505060405180910390fd5b6000808473ffffffffffffffffffffffffffffffffffffffff1673ffffffffffffffffffffffffffffffffffffffff16815260200190815260200160002060020154915050919050565b600082600073ffffffffffffffffffffffffffffffffffffffff166000808373ffffffffffffffffffffffffffffffffffffffff1673ffffffffffffffffffffffffffffffffffffffff16815260200190815260200160002060000160009054906101000a900473ffffffffffffffffffffffffffffffffffffffff1673ffffffffffffffffffffffffffffffffffffffff161415613210576040517f08c379a00000000000000000000000000000000000000000000000000000000081526004018080602001828103825260158152602001807f436172206973206e6f7420696e20636172706f6f6c000000000000000000000081525060200191505060405180910390fd5b836001600281111561321e57fe5b61322782612b16565b600281111561323257fe5b146132a5576040517f08c379a00000000000000000000000000000000000000000000000000000000081526004018080602001828103825260118152602001807f436172206973206e6f74204c656173656400000000000000000000000000000081525060200191505060405180910390fd5b84848073ffffffffffffffffffffffffffffffffffffffff166132c783612854565b73ffffffffffffffffffffffffffffffffffffffff1614613350576040517f08c379a00000000000000000000000000000000000000000000000000000000081526004018080602001828103825260208152602001807f4e6f7420746865207269676874204c6561736572206f6620746865204361722e81525060200191505060405180910390fd5b613358614275565b6000808973ffffffffffffffffffffffffffffffffffffffff1673ffffffffffffffffffffffffffffffffffffffff16815260200190815260200160002060020154106133a857600194506133ad565b600094505b5050505092915050565b80600073ffffffffffffffffffffffffffffffffffffffff166000808373ffffffffffffffffffffffffffffffffffffffff1673ffffffffffffffffffffffffffffffffffffffff16815260200190815260200160002060000160009054906101000a900473ffffffffffffffffffffffffffffffffffffffff1673ffffffffffffffffffffffffffffffffffffffff1614156134bc576040517f08c379a00000000000000000000000000000000000000000000000000000000081526004018080602001828103825260158152602001807f436172206973206e6f7420696e20636172706f6f6c000000000000000000000081525060200191505060405180910390fd5b81600060028111156134ca57fe5b6134d382612b16565b60028111156134de57fe5b14613551576040517f08c379a00000000000000000000000000000000000000000000000000000000081526004018080602001828103825260108152602001807f436172206973206e6f7420667265652e0000000000000000000000000000000081525060200191505060405180910390fd5b6108fc3410156135ac576040517f08c379a00000000000000000000000000000000000000000000000000000000081526004018080602001828103825260278152602001806144426027913960400191505060405180910390fd5b6108fc6000808573ffffffffffffffffffffffffffffffffffffffff1673ffffffffffffffffffffffffffffffffffffffff168152602001908152602001600020600e01546000808673ffffffffffffffffffffffffffffffffffffffff1673ffffffffffffffffffffffffffffffffffffffff168152602001908152602001600020600c0154020134101561368d576040517f08c379a00000000000000000000000000000000000000000000000000000000081526004018080602001828103825260448152602001806144696044913960600191505060405180910390fd5b346000808573ffffffffffffffffffffffffffffffffffffffff1673ffffffffffffffffffffffffffffffffffffffff1681526020019081526020016000206003018190555060008390508073ffffffffffffffffffffffffffffffffffffffff166108fc8034039081150290604051600060405180830381858888f19350505050158015613720573d6000803e3d6000fd5b5060016000808673ffffffffffffffffffffffffffffffffffffffff1673ffffffffffffffffffffffffffffffffffffffff16815260200190815260200160002060000160146101000a81548160ff0219169083600281111561377f57fe5b0217905550336000808673ffffffffffffffffffffffffffffffffffffffff1673ffffffffffffffffffffffffffffffffffffffff16815260200190815260200160002060010160006101000a81548173ffffffffffffffffffffffffffffffffffffffff021916908373ffffffffffffffffffffffffffffffffffffffff1602179055506000808573ffffffffffffffffffffffffffffffffffffffff1673ffffffffffffffffffffffffffffffffffffffff168152602001908152602001600020600c0154348161384e57fe5b04613857614275565b016000808673ffffffffffffffffffffffffffffffffffffffff1673ffffffffffffffffffffffffffffffffffffffff1681526020019081526020016000206002018190555050505050565b600081600073ffffffffffffffffffffffffffffffffffffffff166000808373ffffffffffffffffffffffffffffffffffffffff1673ffffffffffffffffffffffffffffffffffffffff16815260200190815260200160002060000160009054906101000a900473ffffffffffffffffffffffffffffffffffffffff1673ffffffffffffffffffffffffffffffffffffffff1614156139aa576040517f08c379a00000000000000000000000000000000000000000000000000000000081526004018080602001828103825260158152602001807f436172206973206e6f7420696e20636172706f6f6c000000000000000000000081525060200191505060405180910390fd5b6000808473ffffffffffffffffffffffffffffffffffffffff1673ffffffffffffffffffffffffffffffffffffffff168152602001908152602001600020600c0154915050919050565b606081600073ffffffffffffffffffffffffffffffffffffffff166000808373ffffffffffffffffffffffffffffffffffffffff1673ffffffffffffffffffffffffffffffffffffffff16815260200190815260200160002060000160009054906101000a900473ffffffffffffffffffffffffffffffffffffffff1673ffffffffffffffffffffffffffffffffffffffff161415613afb576040517f08c379a00000000000000000000000000000000000000000000000000000000081526004018080602001828103825260158152602001807f436172206973206e6f7420696e20636172706f6f6c000000000000000000000081525060200191505060405180910390fd5b6000808473ffffffffffffffffffffffffffffffffffffffff1673ffffffffffffffffffffffffffffffffffffffff1681526020019081526020016000206009018054600181600116156101000203166002900480601f016020809104026020016040519081016040528092919081815260200182805460018160011615610100020316600290048015613bd05780601f10613ba557610100808354040283529160200191613bd0565b820191906000526020600020905b815481529060010190602001808311613bb357829003601f168201915b5050505050915050919050565b606081600073ffffffffffffffffffffffffffffffffffffffff166000808373ffffffffffffffffffffffffffffffffffffffff1673ffffffffffffffffffffffffffffffffffffffff16815260200190815260200160002060000160009054906101000a900473ffffffffffffffffffffffffffffffffffffffff1673ffffffffffffffffffffffffffffffffffffffff161415613ce4576040517f08c379a00000000000000000000000000000000000000000000000000000000081526004018080602001828103825260158152602001807f436172206973206e6f7420696e20636172706f6f6c000000000000000000000081525060200191505060405180910390fd5b6000808473ffffffffffffffffffffffffffffffffffffffff1673ffffffffffffffffffffffffffffffffffffffff1681526020019081526020016000206007018054600181600116156101000203166002900480601f016020809104026020016040519081016040528092919081815260200182805460018160011615610100020316600290048015613db95780601f10613d8e57610100808354040283529160200191613db9565b820191906000526020600020905b815481529060010190602001808311613d9c57829003601f168201915b5050505050915050919050565b600081600073ffffffffffffffffffffffffffffffffffffffff166000808373ffffffffffffffffffffffffffffffffffffffff1673ffffffffffffffffffffffffffffffffffffffff16815260200190815260200160002060000160009054906101000a900473ffffffffffffffffffffffffffffffffffffffff1673ffffffffffffffffffffffffffffffffffffffff161415613ecd576040517f08c379a00000000000000000000000000000000000000000000000000000000081526004018080602001828103825260158152602001807f436172206973206e6f7420696e20636172706f6f6c000000000000000000000081525060200191505060405180910390fd5b6000808473ffffffffffffffffffffffffffffffffffffffff1673ffffffffffffffffffffffffffffffffffffffff16815260200190815260200160002060040154915050919050565b600081600073ffffffffffffffffffffffffffffffffffffffff166000808373ffffffffffffffffffffffffffffffffffffffff1673ffffffffffffffffffffffffffffffffffffffff16815260200190815260200160002060000160009054906101000a900473ffffffffffffffffffffffffffffffffffffffff1673ffffffffffffffffffffffffffffffffffffffff16141561401e576040517f08c379a00000000000000000000000000000000000000000000000000000000081526004018080602001828103825260158152602001807f436172206973206e6f7420696e20636172706f6f6c000000000000000000000081525060200191505060405180910390fd5b6000808473ffffffffffffffffffffffffffffffffffffffff1673ffffffffffffffffffffffffffffffffffffffff16815260200190815260200160002060000160009054906101000a900473ffffffffffffffffffffffffffffffffffffffff16915050919050565b60007fffffffffffffffffffffffffffffffffffffffffffffffffffffffffffffffff6103e81461413c5760008090505b6103e881101561413a578273ffffffffffffffffffffffffffffffffffffffff166001826103e881106140e857fe5b0160009054906101000a900473ffffffffffffffffffffffffffffffffffffffff1673ffffffffffffffffffffffffffffffffffffffff16141561412f5780915050614160565b8060010190506140b9565b505b7fffffffffffffffffffffffffffffffffffffffffffffffffffffffffffffffff90505b919050565b6103e954811061417457614272565b60016103e95414156141b857600160006103e8811061418f57fe5b0160006101000a81549073ffffffffffffffffffffffffffffffffffffffff0219169055614272565b6001806103e954036103e881106141cb57fe5b0160009054906101000a900473ffffffffffffffffffffffffffffffffffffffff166001826103e881106141fb57fe5b0160006101000a81548173ffffffffffffffffffffffffffffffffffffffff021916908373ffffffffffffffffffffffffffffffffffffffff1602179055506001806103e954036103e8811061424d57fe5b0160006101000a81549073ffffffffffffffffffffffffffffffffffffffff02191690555b50565b600042905090565b50805460018160011615610100020316600290046000825580601f106142a357506142c2565b601f0160209004906000526020600020908101906142c1919061441c565b5b50565b604051806102000160405280600073ffffffffffffffffffffffffffffffffffffffff168152602001600060028111156142fb57fe5b8152602001600073ffffffffffffffffffffffffffffffffffffffff168152602001600081526020016000815260200160008152602001600081526020016060815260200160608152602001606081526020016060815260200160608152602001600081526020016000815260200160008152602001600081525090565b828054600181600116156101000203166002900490600052602060002090601f016020900481019282601f106143ba57805160ff19168380011785556143e8565b828001600101855582156143e8579182015b828111156143e75782518255916020019190600101906143cc565b5b5090506143f5919061441c565b5090565b60405180610c800160405280606490602082028038833980820191505090505090565b61443e91905b8082111561443a576000816000905550600101614422565b5090565b9056fe596f7520646964206e6f742070617920656e6f7567682e20284d696e696d756d3a203233303029596f7520646964206e6f7420706179206d6f7265207468616e206d696e204475726174696f6e206f662052656e74202a2072656e74616c207072696365202b2032333030a265627a7a72315820d1839215d7a472a4b1c1200aababadd600906cc64a57b2e1681dee0a4d86d8f464736f6c63430005100032",
  "source": "pragma solidity >=0.4.21 <0.7.0;\r\n\r\n\r\ncontract carchain {\r\n\r\nuint256 constant private maxArrayLength = 2**256-1;\r\n\r\nenum CarState {\r\n    Free,\r\n    Leased,\r\n    Blocked\r\n}\r\n\r\n  //every Car has to have an owner!\r\n  struct Car{\r\n    address owner;\r\n    CarState currentState;\r\n    address leaser;\r\n    uint256 timeRented;\r\n    uint256 amountEarned;\r\n    int256 longitude;\r\n    int256 latitude;\r\n    string nummernschild;\r\n    string modell;\r\n    string typ;\r\n    string hersteller;\r\n    string farbe;\r\n    uint256 ps;\r\n    uint256 mietpreis;  //pro Minute\r\n    uint256 maxMietdauer;\r\n    uint256 minMietdauer;\r\n  }\r\n\r\n  mapping (address => Car) carpool;\r\n  address[1000] allCars;\r\n  uint256 private realLengthAll;\r\n\r\n\r\n  constructor() public {\r\n    realLengthAll = 0;\r\n  }\r\n\r\n//--------------------------------------------------------------------------------------------------------------------\r\n\r\n  /*\r\n  Adds a new Car to the Carpool.\r\n  */\r\n  function addCar(address identifierCar,\r\n    string memory nummernschild,string memory modell, string memory typ, string memory hersteller, string memory farbe,\r\n    uint256 ps, uint256 mietpreis, uint256 maxMietdauer, uint256 minMietdauer)\r\n    public {\r\n      require(\r\n        carpool[identifierCar].owner == address(0), \"ID already used.\"\r\n        );\r\n\r\n      Car memory newCar = Car({\r\n        owner: msg.sender, currentState: CarState.Free, leaser: address(0),timeRented: 0, amountEarned: 0,\r\n        longitude: 0, latitude: 0,nummernschild: nummernschild, modell: modell, typ: typ, hersteller: hersteller, farbe: farbe,\r\n        ps: ps, mietpreis: mietpreis, maxMietdauer: maxMietdauer, minMietdauer: minMietdauer\r\n        });\r\n\r\n      allCars[realLengthAll] = identifierCar;\r\n      realLengthAll++;\r\n      carpool[identifierCar] = newCar;\r\n  }\r\n\r\n  /*\r\n  Removes a car which is not currently in Use from the total Carpool.\r\n  */\r\n  function removeCar(address identifierCar) public\r\n            knownCar(identifierCar) onlyOwner(identifierCar, msg.sender) carFree(identifierCar) {\r\n    uint256 index = 0;\r\n    index = getPostionInAllCars(identifierCar);\r\n    if(allCars[index] == identifierCar){\r\n      deleteCarFromAllCars(index);\r\n      realLengthAll--;\r\n    }\r\n    delete carpool[identifierCar];\r\n  }\r\n\r\n//--------------------------------------------------------------------------------------------------------------------\r\n\r\n  /*\r\n  Marks a car as rented and safes the point from where the car was rented.\r\n  */\r\n  function rentCar(address payable identifierCar) public knownCar(identifierCar) carFree(identifierCar) payable {\r\n    //Mindestmietdauer?\r\n    require(msg.value >= 2300, \"You did not pay enough. (Minimum: 2300)\");\r\n    require(msg.value >= carpool[identifierCar].mietpreis * carpool[identifierCar].minMietdauer + 2300,\r\n     \"You did not pay more than min Duration of Rent * rental price + 2300\");\r\n\r\n    carpool[identifierCar].amountEarned = msg.value;\r\n    address payable beneficiary = identifierCar;\r\n    beneficiary.transfer(msg.value - 2300);\r\n    carpool[identifierCar].currentState = CarState.Leased;\r\n    carpool[identifierCar].leaser = msg.sender;\r\n    //Problem: block.timestamp ist worst case 90 sekunden ungenau wegen manipulation von minern.\r\n    carpool[identifierCar].timeRented = getTimeNow() + (msg.value / carpool[identifierCar].mietpreis);\r\n  }\r\n\r\n  /*\r\n  Gives a boolean value if a car is now avaible for rent.\r\n  */\r\n  function mayRent(address identifierCar) public knownCar(identifierCar) view returns (bool) {\r\n    if(carpool[identifierCar].leaser == address(0) && getCurrentState(identifierCar) == CarState.Free){\r\n      return true;\r\n    }else{\r\n      return false;\r\n    }\r\n  }\r\n\r\n  /*\r\n  Gives a boolean value if a Leaser is still Lawfully/ Legally a Leaser and has enough credit.\r\n  */\r\n  function isLegalLeaser(address identifierCar, address identifierLeaser) public\r\n            knownCar(identifierCar) isLeased(identifierCar) isLeasedBy(identifierCar, identifierLeaser) view returns (bool) {\r\n    if(carpool[identifierCar].timeRented >= getTimeNow()){\r\n      return true;\r\n    }\r\n    return false;\r\n  }\r\n\r\n  /*\r\n  After a Car was rented the car is given back to the free carpool and given the state not rented.\r\n  */\r\n  function returnCarToCarpool(address payable identifierCar) public\r\n            knownCar(identifierCar) isLeased(identifierCar) isLeasedBy(identifierCar, msg.sender) payable {\r\n    carpool[identifierCar].timeRented = 0;\r\n    carpool[identifierCar].currentState = CarState.Leased;\r\n    delete carpool[identifierCar].leaser;\r\n  }\r\n\r\n  function getAvailableVehicles() public view returns (address[100] memory){\r\n    address[100] memory avaibleCars;\r\n    uint256 identifierAll = 0;\r\n    uint256 identifierAvaible = 0;\r\n    if(allCars.length != maxArrayLength){\r\n      while(identifierAll < allCars.length && identifierAvaible < avaibleCars.length){\r\n        if(carpool[allCars[identifierAll]].owner != address(0) && mayRent(allCars[identifierAll])) {\r\n          avaibleCars[identifierAvaible] = allCars[identifierAll];\r\n          identifierAvaible++;\r\n        }\r\n        identifierAll++;\r\n      }\r\n    }\r\n    return avaibleCars;\r\n  }\r\n\r\n\r\n\r\n//--------------------------------------------------------------------------------------------------------------------\r\n\r\n//public getter for Car\r\n\r\n  function getOwner(address identifierCar) public knownCar(identifierCar) view returns (address) {\r\n    return carpool[identifierCar].owner;\r\n  }\r\n\r\n  /*\r\n  Checks if a Car is already rented/ in Use.\r\n  */\r\n  function getCurrentState(address identifierCar) public knownCar(identifierCar) view returns (CarState) {\r\n    return carpool[identifierCar].currentState;\r\n  }\r\n\r\n  function getLeaser(address identifierCar) public knownCar(identifierCar) view returns (address) {\r\n    return carpool[identifierCar].leaser;\r\n  }\r\n\r\n  /*\r\n  Get the Time till when the Car is rented.\r\n  The return value the passed time since the start of the Unix epoch (1st January 1970, 00:00)\r\n  */\r\n  function getTimeRented(address identifierCar) public knownCar(identifierCar) view returns (uint256) {\r\n    return carpool[identifierCar].timeRented;\r\n  }\r\n\r\n  function getLatitude(address identifierCar) public knownCar(identifierCar) view returns (int256) {\r\n    return carpool[identifierCar].latitude;\r\n  }\r\n\r\n  function getLongitude(address identifierCar) public knownCar(identifierCar) view returns (int256) {\r\n    return carpool[identifierCar].longitude;\r\n  }\r\n\r\n  function getNummernschild(address identifierCar) public knownCar(identifierCar) view returns (string memory) {\r\n    return carpool[identifierCar].nummernschild;\r\n  }\r\n\r\n  function getTyp(address identifierCar) public knownCar(identifierCar) view returns (string memory) {\r\n    return carpool[identifierCar].typ;\r\n  }\r\n\r\n  function getModell(address identifierCar) public knownCar(identifierCar) view returns (string memory) {\r\n    return carpool[identifierCar].modell;\r\n  }\r\n\r\n  function getHersteller(address identifierCar) public knownCar(identifierCar) view returns (string memory) {\r\n    return carpool[identifierCar].hersteller;\r\n  }\r\n\r\n  function getFarbe(address identifierCar) public knownCar(identifierCar) view returns (string memory) {\r\n    return carpool[identifierCar].farbe;\r\n  }\r\n\r\n  function getPs(address identifierCar) public knownCar(identifierCar) view returns (uint256) {\r\n    return carpool[identifierCar].ps;\r\n  }\r\n\r\n  function getMietpreis(address identifierCar) public knownCar(identifierCar) view returns (uint256) {\r\n    return carpool[identifierCar].mietpreis;\r\n  }\r\n\r\n  function getMaxMietdauer(address identifierCar) public knownCar(identifierCar) view returns (uint256) {\r\n    return carpool[identifierCar].maxMietdauer;\r\n  }\r\n\r\n  function getMinMietdauer(address identifierCar) public knownCar(identifierCar) view returns (uint256) {\r\n    return carpool[identifierCar].minMietdauer;\r\n  }\r\n\r\n\r\n//--------------------------------------------------------------------------------------------------------------------\r\n\r\n  /*\r\n  Resets a car from the total Carpool.\r\n  Just for debugging Reasons. Should not make to the final version.\r\n  */\r\n  function resetCar(address identifierCar) public{\r\n    Car memory defaultValueCar = Car({\r\n      owner: msg.sender, currentState: CarState.Free, leaser: address(0),timeRented: 0, amountEarned: 0,\r\n       longitude: 0, latitude: 0,nummernschild: \"\", modell: \"\", typ: \"\", hersteller: \"\", farbe: \"\",\r\n        ps: 0, mietpreis: 0, maxMietdauer: 0, minMietdauer: 0\r\n      });\r\n\r\n    carpool[identifierCar] = defaultValueCar;\r\n  }\r\n\r\n  //--------------------------------------------------------------------------------------------------------------------\r\n\r\n  //Private Methods\r\n\r\n  function getTimeNow() private view returns (uint256){\r\n    return now;\r\n  }\r\n\r\n  function makeCarFree (address identifierCar) private {\r\n    delete carpool[identifierCar].leaser;\r\n    carpool[identifierCar].currentState = CarState.Free;\r\n  }\r\n\r\n  function getPostionInAllCars(address identifierCar) private view returns (uint256){\r\n    if(allCars.length != maxArrayLength){\r\n      for(uint256 i = 0; i < allCars.length; ++i){\r\n        if(allCars[i] == identifierCar) {\r\n          return i;\r\n        }\r\n      }\r\n    }\r\n    return maxArrayLength;\r\n  }\r\n\r\n  function deleteCarFromAllCars(uint256 index) private {\r\n    if (index >= realLengthAll) return;\r\n\r\n    if(realLengthAll == 1){\r\n      delete allCars[0];\r\n      return;\r\n    }\r\n    allCars[index] = allCars[realLengthAll - 1];\r\n    delete allCars[realLengthAll - 1];\r\n    return;\r\n  }\r\n\r\n  //--------------------------------------------------------------------------------------------------------------------\r\n\r\n  //Requires for the beginning of functions\r\n\r\n  modifier knownCar (address identifierCar) {\r\n    require(carpool[identifierCar].owner != address(0), \"Car is not in carpool\");\r\n    _;\r\n  }\r\n\r\n  modifier onlyOwner (address identifierCar, address identifierOwner) {\r\n    require(carpool[identifierCar].owner == identifierOwner, \"Not the right owner of the Car.\");\r\n    _;\r\n  }\r\n\r\n  modifier isLeased (address identifierCar) {\r\n    require(getCurrentState(identifierCar) == CarState.Leased, \"Car is not Leased\");\r\n    _;\r\n  }\r\n\r\n  modifier isLeasedBy (address identifierCar, address identifierLeaser) {\r\n    require(getLeaser(identifierCar) == identifierLeaser, \"Not the right Leaser of the Car.\");\r\n    _;\r\n  }\r\n\r\n  modifier carFree (address identifierCar) {\r\n    require(getCurrentState(identifierCar) == CarState.Free, \"Car is not free.\");\r\n    _;\r\n  }\r\n\r\n}\r\n\r\n",
  "sourcePath": "C:\\Users\\meton\\Desktop\\verteilte miete\\carchain\\Blockchain\\ethereum\\contracts\\carchain.sol",
  "compiler": {
    "name": "solc",
    "version": "0.5.16+commit.9c3226ce.Emscripten.clang"
  },
  "schemaVersion": "3.0.23",
  "updatedAt": "2020-04-18T15:20:26.472Z",
  "networkType": "ethereum",
  "devdoc": {
    "methods": {}
  },
  "userdoc": {
    "methods": {}
  }
}