{
  "contractName": "carchain",
  "abi": [
    {
      "inputs": [],
      "payable": false,
      "stateMutability": "nonpayable",
      "type": "constructor"
    },
    {
      "constant": false,
      "inputs": [
        {
          "internalType": "address",
          "name": "identifierCar",
          "type": "address"
        }
      ],
      "name": "addCar",
      "outputs": [],
      "payable": false,
      "stateMutability": "nonpayable",
      "type": "function"
    },
    {
      "constant": false,
      "inputs": [
        {
          "internalType": "address payable",
          "name": "identifierCar",
          "type": "address"
        }
      ],
      "name": "removeCar",
      "outputs": [],
      "payable": true,
      "stateMutability": "payable",
      "type": "function"
    },
    {
      "constant": false,
      "inputs": [
        {
          "internalType": "address payable",
          "name": "identifierCar",
          "type": "address"
        }
      ],
      "name": "rentCar",
      "outputs": [],
      "payable": true,
      "stateMutability": "payable",
      "type": "function"
    },
    {
      "constant": true,
      "inputs": [
        {
          "internalType": "address",
          "name": "identifierCar",
          "type": "address"
        }
      ],
      "name": "mayRent",
      "outputs": [
        {
          "internalType": "bool",
          "name": "",
          "type": "bool"
        }
      ],
      "payable": false,
      "stateMutability": "view",
      "type": "function"
    },
    {
      "constant": true,
      "inputs": [
        {
          "internalType": "address",
          "name": "identifierCar",
          "type": "address"
        },
        {
          "internalType": "address",
          "name": "identifierLeaser",
          "type": "address"
        }
      ],
      "name": "isLegalLeaser",
      "outputs": [
        {
          "internalType": "bool",
          "name": "",
          "type": "bool"
        }
      ],
      "payable": false,
      "stateMutability": "view",
      "type": "function"
    },
    {
      "constant": false,
      "inputs": [
        {
          "internalType": "address payable",
          "name": "identifierCar",
          "type": "address"
        }
      ],
      "name": "returnCarToCarpool",
      "outputs": [],
      "payable": true,
      "stateMutability": "payable",
      "type": "function"
    },
    {
      "constant": true,
      "inputs": [
        {
          "internalType": "address",
          "name": "identifierCar",
          "type": "address"
        }
      ],
      "name": "getOwner",
      "outputs": [
        {
          "internalType": "address",
          "name": "",
          "type": "address"
        }
      ],
      "payable": false,
      "stateMutability": "view",
      "type": "function"
    },
    {
      "constant": true,
      "inputs": [
        {
          "internalType": "address",
          "name": "identifierCar",
          "type": "address"
        }
      ],
      "name": "getCurrentState",
      "outputs": [
        {
          "internalType": "enum carchain.CarState",
          "name": "",
          "type": "uint8"
        }
      ],
      "payable": false,
      "stateMutability": "view",
      "type": "function"
    },
    {
      "constant": true,
      "inputs": [
        {
          "internalType": "address",
          "name": "identifierCar",
          "type": "address"
        }
      ],
      "name": "getLeaser",
      "outputs": [
        {
          "internalType": "address",
          "name": "",
          "type": "address"
        }
      ],
      "payable": false,
      "stateMutability": "view",
      "type": "function"
    },
    {
      "constant": true,
      "inputs": [
        {
          "internalType": "address",
          "name": "identifierCar",
          "type": "address"
        }
      ],
      "name": "getTimeRented",
      "outputs": [
        {
          "internalType": "uint256",
          "name": "",
          "type": "uint256"
        }
      ],
      "payable": false,
      "stateMutability": "view",
      "type": "function"
    },
    {
      "constant": true,
      "inputs": [
        {
          "internalType": "address",
          "name": "identifierCar",
          "type": "address"
        }
      ],
      "name": "getLatitude",
      "outputs": [
        {
          "internalType": "int256",
          "name": "",
          "type": "int256"
        }
      ],
      "payable": false,
      "stateMutability": "view",
      "type": "function"
    },
    {
      "constant": true,
      "inputs": [
        {
          "internalType": "address",
          "name": "identifierCar",
          "type": "address"
        }
      ],
      "name": "getLongitude",
      "outputs": [
        {
          "internalType": "int256",
          "name": "",
          "type": "int256"
        }
      ],
      "payable": false,
      "stateMutability": "view",
      "type": "function"
    },
    {
      "constant": false,
      "inputs": [
        {
          "internalType": "address",
          "name": "identifierCar",
          "type": "address"
        }
      ],
      "name": "resetCar",
      "outputs": [],
      "payable": false,
      "stateMutability": "nonpayable",
      "type": "function"
    }
  ],
  "bytecode": "0x608060405234801561001057600080fd5b50612244806100206000396000f3fe6080604052600436106100c25760003560e01c80638718323e1161007f578063ad4162ae11610059578063ad4162ae14610428578063c7067645146104b1578063e2cc37f1146104f5578063fa5441611461055a576100c2565b80638718323e146102eb5780639f08a3e51461035e578063a4e88cf3146103c3576100c2565b8063102de9e5146100c75780631270e572146101185780632361a67d1461015c5780635e3c7e8d146101a05780636204d12f146101f157806371e4ec9c1461025a575b600080fd5b3480156100d357600080fd5b50610116600480360360208110156100ea57600080fd5b81019080803573ffffffffffffffffffffffffffffffffffffffff1690602001909291905050506105eb565b005b61015a6004803603602081101561012e57600080fd5b81019080803573ffffffffffffffffffffffffffffffffffffffff16906020019092919050505061088d565b005b61019e6004803603602081101561017257600080fd5b81019080803573ffffffffffffffffffffffffffffffffffffffff169060200190929190505050610bf5565b005b3480156101ac57600080fd5b506101ef600480360360208110156101c357600080fd5b81019080803573ffffffffffffffffffffffffffffffffffffffff169060200190929190505050610f4f565b005b3480156101fd57600080fd5b506102406004803603602081101561021457600080fd5b81019080803573ffffffffffffffffffffffffffffffffffffffff1690602001909291905050506110ef565b604051808215151515815260200191505060405180910390f35b34801561026657600080fd5b506102a96004803603602081101561027d57600080fd5b81019080803573ffffffffffffffffffffffffffffffffffffffff1690602001909291905050506112ca565b604051808273ffffffffffffffffffffffffffffffffffffffff1673ffffffffffffffffffffffffffffffffffffffff16815260200191505060405180910390f35b3480156102f757600080fd5b5061033a6004803603602081101561030e57600080fd5b81019080803573ffffffffffffffffffffffffffffffffffffffff16906020019092919050505061143b565b6040518082600281111561034a57fe5b60ff16815260200191505060405180910390f35b34801561036a57600080fd5b506103ad6004803603602081101561038157600080fd5b81019080803573ffffffffffffffffffffffffffffffffffffffff169060200190929190505050611599565b6040518082815260200191505060405180910390f35b3480156103cf57600080fd5b50610412600480360360208110156103e657600080fd5b81019080803573ffffffffffffffffffffffffffffffffffffffff1690602001909291905050506116ea565b6040518082815260200191505060405180910390f35b34801561043457600080fd5b506104976004803603604081101561044b57600080fd5b81019080803573ffffffffffffffffffffffffffffffffffffffff169060200190929190803573ffffffffffffffffffffffffffffffffffffffff16906020019092919050505061183b565b604051808215151515815260200191505060405180910390f35b6104f3600480360360208110156104c757600080fd5b81019080803573ffffffffffffffffffffffffffffffffffffffff169060200190929190505050611aea565b005b34801561050157600080fd5b506105446004803603602081101561051857600080fd5b81019080803573ffffffffffffffffffffffffffffffffffffffff169060200190929190505050611eaa565b6040518082815260200191505060405180910390f35b34801561056657600080fd5b506105a96004803603602081101561057d57600080fd5b81019080803573ffffffffffffffffffffffffffffffffffffffff169060200190929190505050611ffb565b604051808273ffffffffffffffffffffffffffffffffffffffff1673ffffffffffffffffffffffffffffffffffffffff16815260200191505060405180910390f35b600073ffffffffffffffffffffffffffffffffffffffff166000808373ffffffffffffffffffffffffffffffffffffffff1673ffffffffffffffffffffffffffffffffffffffff16815260200190815260200160002060000160009054906101000a900473ffffffffffffffffffffffffffffffffffffffff1673ffffffffffffffffffffffffffffffffffffffff16146106ee576040517f08c379a00000000000000000000000000000000000000000000000000000000081526004018080602001828103825260108152602001807f494420616c726561647920757365642e0000000000000000000000000000000081525060200191505060405180910390fd5b6106f6612174565b6040518060e001604052803373ffffffffffffffffffffffffffffffffffffffff1681526020016000600281111561072a57fe5b8152602001600073ffffffffffffffffffffffffffffffffffffffff16815260200160008152602001600081526020016000815260200160008152509050806000808473ffffffffffffffffffffffffffffffffffffffff1673ffffffffffffffffffffffffffffffffffffffff16815260200190815260200160002060008201518160000160006101000a81548173ffffffffffffffffffffffffffffffffffffffff021916908373ffffffffffffffffffffffffffffffffffffffff16021790555060208201518160000160146101000a81548160ff0219169083600281111561081257fe5b021790555060408201518160010160006101000a81548173ffffffffffffffffffffffffffffffffffffffff021916908373ffffffffffffffffffffffffffffffffffffffff160217905550606082015181600201556080820151816003015560a0820151816004015560c082015181600501559050505050565b80600073ffffffffffffffffffffffffffffffffffffffff166000808373ffffffffffffffffffffffffffffffffffffffff1673ffffffffffffffffffffffffffffffffffffffff16815260200190815260200160002060000160009054906101000a900473ffffffffffffffffffffffffffffffffffffffff1673ffffffffffffffffffffffffffffffffffffffff161415610992576040517f08c379a00000000000000000000000000000000000000000000000000000000081526004018080602001828103825260158152602001807f436172206973206e6f7420696e20636172706f6f6c000000000000000000000081525060200191505060405180910390fd5b81338073ffffffffffffffffffffffffffffffffffffffff166000808473ffffffffffffffffffffffffffffffffffffffff1673ffffffffffffffffffffffffffffffffffffffff16815260200190815260200160002060000160009054906101000a900473ffffffffffffffffffffffffffffffffffffffff1673ffffffffffffffffffffffffffffffffffffffff1614610a96576040517f08c379a000000000000000000000000000000000000000000000000000000000815260040180806020018281038252601f8152602001807f4e6f7420746865207269676874206f776e6572206f6620746865204361722e0081525060200191505060405180910390fd5b8360006002811115610aa457fe5b610aad8261143b565b6002811115610ab857fe5b14610b2b576040517f08c379a00000000000000000000000000000000000000000000000000000000081526004018080602001828103825260108152602001807f436172206973206e6f7420667265652e0000000000000000000000000000000081525060200191505060405180910390fd5b6000808673ffffffffffffffffffffffffffffffffffffffff1673ffffffffffffffffffffffffffffffffffffffff168152602001908152602001600020600080820160006101000a81549073ffffffffffffffffffffffffffffffffffffffff02191690556000820160146101000a81549060ff02191690556001820160006101000a81549073ffffffffffffffffffffffffffffffffffffffff0219169055600282016000905560038201600090556004820160009055600582016000905550505050505050565b80600073ffffffffffffffffffffffffffffffffffffffff166000808373ffffffffffffffffffffffffffffffffffffffff1673ffffffffffffffffffffffffffffffffffffffff16815260200190815260200160002060000160009054906101000a900473ffffffffffffffffffffffffffffffffffffffff1673ffffffffffffffffffffffffffffffffffffffff161415610cfa576040517f08c379a00000000000000000000000000000000000000000000000000000000081526004018080602001828103825260158152602001807f436172206973206e6f7420696e20636172706f6f6c000000000000000000000081525060200191505060405180910390fd5b8160016002811115610d0857fe5b610d118261143b565b6002811115610d1c57fe5b14610d8f576040517f08c379a00000000000000000000000000000000000000000000000000000000081526004018080602001828103825260118152602001807f436172206973206e6f74204c656173656400000000000000000000000000000081525060200191505060405180910390fd5b82338073ffffffffffffffffffffffffffffffffffffffff16610db1836112ca565b73ffffffffffffffffffffffffffffffffffffffff1614610e3a576040517f08c379a00000000000000000000000000000000000000000000000000000000081526004018080602001828103825260208152602001807f4e6f7420746865207269676874204c6561736572206f6620746865204361722e81525060200191505060405180910390fd5b60008060008773ffffffffffffffffffffffffffffffffffffffff1673ffffffffffffffffffffffffffffffffffffffff1681526020019081526020016000206002018190555060016000808773ffffffffffffffffffffffffffffffffffffffff1673ffffffffffffffffffffffffffffffffffffffff16815260200190815260200160002060000160146101000a81548160ff02191690836002811115610edf57fe5b02179055506000808673ffffffffffffffffffffffffffffffffffffffff1673ffffffffffffffffffffffffffffffffffffffff16815260200190815260200160002060010160006101000a81549073ffffffffffffffffffffffffffffffffffffffff02191690555050505050565b610f57612174565b6040518060e00160405280600073ffffffffffffffffffffffffffffffffffffffff16815260200160006002811115610f8c57fe5b8152602001600073ffffffffffffffffffffffffffffffffffffffff16815260200160008152602001600081526020016000815260200160008152509050806000808473ffffffffffffffffffffffffffffffffffffffff1673ffffffffffffffffffffffffffffffffffffffff16815260200190815260200160002060008201518160000160006101000a81548173ffffffffffffffffffffffffffffffffffffffff021916908373ffffffffffffffffffffffffffffffffffffffff16021790555060208201518160000160146101000a81548160ff0219169083600281111561107457fe5b021790555060408201518160010160006101000a81548173ffffffffffffffffffffffffffffffffffffffff021916908373ffffffffffffffffffffffffffffffffffffffff160217905550606082015181600201556080820151816003015560a0820151816004015560c082015181600501559050505050565b600081600073ffffffffffffffffffffffffffffffffffffffff166000808373ffffffffffffffffffffffffffffffffffffffff1673ffffffffffffffffffffffffffffffffffffffff16815260200190815260200160002060000160009054906101000a900473ffffffffffffffffffffffffffffffffffffffff1673ffffffffffffffffffffffffffffffffffffffff1614156111f6576040517f08c379a00000000000000000000000000000000000000000000000000000000081526004018080602001828103825260158152602001807f436172206973206e6f7420696e20636172706f6f6c000000000000000000000081525060200191505060405180910390fd5b600073ffffffffffffffffffffffffffffffffffffffff166000808573ffffffffffffffffffffffffffffffffffffffff1673ffffffffffffffffffffffffffffffffffffffff16815260200190815260200160002060010160009054906101000a900473ffffffffffffffffffffffffffffffffffffffff1673ffffffffffffffffffffffffffffffffffffffff161480156112b157506000600281111561129b57fe5b6112a48461143b565b60028111156112af57fe5b145b156112bf57600191506112c4565b600091505b50919050565b600081600073ffffffffffffffffffffffffffffffffffffffff166000808373ffffffffffffffffffffffffffffffffffffffff1673ffffffffffffffffffffffffffffffffffffffff16815260200190815260200160002060000160009054906101000a900473ffffffffffffffffffffffffffffffffffffffff1673ffffffffffffffffffffffffffffffffffffffff1614156113d1576040517f08c379a00000000000000000000000000000000000000000000000000000000081526004018080602001828103825260158152602001807f436172206973206e6f7420696e20636172706f6f6c000000000000000000000081525060200191505060405180910390fd5b6000808473ffffffffffffffffffffffffffffffffffffffff1673ffffffffffffffffffffffffffffffffffffffff16815260200190815260200160002060010160009054906101000a900473ffffffffffffffffffffffffffffffffffffffff16915050919050565b600081600073ffffffffffffffffffffffffffffffffffffffff166000808373ffffffffffffffffffffffffffffffffffffffff1673ffffffffffffffffffffffffffffffffffffffff16815260200190815260200160002060000160009054906101000a900473ffffffffffffffffffffffffffffffffffffffff1673ffffffffffffffffffffffffffffffffffffffff161415611542576040517f08c379a00000000000000000000000000000000000000000000000000000000081526004018080602001828103825260158152602001807f436172206973206e6f7420696e20636172706f6f6c000000000000000000000081525060200191505060405180910390fd5b6000808473ffffffffffffffffffffffffffffffffffffffff1673ffffffffffffffffffffffffffffffffffffffff16815260200190815260200160002060000160149054906101000a900460ff16915050919050565b600081600073ffffffffffffffffffffffffffffffffffffffff166000808373ffffffffffffffffffffffffffffffffffffffff1673ffffffffffffffffffffffffffffffffffffffff16815260200190815260200160002060000160009054906101000a900473ffffffffffffffffffffffffffffffffffffffff1673ffffffffffffffffffffffffffffffffffffffff1614156116a0576040517f08c379a00000000000000000000000000000000000000000000000000000000081526004018080602001828103825260158152602001807f436172206973206e6f7420696e20636172706f6f6c000000000000000000000081525060200191505060405180910390fd5b6000808473ffffffffffffffffffffffffffffffffffffffff1673ffffffffffffffffffffffffffffffffffffffff16815260200190815260200160002060050154915050919050565b600081600073ffffffffffffffffffffffffffffffffffffffff166000808373ffffffffffffffffffffffffffffffffffffffff1673ffffffffffffffffffffffffffffffffffffffff16815260200190815260200160002060000160009054906101000a900473ffffffffffffffffffffffffffffffffffffffff1673ffffffffffffffffffffffffffffffffffffffff1614156117f1576040517f08c379a00000000000000000000000000000000000000000000000000000000081526004018080602001828103825260158152602001807f436172206973206e6f7420696e20636172706f6f6c000000000000000000000081525060200191505060405180910390fd5b6000808473ffffffffffffffffffffffffffffffffffffffff1673ffffffffffffffffffffffffffffffffffffffff16815260200190815260200160002060020154915050919050565b600082600073ffffffffffffffffffffffffffffffffffffffff166000808373ffffffffffffffffffffffffffffffffffffffff1673ffffffffffffffffffffffffffffffffffffffff16815260200190815260200160002060000160009054906101000a900473ffffffffffffffffffffffffffffffffffffffff1673ffffffffffffffffffffffffffffffffffffffff161415611942576040517f08c379a00000000000000000000000000000000000000000000000000000000081526004018080602001828103825260158152602001807f436172206973206e6f7420696e20636172706f6f6c000000000000000000000081525060200191505060405180910390fd5b836001600281111561195057fe5b6119598261143b565b600281111561196457fe5b146119d7576040517f08c379a00000000000000000000000000000000000000000000000000000000081526004018080602001828103825260118152602001807f436172206973206e6f74204c656173656400000000000000000000000000000081525060200191505060405180910390fd5b84848073ffffffffffffffffffffffffffffffffffffffff166119f9836112ca565b73ffffffffffffffffffffffffffffffffffffffff1614611a82576040517f08c379a00000000000000000000000000000000000000000000000000000000081526004018080602001828103825260208152602001807f4e6f7420746865207269676874204c6561736572206f6620746865204361722e81525060200191505060405180910390fd5b611a8a61216c565b6000808973ffffffffffffffffffffffffffffffffffffffff1673ffffffffffffffffffffffffffffffffffffffff168152602001908152602001600020600201541015611adb5760019450611ae0565b600094505b5050505092915050565b80600073ffffffffffffffffffffffffffffffffffffffff166000808373ffffffffffffffffffffffffffffffffffffffff1673ffffffffffffffffffffffffffffffffffffffff16815260200190815260200160002060000160009054906101000a900473ffffffffffffffffffffffffffffffffffffffff1673ffffffffffffffffffffffffffffffffffffffff161415611bef576040517f08c379a00000000000000000000000000000000000000000000000000000000081526004018080602001828103825260158152602001807f436172206973206e6f7420696e20636172706f6f6c000000000000000000000081525060200191505060405180910390fd5b8160006002811115611bfd57fe5b611c068261143b565b6002811115611c1157fe5b14611c84576040517f08c379a00000000000000000000000000000000000000000000000000000000081526004018080602001828103825260108152602001807f436172206973206e6f7420667265652e0000000000000000000000000000000081525060200191505060405180910390fd5b6108fc3411611cde576040517f08c379a00000000000000000000000000000000000000000000000000000000081526004018080602001828103825260278152602001806121e96027913960400191505060405180910390fd5b346000808573ffffffffffffffffffffffffffffffffffffffff1673ffffffffffffffffffffffffffffffffffffffff1681526020019081526020016000206003018190555060008390508073ffffffffffffffffffffffffffffffffffffffff166108fc8034039081150290604051600060405180830381858888f19350505050158015611d71573d6000803e3d6000fd5b5060016000808673ffffffffffffffffffffffffffffffffffffffff1673ffffffffffffffffffffffffffffffffffffffff16815260200190815260200160002060000160146101000a81548160ff02191690836002811115611dd057fe5b0217905550336000808673ffffffffffffffffffffffffffffffffffffffff1673ffffffffffffffffffffffffffffffffffffffff16815260200190815260200160002060010160006101000a81548173ffffffffffffffffffffffffffffffffffffffff021916908373ffffffffffffffffffffffffffffffffffffffff16021790555034611e5e61216c565b016000808673ffffffffffffffffffffffffffffffffffffffff1673ffffffffffffffffffffffffffffffffffffffff1681526020019081526020016000206002018190555050505050565b600081600073ffffffffffffffffffffffffffffffffffffffff166000808373ffffffffffffffffffffffffffffffffffffffff1673ffffffffffffffffffffffffffffffffffffffff16815260200190815260200160002060000160009054906101000a900473ffffffffffffffffffffffffffffffffffffffff1673ffffffffffffffffffffffffffffffffffffffff161415611fb1576040517f08c379a00000000000000000000000000000000000000000000000000000000081526004018080602001828103825260158152602001807f436172206973206e6f7420696e20636172706f6f6c000000000000000000000081525060200191505060405180910390fd5b6000808473ffffffffffffffffffffffffffffffffffffffff1673ffffffffffffffffffffffffffffffffffffffff16815260200190815260200160002060040154915050919050565b600081600073ffffffffffffffffffffffffffffffffffffffff166000808373ffffffffffffffffffffffffffffffffffffffff1673ffffffffffffffffffffffffffffffffffffffff16815260200190815260200160002060000160009054906101000a900473ffffffffffffffffffffffffffffffffffffffff1673ffffffffffffffffffffffffffffffffffffffff161415612102576040517f08c379a00000000000000000000000000000000000000000000000000000000081526004018080602001828103825260158152602001807f436172206973206e6f7420696e20636172706f6f6c000000000000000000000081525060200191505060405180910390fd5b6000808473ffffffffffffffffffffffffffffffffffffffff1673ffffffffffffffffffffffffffffffffffffffff16815260200190815260200160002060000160009054906101000a900473ffffffffffffffffffffffffffffffffffffffff16915050919050565b600042905090565b6040518060e00160405280600073ffffffffffffffffffffffffffffffffffffffff168152602001600060028111156121a957fe5b8152602001600073ffffffffffffffffffffffffffffffffffffffff16815260200160008152602001600081526020016000815260200160008152509056fe596f7520646964206e6f742070617920656e6f7567682e20284d696e696d756d3a203233303029a265627a7a7231582026abc77c98eedaa166862b239b189e3d52c4439e99a79723fdb43ec4e90bb2c364736f6c63430005100032",
  "source": "pragma solidity >=0.4.21 <0.7.0;\r\n\r\n\r\ncontract carchain {\r\n\r\nenum CarState {\r\n    Free,\r\n    Leased,\r\n    Blocked\r\n}\r\n\r\n  //every Car has to have an owner!\r\n  struct Car{\r\n    address owner;\r\n    CarState currentState;\r\n    address leaser;\r\n    uint256 timeRented;\r\n    uint256 amountEarned;\r\n    int256 longitude;\r\n    int256 latitude;\r\n  }\r\n\r\n  mapping (address => Car) carpool;\r\n\r\n\r\n  constructor() public {\r\n  }\r\n\r\n//--------------------------------------------------------------------------------------------------------------------\r\n\r\n  /*\r\n  Adds a new Car to the Carpool.\r\n  */\r\n  function addCar(address identifierCar) public {\r\n    require(\r\n      carpool[identifierCar].owner == address(0), \"ID already used.\"\r\n      );\r\n\r\n    Car memory newCar = Car({\r\n      owner: msg.sender, currentState: CarState.Free, leaser: address(0), timeRented: 0, amountEarned: 0,longitude: 0, latitude: 0\r\n      });\r\n\r\n    carpool[identifierCar] = newCar;\r\n  }\r\n\r\n  /*\r\n  Removes a car which is not currently in Use from the total Carpool.\r\n  */\r\n  function removeCar(address payable identifierCar) public\r\n            knownCar(identifierCar) onlyOwner(identifierCar, msg.sender) carFree(identifierCar) payable {\r\n    delete carpool[identifierCar];\r\n  }\r\n\r\n//--------------------------------------------------------------------------------------------------------------------\r\n\r\n  /*\r\n  Marks a car as rented and safes the point from where the car was rented.\r\n  */\r\n  function rentCar(address payable identifierCar) public knownCar(identifierCar) carFree(identifierCar) payable {\r\n    //Mindestmietdauer?\r\n    require(msg.value > 2300, \"You did not pay enough. (Minimum: 2300)\");\r\n\r\n    carpool[identifierCar].amountEarned = msg.value;\r\n    address payable beneficiary = identifierCar;\r\n    beneficiary.transfer(msg.value - 2300);\r\n    carpool[identifierCar].currentState = CarState.Leased;\r\n    carpool[identifierCar].leaser = msg.sender;\r\n    //Problem: block.timestamp ist worst case 90 sekunden ungenau wegen manipulation von minern.\r\n    carpool[identifierCar].timeRented = getTimeNow() + msg.value;\r\n  }\r\n\r\n  /*\r\n  Gives a boolean value if a car is now avaible for rent.\r\n  */\r\n  function mayRent(address identifierCar) public knownCar(identifierCar) view returns (bool) {\r\n    if(carpool[identifierCar].leaser == address(0) && getCurrentState(identifierCar) == CarState.Free){\r\n      return true;\r\n    }else{\r\n      return false;\r\n    }\r\n  }\r\n\r\n  /*\r\n  Gives a boolean value if a Leaser is still Lawfully/ Legally a Leaser and has enough credit.\r\n  */\r\n  function isLegalLeaser(address identifierCar, address identifierLeaser) public\r\n            knownCar(identifierCar) isLeased(identifierCar) isLeasedBy(identifierCar, identifierLeaser) view returns (bool) {\r\n    if(carpool[identifierCar].timeRented < getTimeNow()){\r\n      return true;\r\n    }\r\n    return false;\r\n  }\r\n\r\n  /*\r\n  After a Car was rented the car is given back to the free carpool and given the state not rented.\r\n  */\r\n  function returnCarToCarpool(address payable identifierCar) public\r\n            knownCar(identifierCar) isLeased(identifierCar) isLeasedBy(identifierCar, msg.sender) payable {\r\n    carpool[identifierCar].timeRented = 0;\r\n    carpool[identifierCar].currentState = CarState.Leased;\r\n    delete carpool[identifierCar].leaser;\r\n  }\r\n\r\n\r\n\r\n//--------------------------------------------------------------------------------------------------------------------\r\n\r\n//public getter for Car\r\n\r\n  function getOwner(address identifierCar) public knownCar(identifierCar) view returns (address) {\r\n    return carpool[identifierCar].owner;\r\n  }\r\n\r\n  /*\r\n  Checks if a Car is already rented/ in Use.\r\n  */\r\n  function getCurrentState(address identifierCar) public knownCar(identifierCar) view returns (CarState) {\r\n    return carpool[identifierCar].currentState;\r\n  }\r\n\r\n  function getLeaser(address identifierCar) public knownCar(identifierCar) view returns (address) {\r\n    return carpool[identifierCar].leaser;\r\n  }\r\n\r\n  function getTimeRented(address identifierCar) public knownCar(identifierCar) view returns (uint256) {\r\n    return carpool[identifierCar].timeRented;\r\n  }\r\n\r\n  function getLatitude(address identifierCar) public knownCar(identifierCar) view returns (int256) {\r\n    return carpool[identifierCar].latitude;\r\n  }\r\n\r\n  function getLongitude(address identifierCar) public knownCar(identifierCar) view returns (int256) {\r\n    return carpool[identifierCar].longitude;\r\n  }\r\n\r\n\r\n//--------------------------------------------------------------------------------------------------------------------\r\n\r\n  /*\r\n  Resets a car from the total Carpool.\r\n  Just for debugging Reasons. Should not make to the final version.\r\n  */\r\n  function resetCar(address identifierCar) public{\r\n    Car memory defaultValueCar = Car({\r\n      owner: address(0), currentState: CarState.Free, leaser: address(0), timeRented: 0, amountEarned: 0, longitude: 0, latitude: 0\r\n      });\r\n\r\n    carpool[identifierCar] = defaultValueCar;\r\n  }\r\n\r\n  //--------------------------------------------------------------------------------------------------------------------\r\n\r\n  //Private Methods\r\n\r\n  function getTimeNow() private view returns (uint256){\r\n    return now;\r\n  }\r\n\r\n  function makeCarFree (address identifierCar) private {\r\n    delete carpool[identifierCar].leaser;\r\n    carpool[identifierCar].currentState = CarState.Free;\r\n  }\r\n\r\n\r\n  modifier knownCar (address identifierCar) {\r\n    require(carpool[identifierCar].owner != address(0), \"Car is not in carpool\");\r\n    _;\r\n  }\r\n\r\n  modifier onlyOwner (address identifierCar, address identifierOwner) {\r\n    require(carpool[identifierCar].owner == identifierOwner, \"Not the right owner of the Car.\");\r\n    _;\r\n  }\r\n\r\n  modifier isLeased (address identifierCar) {\r\n    require(getCurrentState(identifierCar) == CarState.Leased, \"Car is not Leased\");\r\n    _;\r\n  }\r\n\r\n  modifier isLeasedBy (address identifierCar, address identifierLeaser) {\r\n    require(getLeaser(identifierCar) == identifierLeaser, \"Not the right Leaser of the Car.\");\r\n    _;\r\n  }\r\n\r\n  modifier carFree (address identifierCar) {\r\n    require(getCurrentState(identifierCar) == CarState.Free, \"Car is not free.\");\r\n    _;\r\n  }\r\n\r\n}\r\n\r\n",
  "sourcePath": "C:\\Users\\meton\\Desktop\\verteilte miete\\carchain\\Blockchain\\ethereum\\contracts\\carchain.sol",
  "compiler": {
    "name": "solc",
    "version": "0.5.16+commit.9c3226ce.Emscripten.clang"
  },
  "schemaVersion": "3.0.23",
  "updatedAt": "2020-03-10T14:08:59.964Z",
  "networkType": "ethereum",
  "devdoc": {
    "methods": {}
  },
  "userdoc": {
    "methods": {}
  }
}