{
  "contractName": "carchain",
  "abi": [
    {
      "inputs": [],
      "payable": false,
      "stateMutability": "nonpayable",
      "type": "constructor"
    },
    {
      "constant": false,
      "inputs": [
        {
          "internalType": "uint256",
          "name": "identifierCar",
          "type": "uint256"
        }
      ],
      "name": "addCar",
      "outputs": [],
      "payable": false,
      "stateMutability": "nonpayable",
      "type": "function"
    },
    {
      "constant": false,
      "inputs": [
        {
          "internalType": "uint256",
          "name": "identifierCar",
          "type": "uint256"
        },
        {
          "internalType": "address",
          "name": "identifierOwner",
          "type": "address"
        }
      ],
      "name": "removeCar",
      "outputs": [],
      "payable": false,
      "stateMutability": "nonpayable",
      "type": "function"
    },
    {
      "constant": false,
      "inputs": [
        {
          "internalType": "uint256",
          "name": "identifierCar",
          "type": "uint256"
        }
      ],
      "name": "rentCar",
      "outputs": [],
      "payable": true,
      "stateMutability": "payable",
      "type": "function"
    },
    {
      "constant": true,
      "inputs": [
        {
          "internalType": "uint256",
          "name": "identifierCar",
          "type": "uint256"
        }
      ],
      "name": "mayRent",
      "outputs": [
        {
          "internalType": "bool",
          "name": "",
          "type": "bool"
        }
      ],
      "payable": false,
      "stateMutability": "view",
      "type": "function"
    },
    {
      "constant": true,
      "inputs": [
        {
          "internalType": "uint256",
          "name": "identifierCar",
          "type": "uint256"
        },
        {
          "internalType": "address",
          "name": "identifierLeaser",
          "type": "address"
        }
      ],
      "name": "isLegalLeaser",
      "outputs": [
        {
          "internalType": "bool",
          "name": "",
          "type": "bool"
        }
      ],
      "payable": false,
      "stateMutability": "view",
      "type": "function"
    },
    {
      "constant": false,
      "inputs": [
        {
          "internalType": "uint256",
          "name": "identifierCar",
          "type": "uint256"
        }
      ],
      "name": "returnCarToCarpool",
      "outputs": [],
      "payable": true,
      "stateMutability": "payable",
      "type": "function"
    },
    {
      "constant": true,
      "inputs": [
        {
          "internalType": "uint256",
          "name": "identifierCar",
          "type": "uint256"
        }
      ],
      "name": "getOwner",
      "outputs": [
        {
          "internalType": "address",
          "name": "",
          "type": "address"
        }
      ],
      "payable": false,
      "stateMutability": "view",
      "type": "function"
    },
    {
      "constant": true,
      "inputs": [
        {
          "internalType": "uint256",
          "name": "identifierCar",
          "type": "uint256"
        }
      ],
      "name": "getInUse",
      "outputs": [
        {
          "internalType": "bool",
          "name": "",
          "type": "bool"
        }
      ],
      "payable": false,
      "stateMutability": "view",
      "type": "function"
    },
    {
      "constant": true,
      "inputs": [
        {
          "internalType": "uint256",
          "name": "identifierCar",
          "type": "uint256"
        }
      ],
      "name": "getLeaser",
      "outputs": [
        {
          "internalType": "address",
          "name": "",
          "type": "address"
        }
      ],
      "payable": false,
      "stateMutability": "view",
      "type": "function"
    },
    {
      "constant": true,
      "inputs": [
        {
          "internalType": "uint256",
          "name": "identifierCar",
          "type": "uint256"
        }
      ],
      "name": "getTimeRented",
      "outputs": [
        {
          "internalType": "uint256",
          "name": "",
          "type": "uint256"
        }
      ],
      "payable": false,
      "stateMutability": "view",
      "type": "function"
    },
    {
      "constant": true,
      "inputs": [
        {
          "internalType": "uint256",
          "name": "identifierCar",
          "type": "uint256"
        }
      ],
      "name": "getxCoordinate",
      "outputs": [
        {
          "internalType": "int256",
          "name": "",
          "type": "int256"
        }
      ],
      "payable": false,
      "stateMutability": "view",
      "type": "function"
    },
    {
      "constant": true,
      "inputs": [
        {
          "internalType": "uint256",
          "name": "identifierCar",
          "type": "uint256"
        }
      ],
      "name": "getyCoordinate",
      "outputs": [
        {
          "internalType": "int256",
          "name": "",
          "type": "int256"
        }
      ],
      "payable": false,
      "stateMutability": "view",
      "type": "function"
    },
    {
      "constant": true,
      "inputs": [
        {
          "internalType": "uint256",
          "name": "identifierCar",
          "type": "uint256"
        }
      ],
      "name": "getzCoordinate",
      "outputs": [
        {
          "internalType": "int256",
          "name": "",
          "type": "int256"
        }
      ],
      "payable": false,
      "stateMutability": "view",
      "type": "function"
    },
    {
      "constant": false,
      "inputs": [
        {
          "internalType": "uint256",
          "name": "identifierCar",
          "type": "uint256"
        }
      ],
      "name": "resetCar",
      "outputs": [],
      "payable": false,
      "stateMutability": "nonpayable",
      "type": "function"
    }
  ],
  "bytecode": "0x608060405234801561001057600080fd5b506116da806100206000396000f3fe6080604052600436106100dd5760003560e01c8063a78095961161007f578063ca06a92911610059578063ca06a9291461041b578063e1e8aab71461046a578063ecef7e8714610498578063f17a559d1461050b576100dd565b8063a7809596146102fe578063aa1381ca1461034d578063c41a360a146103a0576100dd565b80634de26e6f116100bb5780634de26e6f146101b3578063523504d01461020257806359dc05151461027d578063a457d80a146102d0576100dd565b80631f5c42fb146100e257806338f720be1461013d5780634cf2010e14610178575b600080fd5b3480156100ee57600080fd5b5061013b6004803603604081101561010557600080fd5b8101908080359060200190929190803573ffffffffffffffffffffffffffffffffffffffff16906020019092919050505061055a565b005b34801561014957600080fd5b506101766004803603602081101561016057600080fd5b81019080803590602001909291905050506108b2565b005b34801561018457600080fd5b506101b16004803603602081101561019b57600080fd5b8101908080359060200190929190505050610a26565b005b3480156101bf57600080fd5b506101ec600480360360208110156101d657600080fd5b8101908080359060200190929190505050610c53565b6040518082815260200191505060405180910390f35b34801561020e57600080fd5b5061023b6004803603602081101561022557600080fd5b8101908080359060200190929190505050610c72565b604051808273ffffffffffffffffffffffffffffffffffffffff1673ffffffffffffffffffffffffffffffffffffffff16815260200191505060405180910390f35b34801561028957600080fd5b506102b6600480360360208110156102a057600080fd5b8101908080359060200190929190505050610cb1565b604051808215151515815260200191505060405180910390f35b6102fc600480360360208110156102e657600080fd5b8101908080359060200190929190505050610cdd565b005b34801561030a57600080fd5b506103376004803603602081101561032157600080fd5b8101908080359060200190929190505050610e64565b6040518082815260200191505060405180910390f35b34801561035957600080fd5b506103866004803603602081101561037057600080fd5b8101908080359060200190929190505050610e83565b604051808215151515815260200191505060405180910390f35b3480156103ac57600080fd5b506103d9600480360360208110156103c357600080fd5b8101908080359060200190929190505050610ff1565b604051808273ffffffffffffffffffffffffffffffffffffffff1673ffffffffffffffffffffffffffffffffffffffff16815260200191505060405180910390f35b34801561042757600080fd5b506104546004803603602081101561043e57600080fd5b8101908080359060200190929190505050611030565b6040518082815260200191505060405180910390f35b6104966004803603602081101561048057600080fd5b810190808035906020019092919050505061104f565b005b3480156104a457600080fd5b506104f1600480360360408110156104bb57600080fd5b8101908080359060200190929190803573ffffffffffffffffffffffffffffffffffffffff1690602001909291905050506112c1565b604051808215151515815260200191505060405180910390f35b34801561051757600080fd5b506105446004803603602081101561052e57600080fd5b810190808035906020019092919050505061151f565b6040518082815260200191505060405180910390f35b6000151560008084815260200190815260200160002060000160149054906101000a900460ff1615151480156105f15750600073ffffffffffffffffffffffffffffffffffffffff1660008084815260200190815260200160002060010160009054906101000a900473ffffffffffffffffffffffffffffffffffffffff1673ffffffffffffffffffffffffffffffffffffffff16145b80156106125750600080600084815260200190815260200160002060020154145b610667576040517f08c379a000000000000000000000000000000000000000000000000000000000815260040180806020018281038252602881526020018061161f6028913960400191505060405180910390fd5b8073ffffffffffffffffffffffffffffffffffffffff1660008084815260200190815260200160002060000160009054906101000a900473ffffffffffffffffffffffffffffffffffffffff1673ffffffffffffffffffffffffffffffffffffffff161461073d576040517f08c379a00000000000000000000000000000000000000000000000000000000081526004018080602001828103825260138152602001807f57726f6e67204f776e6572206f66204361722e0000000000000000000000000081525060200191505060405180910390fd5b61074561153e565b604051806101000160405280600073ffffffffffffffffffffffffffffffffffffffff168152602001600015158152602001600073ffffffffffffffffffffffffffffffffffffffff16815260200160008152602001600081526020016000815260200160008152602001600081525090508060008085815260200190815260200160002060008201518160000160006101000a81548173ffffffffffffffffffffffffffffffffffffffff021916908373ffffffffffffffffffffffffffffffffffffffff16021790555060208201518160000160146101000a81548160ff02191690831515021790555060408201518160010160006101000a81548173ffffffffffffffffffffffffffffffffffffffff021916908373ffffffffffffffffffffffffffffffffffffffff160217905550606082015181600201556080820151816003015560a0820151816004015560c0820151816005015560e08201518160060155905050505050565b6108ba61153e565b604051806101000160405280600073ffffffffffffffffffffffffffffffffffffffff168152602001600015158152602001600073ffffffffffffffffffffffffffffffffffffffff16815260200160008152602001600081526020016000815260200160008152602001600081525090508060008084815260200190815260200160002060008201518160000160006101000a81548173ffffffffffffffffffffffffffffffffffffffff021916908373ffffffffffffffffffffffffffffffffffffffff16021790555060208201518160000160146101000a81548160ff02191690831515021790555060408201518160010160006101000a81548173ffffffffffffffffffffffffffffffffffffffff021916908373ffffffffffffffffffffffffffffffffffffffff160217905550606082015181600201556080820151816003015560a0820151816004015560c0820151816005015560e082015181600601559050505050565b600073ffffffffffffffffffffffffffffffffffffffff1660008083815260200190815260200160002060000160009054906101000a900473ffffffffffffffffffffffffffffffffffffffff1673ffffffffffffffffffffffffffffffffffffffff1614610ae0576040517f08c379a00000000000000000000000000000000000000000000000000000000081526004018080602001828103825260398152602001806115e66039913960400191505060405180910390fd5b610ae861153e565b6040518061010001604052803373ffffffffffffffffffffffffffffffffffffffff168152602001600015158152602001600073ffffffffffffffffffffffffffffffffffffffff16815260200160008152602001600081526020016000815260200160008152602001600081525090508060008084815260200190815260200160002060008201518160000160006101000a81548173ffffffffffffffffffffffffffffffffffffffff021916908373ffffffffffffffffffffffffffffffffffffffff16021790555060208201518160000160146101000a81548160ff02191690831515021790555060408201518160010160006101000a81548173ffffffffffffffffffffffffffffffffffffffff021916908373ffffffffffffffffffffffffffffffffffffffff160217905550606082015181600201556080820151816003015560a0820151816004015560c0820151816005015560e082015181600601559050505050565b6000806000838152602001908152602001600020600501549050919050565b600080600083815260200190815260200160002060010160009054906101000a900473ffffffffffffffffffffffffffffffffffffffff169050919050565b600080600083815260200190815260200160002060000160149054906101000a900460ff169050919050565b600073ffffffffffffffffffffffffffffffffffffffff1660008083815260200190815260200160002060010160009054906101000a900473ffffffffffffffffffffffffffffffffffffffff1673ffffffffffffffffffffffffffffffffffffffff16118015610d535750610d5281610cb1565b5b610da8576040517f08c379a00000000000000000000000000000000000000000000000000000000081526004018080602001828103825260348152602001806115b26034913960400191505060405180910390fd5b600080600083815260200190815260200160002060020181905550600080600083815260200190815260200160002060030181905550600080600083815260200190815260200160002060000160146101000a81548160ff021916908315150217905550600080600083815260200190815260200160002060010160006101000a81548173ffffffffffffffffffffffffffffffffffffffff021916908373ffffffffffffffffffffffffffffffffffffffff16021790555050565b6000806000838152602001908152602001600020600201549050919050565b60008073ffffffffffffffffffffffffffffffffffffffff1660008084815260200190815260200160002060000160009054906101000a900473ffffffffffffffffffffffffffffffffffffffff1673ffffffffffffffffffffffffffffffffffffffff161415610f5c576040517f08c379a00000000000000000000000000000000000000000000000000000000081526004018080602001828103825260158152602001807f436172206973206e6f7420696e20636172706f6f6c000000000000000000000081525060200191505060405180910390fd5b600073ffffffffffffffffffffffffffffffffffffffff1660008084815260200190815260200160002060010160009054906101000a900473ffffffffffffffffffffffffffffffffffffffff1673ffffffffffffffffffffffffffffffffffffffff16148015610fd9575060001515610fd583610cb1565b1515145b15610fe75760019050610fec565b600090505b919050565b600080600083815260200190815260200160002060000160009054906101000a900473ffffffffffffffffffffffffffffffffffffffff169050919050565b6000806000838152602001908152602001600020600401549050919050565b600073ffffffffffffffffffffffffffffffffffffffff1660008083815260200190815260200160002060000160009054906101000a900473ffffffffffffffffffffffffffffffffffffffff1673ffffffffffffffffffffffffffffffffffffffff161415611127576040517f08c379a00000000000000000000000000000000000000000000000000000000081526004018080602001828103825260158152602001807f436172206973206e6f7420696e20636172706f6f6c000000000000000000000081525060200191505060405180910390fd5b6000151561113482610cb1565b1515146111a9576040517f08c379a000000000000000000000000000000000000000000000000000000000815260040180806020018281038252601d8152602001807f43617220686173206e6f206f6e652077686f206c65617365642069742e00000081525060200191505060405180910390fd5b6107083410611220576040517f08c379a000000000000000000000000000000000000000000000000000000000815260040180806020018281038252601e8152602001807f596f7520646964206e6f742070617920656e6f7567682e20283138303029000081525060200191505060405180910390fd5b600160008083815260200190815260200160002060000160146101000a81548160ff0219169083151502179055503360008083815260200190815260200160002060010160006101000a81548173ffffffffffffffffffffffffffffffffffffffff021916908373ffffffffffffffffffffffffffffffffffffffff1602179055503442016000808381526020019081526020016000206002018190555050565b60008073ffffffffffffffffffffffffffffffffffffffff1660008085815260200190815260200160002060000160009054906101000a900473ffffffffffffffffffffffffffffffffffffffff1673ffffffffffffffffffffffffffffffffffffffff1611611399576040517f08c379a00000000000000000000000000000000000000000000000000000000081526004018080602001828103825260158152602001807f436172206973206e6f7420696e20636172706f6f6c000000000000000000000081525060200191505060405180910390fd5b8173ffffffffffffffffffffffffffffffffffffffff163373ffffffffffffffffffffffffffffffffffffffff161461141d576040517f08c379a000000000000000000000000000000000000000000000000000000000815260040180806020018281038252602e815260200180611647602e913960400191505060405180910390fd5b6001151561142a84610cb1565b151514611482576040517f08c379a00000000000000000000000000000000000000000000000000000000081526004018080602001828103825260318152602001806116756031913960400191505060405180910390fd5b8173ffffffffffffffffffffffffffffffffffffffff1660008085815260200190815260200160002060010160009054906101000a900473ffffffffffffffffffffffffffffffffffffffff1673ffffffffffffffffffffffffffffffffffffffff1614801561150657504260008085815260200190815260200160002060020154105b156115145760019050611519565b600090505b92915050565b6000806000838152602001908152602001600020600601549050919050565b604051806101000160405280600073ffffffffffffffffffffffffffffffffffffffff168152602001600015158152602001600073ffffffffffffffffffffffffffffffffffffffff1681526020016000815260200160008152602001600081526020016000815260200160008152509056fe436172206973206e6f7420696e2055736520616e64207468657265666f72652063616e206e6f742062652072657475726e65642e43617220697320616c726561647920696e20436172706f6f6c20616e642061206e6577204361722063616e206e6f742062652061646465642e436172207374696c6c20696e2075736520616e642063616e206e6f742062652072656d6f7665642e53656e646572206973206e6f74207468652073616d652061732074686520506172616d65746572204c6561736572436172206973206e6f7420696e207573652e202d2d3e2054686572652063616e206e6f742062652061206c65617365722ea265627a7a72315820e5a1d76656f886df7d00a7f8716e400f29a3d6a3096c9d98b392ad0e7929993a64736f6c63430005100032",
  "source": "pragma solidity >=0.4.21 <0.7.0;\r\n\r\n\r\ncontract carchain {\r\n\r\n  //every Car has to have an owner!\r\n  struct Car{\r\n    address owner;\r\n    bool inUse;\r\n    address leaser;\r\n    uint256 timeRented;\r\n    uint256 amountPaid;\r\n    //lattitude longitute\r\n    int256 xCoordinate;\r\n    int256 yCoordinate;\r\n    int256 zCoordinate;\r\n  }\r\n\r\n  mapping (uint256 => Car) carpool;\r\n\r\n\r\n  constructor() public {\r\n  \r\n  }\r\n\r\n//--------------------------------------------------------------------------------------------------------------------\r\n\r\n  /*\r\n  Adds a new Car to the Carpool.\r\n  */\r\n  function addCar(uint256 identifierCar) public {\r\n    require(\r\n      carpool[identifierCar].owner == address(0), \"Car is already in Carpool and a new Car can not be added.\"\r\n      );\r\n\r\n    Car memory newCar = Car({\r\n      owner: msg.sender, inUse: false, leaser: address(0), timeRented: 0, amountPaid: 0, xCoordinate: 0, yCoordinate: 0, zCoordinate: 0\r\n      });\r\n\r\n    carpool[identifierCar] = newCar;\r\n  }\r\n\r\n  /*\r\n  Removes a car which is not currently in Use from the total Carpool.\r\n  */\r\n  function removeCar(uint256 identifierCar, address identifierOwner) public{\r\n    require(\r\n      carpool[identifierCar].inUse == false && carpool[identifierCar].leaser == address(0) && carpool[identifierCar].timeRented == 0,\"Car still in use and can not be removed.\"\r\n      );\r\n    require(\r\n      carpool[identifierCar].owner == identifierOwner, \"Wrong Owner of Car.\"\r\n    );\r\n\r\n    Car memory defaultValueCar = Car({\r\n      owner: address(0), inUse: false, leaser: address(0), timeRented: 0, amountPaid: 0, xCoordinate: 0, yCoordinate: 0, zCoordinate: 0\r\n      });\r\n\r\n    carpool[identifierCar] = defaultValueCar;\r\n  }\r\n\r\n//--------------------------------------------------------------------------------------------------------------------\r\n\r\n  /*\r\n  Marks a car as rented and safes the point from where the car was rented.\r\n  */\r\n  function rentCar(uint256 identifierCar) public payable {\r\n    require(carpool[identifierCar].owner != address(0), \"Car is not in carpool\");\r\n    require(getInUse(identifierCar) == false, \"Car has no one who leased it.\");\r\n    //Mindestmietdauer?\r\n    require(msg.value < 1800, \"You did not pay enough. (1800)\");\r\n\r\n    carpool[identifierCar].inUse = true;\r\n    carpool[identifierCar].leaser = msg.sender;\r\n    //Problem: block.timestamp ist ungefähr 90 sekunden ungenau wegen manipulation von minern.\r\n    carpool[identifierCar].timeRented = block.timestamp + msg.value;\r\n  }\r\n\r\n  /*\r\n  Gives a boolean value if a car is now avaible for rent.\r\n  */\r\n  function mayRent(uint256 identifierCar) public view returns (bool) {\r\n    require(carpool[identifierCar].owner != address(0), \"Car is not in carpool\");\r\n\r\n    if(carpool[identifierCar].leaser == address(0) && getInUse(identifierCar) == false){\r\n      return true;\r\n    }else{\r\n      return false;\r\n    }\r\n  }\r\n\r\n  /*\r\n  Gives a boolean value if a Leaser is still Lawfully/ Legally a Leaser and has enough credit.\r\n  */\r\n  function isLegalLeaser(uint256 identifierCar, address identifierLeaser) public view returns (bool) {\r\n    require(carpool[identifierCar].owner > address(0), \"Car is not in carpool\");\r\n    require(msg.sender == identifierLeaser, \"Sender is not the same as the Parameter Leaser\");\r\n    require(getInUse(identifierCar) == true, \"Car is not in use. --> There can not be a leaser.\");\r\n\r\n    if(carpool[identifierCar].leaser == identifierLeaser && carpool[identifierCar].timeRented < block.timestamp){\r\n      return true;\r\n    }\r\n    return false;\r\n  }\r\n\r\n  /*\r\n  After a Car was rented the car is given back to the free carpool and given the state not rented.\r\n  */\r\n  function returnCarToCarpool(uint256 identifierCar) public payable {\r\n    require(carpool[identifierCar].leaser > address(0) && getInUse(identifierCar), \"Car is not in Use and therefore can not be returned.\");\r\n\r\n    carpool[identifierCar].timeRented = 0;\r\n    //payable(carpool[identifierCar].owner).transfer(carpool[identifierCar].amountPaid);\r\n    carpool[identifierCar].amountPaid = 0;\r\n    carpool[identifierCar].inUse = false;\r\n    carpool[identifierCar].leaser = address(0);\r\n  }\r\n\r\n\r\n\r\n//--------------------------------------------------------------------------------------------------------------------\r\n\r\n//getter and setter for Car\r\n\r\n  function getOwner(uint256 identifierCar) public view returns (address) {\r\n    return carpool[identifierCar].owner;\r\n  }\r\n\r\n  /*\r\n  Checks if a Car is already rented/ in Use.\r\n  */\r\n  function getInUse(uint256 identifierCar) public view returns (bool) {\r\n    return carpool[identifierCar].inUse;\r\n  }\r\n\r\n  function getLeaser(uint256 identifierCar) public view returns (address) {\r\n    return carpool[identifierCar].leaser;\r\n  }\r\n\r\n  function getTimeRented(uint256 identifierCar) public view returns (uint256) {\r\n    return carpool[identifierCar].timeRented;\r\n  }\r\n\r\n  function getxCoordinate(uint256 identifierCar) public view returns (int256) {\r\n    return carpool[identifierCar].xCoordinate;\r\n  }\r\n\r\n  function getyCoordinate(uint256 identifierCar) public view returns (int256) {\r\n    return carpool[identifierCar].yCoordinate;\r\n  }\r\n\r\n  function getzCoordinate(uint256 identifierCar) public view returns (int256) {\r\n    return carpool[identifierCar].zCoordinate;\r\n  }\r\n\r\n//--------------------------------------------------------------------------------------------------------------------\r\n\r\n  /*\r\n  Resets a car from the total Carpool.\r\n  Just for debugging Reasons. Should not make to the final version.\r\n  */\r\n  function resetCar(uint256 identifierCar) public{\r\n    Car memory defaultValueCar = Car({\r\n      owner: address(0), inUse: false, leaser: address(0), timeRented: 0, amountPaid: 0, xCoordinate: 0, yCoordinate: 0, zCoordinate: 0\r\n      });\r\n\r\n    carpool[identifierCar] = defaultValueCar;\r\n  }\r\n}",
  "sourcePath": "C:\\Users\\meton\\Desktop\\verteilte miete\\carchain\\Blockchain\\ethereum\\contracts\\carchain.sol",
  "compiler": {
    "name": "solc",
    "version": "0.5.16+commit.9c3226ce.Emscripten.clang"
  },
  "schemaVersion": "3.0.23",
  "updatedAt": "2020-03-03T10:38:37.055Z",
  "networkType": "ethereum",
  "devdoc": {
    "methods": {}
  },
  "userdoc": {
    "methods": {}
  }
}